{
  "_format": "hh-sol-artifact-1",
  "contractName": "Valuation",
  "sourceName": "contracts/Valuation.sol",
  "abi": [
    {
      "inputs": [],
      "stateMutability": "nonpayable",
      "type": "constructor"
    },
    {
      "anonymous": false,
      "inputs": [
        {
          "indexed": true,
          "internalType": "uint256",
          "name": "assetId",
          "type": "uint256"
        },
        {
          "indexed": false,
          "internalType": "uint256",
          "name": "newValue",
          "type": "uint256"
        }
      ],
      "name": "CompositeValueUpdated",
      "type": "event"
    },
    {
      "anonymous": false,
      "inputs": [
        {
          "indexed": true,
          "internalType": "uint256",
          "name": "valuationId",
          "type": "uint256"
        },
        {
          "indexed": true,
          "internalType": "uint256",
          "name": "assetId",
          "type": "uint256"
        },
        {
          "indexed": false,
          "internalType": "enum Valuation.Method",
          "name": "method",
          "type": "uint8"
        },
        {
          "indexed": false,
          "internalType": "uint256",
          "name": "estimatedValue",
          "type": "uint256"
        }
      ],
      "name": "ValuationRecorded",
      "type": "event"
    },
    {
      "anonymous": false,
      "inputs": [
        {
          "indexed": true,
          "internalType": "uint256",
          "name": "valuationId",
          "type": "uint256"
        }
      ],
      "name": "ValuationVerified",
      "type": "event"
    },
    {
      "inputs": [],
      "name": "admin",
      "outputs": [
        {
          "internalType": "address",
          "name": "",
          "type": "address"
        }
      ],
      "stateMutability": "view",
      "type": "function"
    },
    {
      "inputs": [
        {
          "internalType": "uint256",
          "name": "",
          "type": "uint256"
        },
        {
          "internalType": "uint256",
          "name": "",
          "type": "uint256"
        }
      ],
      "name": "assetValuations",
      "outputs": [
        {
          "internalType": "uint256",
          "name": "",
          "type": "uint256"
        }
      ],
      "stateMutability": "view",
      "type": "function"
    },
    {
      "inputs": [
        {
          "internalType": "uint256",
          "name": "assetId",
          "type": "uint256"
        },
        {
          "internalType": "uint256[]",
          "name": "valuationIds",
          "type": "uint256[]"
        },
        {
          "internalType": "uint256[]",
          "name": "weights",
          "type": "uint256[]"
        }
      ],
      "name": "computeCompositeValue",
      "outputs": [
        {
          "internalType": "uint256",
          "name": "",
          "type": "uint256"
        }
      ],
      "stateMutability": "nonpayable",
      "type": "function"
    },
    {
      "inputs": [
        {
          "internalType": "uint256",
          "name": "assetId",
          "type": "uint256"
        }
      ],
      "name": "getAssetValuations",
      "outputs": [
        {
          "internalType": "uint256[]",
          "name": "",
          "type": "uint256[]"
        }
      ],
      "stateMutability": "view",
      "type": "function"
    },
    {
      "inputs": [
        {
          "internalType": "uint256",
          "name": "assetId",
          "type": "uint256"
        }
      ],
      "name": "getLatestCompositeValue",
      "outputs": [
        {
          "internalType": "uint256",
          "name": "",
          "type": "uint256"
        }
      ],
      "stateMutability": "view",
      "type": "function"
    },
    {
      "inputs": [
        {
          "internalType": "enum Valuation.Method",
          "name": "method",
          "type": "uint8"
        }
      ],
      "name": "getMethodName",
      "outputs": [
        {
          "internalType": "string",
          "name": "",
          "type": "string"
        }
      ],
      "stateMutability": "pure",
      "type": "function"
    },
    {
      "inputs": [
        {
          "internalType": "uint256",
          "name": "valuationId",
          "type": "uint256"
        }
      ],
      "name": "getValuation",
      "outputs": [
        {
          "components": [
            {
              "internalType": "uint256",
              "name": "valuationId",
              "type": "uint256"
            },
            {
              "internalType": "uint256",
              "name": "assetId",
              "type": "uint256"
            },
            {
              "internalType": "enum Valuation.Method",
              "name": "method",
              "type": "uint8"
            },
            {
              "internalType": "uint256",
              "name": "estimatedValue",
              "type": "uint256"
            },
            {
              "internalType": "uint256",
              "name": "timestamp",
              "type": "uint256"
            },
            {
              "internalType": "string",
              "name": "paramsHash",
              "type": "string"
            },
            {
              "internalType": "address",
              "name": "appraiser",
              "type": "address"
            },
            {
              "internalType": "bool",
              "name": "verified",
              "type": "bool"
            }
          ],
          "internalType": "struct Valuation.ValuationRecord",
          "name": "",
          "type": "tuple"
        }
      ],
      "stateMutability": "view",
      "type": "function"
    },
    {
      "inputs": [
        {
          "internalType": "uint256",
          "name": "",
          "type": "uint256"
        }
      ],
      "name": "latestCompositeValue",
      "outputs": [
        {
          "internalType": "uint256",
          "name": "",
          "type": "uint256"
        }
      ],
      "stateMutability": "view",
      "type": "function"
    },
    {
      "inputs": [
        {
          "internalType": "uint256",
          "name": "assetId",
          "type": "uint256"
        },
        {
          "internalType": "uint256",
          "name": "comparableValue",
          "type": "uint256"
        },
        {
          "internalType": "uint256",
          "name": "adjustmentRate",
          "type": "uint256"
        },
        {
          "internalType": "string",
          "name": "paramsHash",
          "type": "string"
        }
      ],
      "name": "valuationByComparable",
      "outputs": [
        {
          "internalType": "uint256",
          "name": "",
          "type": "uint256"
        }
      ],
      "stateMutability": "nonpayable",
      "type": "function"
    },
    {
      "inputs": [
        {
          "internalType": "uint256",
          "name": "assetId",
          "type": "uint256"
        },
        {
          "internalType": "uint256",
          "name": "replacementCost",
          "type": "uint256"
        },
        {
          "internalType": "uint256",
          "name": "depreciationRate",
          "type": "uint256"
        },
        {
          "internalType": "string",
          "name": "paramsHash",
          "type": "string"
        }
      ],
      "name": "valuationByCost",
      "outputs": [
        {
          "internalType": "uint256",
          "name": "",
          "type": "uint256"
        }
      ],
      "stateMutability": "nonpayable",
      "type": "function"
    },
    {
      "inputs": [
        {
          "internalType": "uint256",
          "name": "assetId",
          "type": "uint256"
        },
        {
          "internalType": "uint256[]",
          "name": "cashFlows",
          "type": "uint256[]"
        },
        {
          "internalType": "uint256",
          "name": "discountRate",
          "type": "uint256"
        },
        {
          "internalType": "string",
          "name": "paramsHash",
          "type": "string"
        }
      ],
      "name": "valuationByDCF",
      "outputs": [
        {
          "internalType": "uint256",
          "name": "",
          "type": "uint256"
        }
      ],
      "stateMutability": "nonpayable",
      "type": "function"
    },
    {
      "inputs": [
        {
          "internalType": "uint256",
          "name": "assetId",
          "type": "uint256"
        },
        {
          "internalType": "uint256",
          "name": "recentTradePrice",
          "type": "uint256"
        },
        {
          "internalType": "uint256",
          "name": "marketAdjustFactor",
          "type": "uint256"
        },
        {
          "internalType": "string",
          "name": "paramsHash",
          "type": "string"
        }
      ],
      "name": "valuationByMarket",
      "outputs": [
        {
          "internalType": "uint256",
          "name": "",
          "type": "uint256"
        }
      ],
      "stateMutability": "nonpayable",
      "type": "function"
    },
    {
      "inputs": [],
      "name": "valuationCount",
      "outputs": [
        {
          "internalType": "uint256",
          "name": "",
          "type": "uint256"
        }
      ],
      "stateMutability": "view",
      "type": "function"
    },
    {
      "inputs": [
        {
          "internalType": "uint256",
          "name": "",
          "type": "uint256"
        }
      ],
      "name": "valuations",
      "outputs": [
        {
          "internalType": "uint256",
          "name": "valuationId",
          "type": "uint256"
        },
        {
          "internalType": "uint256",
          "name": "assetId",
          "type": "uint256"
        },
        {
          "internalType": "enum Valuation.Method",
          "name": "method",
          "type": "uint8"
        },
        {
          "internalType": "uint256",
          "name": "estimatedValue",
          "type": "uint256"
        },
        {
          "internalType": "uint256",
          "name": "timestamp",
          "type": "uint256"
        },
        {
          "internalType": "string",
          "name": "paramsHash",
          "type": "string"
        },
        {
          "internalType": "address",
          "name": "appraiser",
          "type": "address"
        },
        {
          "internalType": "bool",
          "name": "verified",
          "type": "bool"
        }
      ],
      "stateMutability": "view",
      "type": "function"
    },
    {
      "inputs": [
        {
          "internalType": "uint256",
          "name": "valuationId",
          "type": "uint256"
        }
      ],
      "name": "verifyValuation",
      "outputs": [],
      "stateMutability": "nonpayable",
      "type": "function"
    }
  ],
  "bytecode": "0x60808060405234602757600080546001600160a01b0319163317905561196d908161002d8239f35b600080fdfe608080604052600436101561001357600080fd5b60003560e01c90816303b694191461144e57508063105e31fc146111a55780632bed395c1461116457806335f5f91414610fe75780633bd18a3b14611013578063538f964f14610fe75780635d03d83e14610f3c5780636da9803014610ca5578063801c70f6146109f7578063dc75e24614610705578063e3d6b0fc14610687578063f5a6a017146105db578063f851a440146105b2578063fb36390d146101115763fe1d763b146100c457600080fd5b3461010c57604036600319011261010c5760243560043560005260036020526040600020805482101561010c576020916100fd916116f5565b90549060031b1c604051908152f35b600080fd5b3461010c57608036600319011261010c576004356024356001600160401b03811161010c576101449036906004016114bc565b90604435916064356001600160401b03811161010c57610168903690600401611665565b9061017e60018060a01b03600054163314611723565b80511561056d578315610528576000936127100191826127101161051457845b8251861015610240576101b18684611766565b5160005b878111156102055750849060015b86898211156101ec575050916101de6101e49260019461179a565b9061178d565b95019461019e565b6101fa90610200929461177a565b92611908565b6101c3565b90612710810290808204612710149015171561022a576102259091611908565b6101b5565b634e487b7160e01b600052601160045260246000fd5b90846000926002549260405161025581611469565b8481526020810190848252604081019260048810156105005787845260608201858152608083019042825260a0840192835260c084019533875260e08501958b87528a8c52600160205260408c209551865551600186015560028501905160048110156104ec5760ff801983541691161790555160038401555160048301556005820190518051906001600160401b0382116104d8576102f58354611587565b601f8111610493575b50602090601f83116001146104275791806006949261036b989796948d9261041c575b50508160011b916000199060031b1c19161790555b92519201805491516001600160a81b03199092166001600160a01b03939093169290921790151560a01b60ff60a01b16179055565b818452600360205260408420805490600160401b8210156104085761039a82869260016103b3950181556116f5565b90919082549060031b91821b91600019901b1916179055565b6103be600254611908565b6002556040519060048510156103f4576040826000805160206119188339815191529260209787955287820152a3604051908152f35b634e487b7160e01b85526021600452602485fd5b634e487b7160e01b86526041600452602486fd5b015190508c80610321565b838b52818b209190601f1984168c5b81811061047b575092600192859261036b9a9998966006989610610462575b505050811b019055610336565b015160001960f88460031b161c191690558c8080610455565b92936020600181928786015181550195019301610436565b838b5260208b20601f840160051c810191602085106104ce575b601f0160051c01905b8181106104c357506102fe565b8b81556001016104b6565b90915081906104ad565b634e487b7160e01b8a52604160045260248afd5b634e487b7160e01b8c52602160045260248cfd5b634e487b7160e01b88526021600452602488fd5b634e487b7160e01b85526011600452602485fd5b60405162461bcd60e51b815260206004820152601d60248201527f56616c756174696f6e3a207a65726f20646973636f756e7420726174650000006044820152606490fd5b60405162461bcd60e51b815260206004820152601a60248201527f56616c756174696f6e3a20656d7074792063617368666c6f77730000000000006044820152606490fd5b3461010c57600036600319011261010c576000546040516001600160a01b039091168152602090f35b3461010c57602036600319011261010c57600435600052600360205260406000206040518060208354918281520190819360005260206000209060005b818110610671575050508161062e91038261149b565b6040519182916020830190602084525180915260408301919060005b818110610658575050500390f35b825184528594506020938401939092019160010161064a565b8254845260209093019260019283019201610618565b3461010c57602036600319011261010c576004356106b060018060a01b03600054163314611723565b6106bd60025482106118b9565b6000818152600160205260408120600601805460ff60a01b1916600160a01b1790557f5120d3dfc2b44a64173b391cfd0805f5faef03bdba1109ec693c0125322b1ecf9080a2005b3461010c57610713366116bb565b919061072a60018060a01b03600054163314611723565b81156109bb576127108111610977576127100390612710821161022a57612710916107549161177a565b04916000926002549260405161076981611469565b8481526020810184815260408201929091906002845260608201858152608083019042825260a0840192835260c084019533875260e08501958b87528a8c52600160205260408c209551865551600186015560028501905160048110156104ec5760ff801983541691161790555160038401555160048301556005820190518051906001600160401b0382116104d8576108038354611587565b601f8111610932575b50602090601f83116001146108e057918060069492610877989796948d9261041c5750508160011b916000199060031b1c191617905592519201805491516001600160a81b03199092166001600160a01b03939093169290921790151560a01b60ff60a01b16179055565b818452600360205260408420805490600160401b8210156104085761039a82869260016108a6950181556116f5565b6108b1600254611908565b6002556040519350600080516020611918833981519152604085859360026020985287820152a3604051908152f35b838b52818b209190601f1984168c5b81811061091a57509260019285926108779a999896600698961061046257505050811b019055610336565b929360206001819287860151815501950193016108ef565b838b5260208b20601f840160051c8101916020851061096d575b601f0160051c01905b818110610962575061080c565b8b8155600101610955565b909150819061094c565b606460405162461bcd60e51b815260206004820152602060248201527f56616c756174696f6e3a20646570726563696174696f6e20746f6f20686967686044820152fd5b60405162461bcd60e51b815260206004820152601460248201527315985b1d585d1a5bdb8e881e995c9bc818dbdcdd60621b6044820152606490fd5b3461010c57610a05366116bb565b9190610a1c60018060a01b03600054163314611723565b8115610c60576127100190816127101161022a5761271091610a3d9161177a565b049160009260025492604051610a5281611469565b8481526020810184815260408201929091906001845260608201858152608083019042825260a0840192835260c084019533875260e08501958b87528a8c52600160205260408c209551865551600186015560028501905160048110156104ec5760ff801983541691161790555160038401555160048301556005820190518051906001600160401b0382116104d857610aec8354611587565b601f8111610c1b575b50602090601f8311600114610bc957918060069492610b60989796948d9261041c5750508160011b916000199060031b1c191617905592519201805491516001600160a81b03199092166001600160a01b03939093169290921790151560a01b60ff60a01b16179055565b818452600360205260408420805490600160401b8210156104085761039a8286926001610b8f950181556116f5565b610b9a600254611908565b6002556040519350600080516020611918833981519152604085859360016020985287820152a3604051908152f35b838b52818b209190601f1984168c5b818110610c035750926001928592610b609a999896600698961061046257505050811b019055610336565b92936020600181928786015181550195019301610bd8565b838b5260208b20601f840160051c81019160208510610c56575b601f0160051c01905b818110610c4b5750610af5565b8b8155600101610c3e565b9091508190610c35565b60405162461bcd60e51b815260206004820152601a60248201527f56616c756174696f6e3a207a65726f20636f6d70617261626c650000000000006044820152606490fd5b3461010c57610cb3366116bb565b91610cc960018060a01b03600054163314611723565b8015610eff5761271091610cdc9161177a565b049160009260025492604051610cf181611469565b8481526020810184815260408201929091906003845260608201858152608083019042825260a0840192835260c084019533875260e08501958b87528a8c52600160205260408c209551865551600186015560028501905160048110156104ec5760ff801983541691161790555160038401555160048301556005820190518051906001600160401b0382116104d857610d8b8354611587565b601f8111610eba575b50602090601f8311600114610e6857918060069492610dff989796948d9261041c5750508160011b916000199060031b1c191617905592519201805491516001600160a81b03199092166001600160a01b03939093169290921790151560a01b60ff60a01b16179055565b818452600360205260408420805490600160401b8210156104085761039a8286926001610e2e950181556116f5565b610e39600254611908565b6002556040519350600080516020611918833981519152604085859360036020985287820152a3604051908152f35b838b52818b209190601f1984168c5b818110610ea25750926001928592610dff9a999896600698961061046257505050811b019055610336565b92936020600181928786015181550195019301610e77565b838b5260208b20601f840160051c81019160208510610ef5575b601f0160051c01905b818110610eea5750610d94565b8b8155600101610edd565b9091508190610ed4565b60405162461bcd60e51b815260206004820152601560248201527456616c756174696f6e3a207a65726f20707269636560581b6044820152606490fd5b3461010c57602036600319011261010c5760043560005260016020526040600020805460018201549160ff610fc681600284015416926003810154600482015490610fa96006610f8e600586016115c1565b94015496604051998a998a5260208a01526040890190611564565b6060870152608086015261010060a0860152610100850190611523565b6001600160a01b03831660c085015260a09290921c16151560e08301520390f35b3461010c57602036600319011261010c5760043560005260046020526020604060002054604051908152f35b3461010c57602036600319011261010c57600435600060e060405161103781611469565b828152826020820152826040820152826060820152826080820152606060a08201528260c0820152015261106e60025482106118b9565b6000526001602052604060002060405161108781611469565b815481526001820154916020820192835260ff600282015416906110af6040840192836118fc565b6111476003820154916060850192835260048101546080860190815260066110d9600584016115c1565b9260a0880193845201549361112760c088019660018060a01b038716885260ff60e08a019760a01c1615158752604051998a9960208b525160208b01525160408a0152516060890190611564565b5160808701525160a08601525161010060c0860152610120850190611523565b91516001600160a01b031660e08401525115156101008301520390f35b3461010c57602036600319011261010c57600435600481101561010c5761118d6111a1916117ba565b604051918291602083526020830190611523565b0390f35b3461010c57606036600319011261010c576004356024356001600160401b03811161010c576111d89036906004016114bc565b906044356001600160401b03811161010c576111f89036906004016114bc565b61120d60018060a01b03600054163314611723565b8251815103611409578251156113d157829060009283928491600254945b825184101561133d578561123f8585611766565b511015611300576112508484611766565b51600052600160205281600160406000200154036112bb576112b26112a060019261127b8787611766565b51600052836020526101de600360406000200154611299898b611766565b519061177a565b976112ab8688611766565b519061178d565b9301929561122b565b60405162461bcd60e51b815260206004820152601960248201527f56616c756174696f6e3a206173736574206d69736d61746368000000000000006044820152606490fd5b60405162461bcd60e51b815260206004820152601560248201527415985b1d585d1a5bdb8e881a5b9d985b1a59081a59605a1b6044820152606490fd5b8692508215611393576020926113529161179a565b908060005260048352816040600020557fafe8335797225005fcac47009a068b2bb0763b6971b01d394be6b109635e860083604051848152a2604051908152f35b60405162461bcd60e51b815260206004820152601660248201527515985b1d585d1a5bdb8e881e995c9bc81dd95a59da1d60521b6044820152606490fd5b60405162461bcd60e51b815260206004820152601060248201526f56616c756174696f6e3a20656d70747960801b6044820152606490fd5b60405162461bcd60e51b815260206004820152601a60248201527f56616c756174696f6e3a206c656e677468206d69736d617463680000000000006044820152606490fd5b3461010c57600036600319011261010c576020906002548152f35b61010081019081106001600160401b0382111761148557604052565b634e487b7160e01b600052604160045260246000fd5b90601f801991011681019081106001600160401b0382111761148557604052565b9080601f8301121561010c578135916001600160401b038311611485578260051b90604051936114ef602084018661149b565b845260208085019282010192831161010c57602001905b8282106115135750505090565b8135815260209182019101611506565b919082519283825260005b84811061154f575050826000602080949584010152601f8019910116010190565b8060208092840101518282860101520161152e565b9060048210156115715752565b634e487b7160e01b600052602160045260246000fd5b90600182811c921680156115b7575b60208310146115a157565b634e487b7160e01b600052602260045260246000fd5b91607f1691611596565b90604051918260008254926115d584611587565b808452936001811690811561164357506001146115fc575b506115fa9250038361149b565b565b90506000929192526020600020906000915b8183106116275750509060206115fa92820101386115ed565b602091935080600191548385890101520191019091849261160e565b9050602092506115fa94915060ff191682840152151560051b820101386115ed565b81601f8201121561010c578035906001600160401b0382116114855760405192611699601f8401601f19166020018561149b565b8284526020838301011161010c57816000926020809301838601378301015290565b90608060031983011261010c57600435916024359160443591606435906001600160401b03821161010c576116f291600401611665565b90565b805482101561170d5760005260206000200190600090565b634e487b7160e01b600052603260045260246000fd5b1561172a57565b60405162461bcd60e51b81526020600482015260146024820152732b30b63ab0ba34b7b71d103737ba1030b236b4b760611b6044820152606490fd5b805182101561170d5760209160051b010190565b8181029291811591840414171561022a57565b9190820180921161022a57565b81156117a4570490565b634e487b7160e01b600052601260045260246000fd5b600481101561157157801561188b5760006001821461185b5750600281146118335760036000911461180b57506040516117f560408261149b565b6006815265e69caae79fa560d01b602082015290565b5060405161181a60408261149b565b6009815268e5b882e59cbae6b39560b81b602082015290565b5060405161184260408261149b565b6009815268e68890e69cace6b39560b81b602082015290565b5050604080519061186c908261149b565b600f81526ee58fafe6af94e585ace58fb8e6b39560881b602082015290565b5060405161189a60408261149b565b600f81526e0e78eb0e98791e6b581e68a98e78eb608c1b602082015290565b156118c057565b60405162461bcd60e51b815260206004820152601460248201527315985b1d585d1a5bdb8e881b9bdd08199bdd5b9960621b6044820152606490fd5b60048210156115715752565b600019811461022a576001019056fe1ff9a22cfc33eb87886bd9c5d8aedf18ccc5a499bf2020c9881e17ee57d17387a2646970667358221220cb36629f956a3912a386d3140d1a82508815b1ca5e93563e429dae30d515320f64736f6c634300081c0033",
  "linkReferences": {},
  "deployedLinkReferences": {}
}