{
  "_format": "hh-sol-artifact-1",
  "contractName": "RWAToken",
  "sourceName": "contracts/RWAToken.sol",
  "abi": [
    {
      "inputs": [
        {
          "internalType": "string",
          "name": "_name",
          "type": "string"
        },
        {
          "internalType": "string",
          "name": "_symbol",
          "type": "string"
        },
        {
          "internalType": "string",
          "name": "_assetType",
          "type": "string"
        },
        {
          "internalType": "uint256",
          "name": "_assetValue",
          "type": "uint256"
        },
        {
          "internalType": "address",
          "name": "_spvAddress",
          "type": "address"
        }
      ],
      "stateMutability": "nonpayable",
      "type": "constructor"
    },
    {
      "anonymous": false,
      "inputs": [
        {
          "indexed": true,
          "internalType": "address",
          "name": "oldAdmin",
          "type": "address"
        },
        {
          "indexed": true,
          "internalType": "address",
          "name": "newAdmin",
          "type": "address"
        }
      ],
      "name": "AdminTransferred",
      "type": "event"
    },
    {
      "anonymous": false,
      "inputs": [
        {
          "indexed": true,
          "internalType": "address",
          "name": "owner",
          "type": "address"
        },
        {
          "indexed": true,
          "internalType": "address",
          "name": "spender",
          "type": "address"
        },
        {
          "indexed": false,
          "internalType": "uint256",
          "name": "value",
          "type": "uint256"
        }
      ],
      "name": "Approval",
      "type": "event"
    },
    {
      "anonymous": false,
      "inputs": [
        {
          "indexed": false,
          "internalType": "uint256",
          "name": "oldValue",
          "type": "uint256"
        },
        {
          "indexed": false,
          "internalType": "uint256",
          "name": "newValue",
          "type": "uint256"
        }
      ],
      "name": "AssetValueUpdated",
      "type": "event"
    },
    {
      "anonymous": false,
      "inputs": [
        {
          "indexed": false,
          "internalType": "bool",
          "name": "enabled",
          "type": "bool"
        }
      ],
      "name": "ComplianceCheckToggled",
      "type": "event"
    },
    {
      "anonymous": false,
      "inputs": [
        {
          "indexed": true,
          "internalType": "address",
          "name": "oldCompliance",
          "type": "address"
        },
        {
          "indexed": true,
          "internalType": "address",
          "name": "newCompliance",
          "type": "address"
        }
      ],
      "name": "ComplianceUpdated",
      "type": "event"
    },
    {
      "anonymous": false,
      "inputs": [
        {
          "indexed": false,
          "internalType": "address",
          "name": "account",
          "type": "address"
        }
      ],
      "name": "Paused",
      "type": "event"
    },
    {
      "anonymous": false,
      "inputs": [
        {
          "indexed": true,
          "internalType": "address",
          "name": "from",
          "type": "address"
        },
        {
          "indexed": false,
          "internalType": "uint256",
          "name": "amount",
          "type": "uint256"
        }
      ],
      "name": "TokensBurned",
      "type": "event"
    },
    {
      "anonymous": false,
      "inputs": [
        {
          "indexed": true,
          "internalType": "address",
          "name": "to",
          "type": "address"
        },
        {
          "indexed": false,
          "internalType": "uint256",
          "name": "amount",
          "type": "uint256"
        }
      ],
      "name": "TokensMinted",
      "type": "event"
    },
    {
      "anonymous": false,
      "inputs": [
        {
          "indexed": true,
          "internalType": "address",
          "name": "from",
          "type": "address"
        },
        {
          "indexed": true,
          "internalType": "address",
          "name": "to",
          "type": "address"
        },
        {
          "indexed": false,
          "internalType": "uint256",
          "name": "value",
          "type": "uint256"
        }
      ],
      "name": "Transfer",
      "type": "event"
    },
    {
      "anonymous": false,
      "inputs": [
        {
          "indexed": false,
          "internalType": "address",
          "name": "account",
          "type": "address"
        }
      ],
      "name": "Unpaused",
      "type": "event"
    },
    {
      "anonymous": false,
      "inputs": [
        {
          "indexed": true,
          "internalType": "address",
          "name": "account",
          "type": "address"
        },
        {
          "indexed": false,
          "internalType": "bool",
          "name": "status",
          "type": "bool"
        }
      ],
      "name": "WhitelistUpdated",
      "type": "event"
    },
    {
      "inputs": [],
      "name": "admin",
      "outputs": [
        {
          "internalType": "address",
          "name": "",
          "type": "address"
        }
      ],
      "stateMutability": "view",
      "type": "function"
    },
    {
      "inputs": [
        {
          "internalType": "address",
          "name": "owner_",
          "type": "address"
        },
        {
          "internalType": "address",
          "name": "spender",
          "type": "address"
        }
      ],
      "name": "allowance",
      "outputs": [
        {
          "internalType": "uint256",
          "name": "",
          "type": "uint256"
        }
      ],
      "stateMutability": "view",
      "type": "function"
    },
    {
      "inputs": [
        {
          "internalType": "address",
          "name": "spender",
          "type": "address"
        },
        {
          "internalType": "uint256",
          "name": "amount",
          "type": "uint256"
        }
      ],
      "name": "approve",
      "outputs": [
        {
          "internalType": "bool",
          "name": "",
          "type": "bool"
        }
      ],
      "stateMutability": "nonpayable",
      "type": "function"
    },
    {
      "inputs": [],
      "name": "assetType",
      "outputs": [
        {
          "internalType": "string",
          "name": "",
          "type": "string"
        }
      ],
      "stateMutability": "view",
      "type": "function"
    },
    {
      "inputs": [],
      "name": "assetValue",
      "outputs": [
        {
          "internalType": "uint256",
          "name": "",
          "type": "uint256"
        }
      ],
      "stateMutability": "view",
      "type": "function"
    },
    {
      "inputs": [
        {
          "internalType": "address",
          "name": "account",
          "type": "address"
        }
      ],
      "name": "balanceOf",
      "outputs": [
        {
          "internalType": "uint256",
          "name": "",
          "type": "uint256"
        }
      ],
      "stateMutability": "view",
      "type": "function"
    },
    {
      "inputs": [
        {
          "internalType": "address[]",
          "name": "recipients",
          "type": "address[]"
        },
        {
          "internalType": "uint256[]",
          "name": "amounts",
          "type": "uint256[]"
        }
      ],
      "name": "batchMint",
      "outputs": [],
      "stateMutability": "nonpayable",
      "type": "function"
    },
    {
      "inputs": [
        {
          "internalType": "address[]",
          "name": "accounts",
          "type": "address[]"
        },
        {
          "internalType": "bool[]",
          "name": "statuses",
          "type": "bool[]"
        }
      ],
      "name": "batchUpdateWhitelist",
      "outputs": [],
      "stateMutability": "nonpayable",
      "type": "function"
    },
    {
      "inputs": [
        {
          "internalType": "uint256",
          "name": "amount",
          "type": "uint256"
        }
      ],
      "name": "burn",
      "outputs": [],
      "stateMutability": "nonpayable",
      "type": "function"
    },
    {
      "inputs": [],
      "name": "complianceCheckEnabled",
      "outputs": [
        {
          "internalType": "bool",
          "name": "",
          "type": "bool"
        }
      ],
      "stateMutability": "view",
      "type": "function"
    },
    {
      "inputs": [],
      "name": "complianceContract",
      "outputs": [
        {
          "internalType": "address",
          "name": "",
          "type": "address"
        }
      ],
      "stateMutability": "view",
      "type": "function"
    },
    {
      "inputs": [],
      "name": "decimals",
      "outputs": [
        {
          "internalType": "uint8",
          "name": "",
          "type": "uint8"
        }
      ],
      "stateMutability": "view",
      "type": "function"
    },
    {
      "inputs": [],
      "name": "getTokenInfo",
      "outputs": [
        {
          "internalType": "string",
          "name": "_name",
          "type": "string"
        },
        {
          "internalType": "string",
          "name": "_symbol",
          "type": "string"
        },
        {
          "internalType": "string",
          "name": "_assetType",
          "type": "string"
        },
        {
          "internalType": "uint256",
          "name": "_assetValue",
          "type": "uint256"
        },
        {
          "internalType": "uint256",
          "name": "_totalSupply",
          "type": "uint256"
        },
        {
          "internalType": "uint256",
          "name": "_tokenPrice",
          "type": "uint256"
        },
        {
          "internalType": "uint256",
          "name": "_whitelistedCount",
          "type": "uint256"
        }
      ],
      "stateMutability": "view",
      "type": "function"
    },
    {
      "inputs": [],
      "name": "getTokenPrice",
      "outputs": [
        {
          "internalType": "uint256",
          "name": "",
          "type": "uint256"
        }
      ],
      "stateMutability": "view",
      "type": "function"
    },
    {
      "inputs": [
        {
          "internalType": "address",
          "name": "to",
          "type": "address"
        },
        {
          "internalType": "uint256",
          "name": "amount",
          "type": "uint256"
        }
      ],
      "name": "mint",
      "outputs": [],
      "stateMutability": "nonpayable",
      "type": "function"
    },
    {
      "inputs": [],
      "name": "name",
      "outputs": [
        {
          "internalType": "string",
          "name": "",
          "type": "string"
        }
      ],
      "stateMutability": "view",
      "type": "function"
    },
    {
      "inputs": [],
      "name": "pause",
      "outputs": [],
      "stateMutability": "nonpayable",
      "type": "function"
    },
    {
      "inputs": [],
      "name": "paused",
      "outputs": [
        {
          "internalType": "bool",
          "name": "",
          "type": "bool"
        }
      ],
      "stateMutability": "view",
      "type": "function"
    },
    {
      "inputs": [
        {
          "internalType": "address",
          "name": "newCompliance",
          "type": "address"
        }
      ],
      "name": "setComplianceContract",
      "outputs": [],
      "stateMutability": "nonpayable",
      "type": "function"
    },
    {
      "inputs": [
        {
          "internalType": "address",
          "name": "newSPV",
          "type": "address"
        }
      ],
      "name": "setSPVAddress",
      "outputs": [],
      "stateMutability": "nonpayable",
      "type": "function"
    },
    {
      "inputs": [],
      "name": "spvAddress",
      "outputs": [
        {
          "internalType": "address",
          "name": "",
          "type": "address"
        }
      ],
      "stateMutability": "view",
      "type": "function"
    },
    {
      "inputs": [],
      "name": "symbol",
      "outputs": [
        {
          "internalType": "string",
          "name": "",
          "type": "string"
        }
      ],
      "stateMutability": "view",
      "type": "function"
    },
    {
      "inputs": [
        {
          "internalType": "bool",
          "name": "enabled",
          "type": "bool"
        }
      ],
      "name": "toggleComplianceCheck",
      "outputs": [],
      "stateMutability": "nonpayable",
      "type": "function"
    },
    {
      "inputs": [],
      "name": "totalBurned",
      "outputs": [
        {
          "internalType": "uint256",
          "name": "",
          "type": "uint256"
        }
      ],
      "stateMutability": "view",
      "type": "function"
    },
    {
      "inputs": [],
      "name": "totalMinted",
      "outputs": [
        {
          "internalType": "uint256",
          "name": "",
          "type": "uint256"
        }
      ],
      "stateMutability": "view",
      "type": "function"
    },
    {
      "inputs": [],
      "name": "totalSupply",
      "outputs": [
        {
          "internalType": "uint256",
          "name": "",
          "type": "uint256"
        }
      ],
      "stateMutability": "view",
      "type": "function"
    },
    {
      "inputs": [
        {
          "internalType": "address",
          "name": "to",
          "type": "address"
        },
        {
          "internalType": "uint256",
          "name": "amount",
          "type": "uint256"
        }
      ],
      "name": "transfer",
      "outputs": [
        {
          "internalType": "bool",
          "name": "",
          "type": "bool"
        }
      ],
      "stateMutability": "nonpayable",
      "type": "function"
    },
    {
      "inputs": [
        {
          "internalType": "address",
          "name": "newAdmin",
          "type": "address"
        }
      ],
      "name": "transferAdmin",
      "outputs": [],
      "stateMutability": "nonpayable",
      "type": "function"
    },
    {
      "inputs": [
        {
          "internalType": "address",
          "name": "from",
          "type": "address"
        },
        {
          "internalType": "address",
          "name": "to",
          "type": "address"
        },
        {
          "internalType": "uint256",
          "name": "amount",
          "type": "uint256"
        }
      ],
      "name": "transferFrom",
      "outputs": [
        {
          "internalType": "bool",
          "name": "",
          "type": "bool"
        }
      ],
      "stateMutability": "nonpayable",
      "type": "function"
    },
    {
      "inputs": [],
      "name": "unpause",
      "outputs": [],
      "stateMutability": "nonpayable",
      "type": "function"
    },
    {
      "inputs": [
        {
          "internalType": "uint256",
          "name": "newValue",
          "type": "uint256"
        }
      ],
      "name": "updateAssetValue",
      "outputs": [],
      "stateMutability": "nonpayable",
      "type": "function"
    },
    {
      "inputs": [
        {
          "internalType": "address",
          "name": "account",
          "type": "address"
        },
        {
          "internalType": "bool",
          "name": "status",
          "type": "bool"
        }
      ],
      "name": "updateWhitelist",
      "outputs": [],
      "stateMutability": "nonpayable",
      "type": "function"
    },
    {
      "inputs": [
        {
          "internalType": "address",
          "name": "",
          "type": "address"
        }
      ],
      "name": "whitelisted",
      "outputs": [
        {
          "internalType": "bool",
          "name": "",
          "type": "bool"
        }
      ],
      "stateMutability": "view",
      "type": "function"
    },
    {
      "inputs": [],
      "name": "whitelistedCount",
      "outputs": [
        {
          "internalType": "uint256",
          "name": "",
          "type": "uint256"
        }
      ],
      "stateMutability": "view",
      "type": "function"
    }
  ],
  "bytecode": "0x6080604052346105035761210f8038038061001981610508565b92833981019060a0818303126105035780516001600160401b038111610503578261004591830161052d565b60208201516001600160401b038111610503578361006491840161052d565b604083015190936001600160401b0382116105035761008491840161052d565b91608060608201519101519160018060a01b038316809303610503576002805460ff191660121790558051906001600160401b0382116103225760005490600182811c921680156104f9575b60208310146103025781601f84931161048a575b50602090601f831160011461042457600092610419575b50508160011b916000199060031b1c1916176000555b83516001600160401b03811161032257600154600181811c9116801561040f575b602082101461030257601f81116103aa575b50602094601f821160011461034357948192939495600092610338575b50508160011b916000199060031b1c1916176001555b82516001600160401b03811161032257600854600181811c91168015610318575b602082101461030257601f811161029d575b506020601f8211600114610236578192939460009261022b575b50508160011b916000199060031b1c1916176008555b60095560018060a01b0319600a541617600a553360018060a01b0319600654161760065533600052600b6020526040600020600160ff198254161790556001600f55604051611b7690816105998239f35b0151905038806101c4565b601f198216906008600052806000209160005b8181106102855750958360019596971061026c575b505050811b016008556101da565b015160001960f88460031b161c1916905538808061025e565b9192602060018192868b015181550194019201610249565b60086000527ff3f7a9fe364faab93b216da50a3214154f22a0a2b415b23a84c8169e8b636ee3601f830160051c810191602084106102f8575b601f0160051c01905b8181106102ec57506101aa565b600081556001016102df565b90915081906102d6565b634e487b7160e01b600052602260045260246000fd5b90607f1690610198565b634e487b7160e01b600052604160045260246000fd5b015190503880610161565b601f198216956001600052806000209160005b88811061039257508360019596979810610379575b505050811b01600155610177565b015160001960f88460031b161c1916905538808061036b565b91926020600181928685015181550194019201610356565b60016000527fb10e2d527612073b26eecdfd717e6a320cf44b4afac2b0732d9fcbe2b7fa0cf6601f830160051c81019160208410610405575b601f0160051c01905b8181106103f95750610144565b600081556001016103ec565b90915081906103e3565b90607f1690610132565b0151905038806100fb565b60008080528281209350601f198516905b8181106104725750908460019594939210610459575b505050811b01600055610111565b015160001960f88460031b161c1916905538808061044b565b92936020600181928786015181550195019301610435565b600080529091507f290decd9548b62a8d60345a988386fc84ba6bc95484008f6362f93160ef3e563601f840160051c810191602085106104ef575b90601f859493920160051c01905b8181106104e057506100e4565b600081558493506001016104d3565b90915081906104c5565b91607f16916100d0565b600080fd5b6040519190601f01601f191682016001600160401b0381118382101761032257604052565b81601f82011215610503578051906001600160401b0382116103225761055c601f8301601f1916602001610508565b92828452602083830101116105035760005b82811061058357505060206000918301015290565b8060208092840101518282870101520161056e56fe6080604052600436101561001257600080fd5b60003560e01c8062c921c51461134557806306fdde031461126b578063095ea7b3146111f15780630d392cd9146110f157806318160ddd146110d357806323b872dd14610f21578063313ce56714610f005780633f4ba83a14610ea45780633fe3347a14610e8857806340c10f1914610dab57806342966c6814610cfa5780634b94f50e14610cd75780635c57d8a814610c765780635c975abb14610c535780636857310714610a4a57806370a0823114610a1057806375829def146109915780637dc21de3146109685780638456cb59146109095780638f24ea98146106f857806395d89b41146106c4578063a2309ff8146106a6578063a71891c314610688578063a9059cbb14610570578063abb1dc44146103c6578063b2a1de22146103a8578063b2a2a4e21461037f578063d2656a221461030a578063d89135cd146102ec578063d936547e146102ad578063dd62ed3e1461025c578063ec79095a14610236578063f851a4401461020d5763f8de25451461019157600080fd5b34610208576020366003190112610208576101aa6113a4565b6101bf60018060a01b03600654163314611654565b600780546001600160a01b039283166001600160a01b0319821681179092559091167ff7db4415f11134841eb137eee6aec1c38c7de0d800a2999dd630df703ed6b9f0600080a3005b600080fd5b34610208576000366003190112610208576006546040516001600160a01b039091168152602090f35b3461020857600036600319011261020857602060ff600c5460081c166040519015158152f35b34610208576040366003190112610208576102756113a4565b61027d6113ba565b6001600160a01b039182166000908152600560209081526040808320949093168252928352819020549051908152f35b34610208576020366003190112610208576001600160a01b036102ce6113a4565b16600052600b602052602060ff604060002054166040519015158152f35b34610208576000366003190112610208576020600e54604051908152f35b34610208576020366003190112610208576004358015158091036102085760207f96b7463a184a5a0e36fac227f072d70fa1430aa20e3889f2efb9a7d0a3320a039161036160018060a01b03600654163314611654565b600c5461ff008260081b169061ff00191617600c55604051908152a1005b34610208576000366003190112610208576007546040516001600160a01b039091168152602090f35b34610208576000366003190112610208576020600f54604051908152f35b3461020857600036600319011261020857600354801561056957600954670de0b6b3a7640000810290808204670de0b6b3a76400001490151715610553578161040e916118a2565b600954600f546040519260009485548060011c90600181168015610549575b6020831081146105355782885290811561051157506001146104ba575b5061045a856104859703866113d0565b6104a16104656114d8565b610493610470611408565b91604051998a9960e08b5260e08b01906115a9565b9089820360208b01526115a9565b9087820360408901526115a9565b936060860152608085015260a084015260c08301520390f35b60008080529096507f290decd9548b62a8d60345a988386fc84ba6bc95484008f6362f93160ef3e5635b8782106104fb57508501602001955061045a61044a565b6001816020925483858b010152019101906104e4565b60ff191660208089019190915291151560051b8701909101965061045a905061044a565b634e487b7160e01b89526022600452602489fd5b91607f169161042d565b634e487b7160e01b600052601160045260246000fd5b600061040e565b34610208576040366003190112610208576105896113a4565b602435600c549161059d60ff841615611701565b33600052600b6020526105b760ff6040600020541661174d565b8160ff60018060a01b0383169485600052600b6020526105dd8260406000205416611798565b3360005260046020526105f78360406000205410156117f0565b60081c1680610674575b610663575b5050336000526004602052604060002061062182825461183c565b9055816000526004602052604060002061063c828254611849565b9055604051908152600080516020611b2183398151915260203392a3602060405160018152f35b61066d9133611994565b8281610606565b506007546001600160a01b03161515610601565b34610208576000366003190112610208576020600954604051908152f35b34610208576000366003190112610208576020600d54604051908152f35b34610208576000366003190112610208576106f46106e06114d8565b6040519182916020835260208301906115a9565b0390f35b346102085760403660031901126102085760043567ffffffffffffffff8111610208576107299036906004016115e6565b60243567ffffffffffffffff81116102085736602382011215610208578060040135610754816115ce565b9161076260405193846113d0565b8183526024602084019260051b8201019036821161020857602401915b8183106108f05750505061079e60018060a01b03600654163314611654565b6107ab8251825114611902565b60005b82518110156108ee576001906107d86001600160a01b036107cf838761194e565b511615156116a0565b818060a01b036107e8828661194e565b5116600052600b60205260ff6040600020541661083b610808838661194e565b511515848060a01b0361081b858961194e565b5116600052600b60205260406000209060ff801983541691151516179055565b610845828561194e565b511515806108e6575b156108b2575061085f600f546116f2565b600f555b818060a01b03610873828661194e565b51167ff93f9a76c1bf3444d22400a00cb9fe990e6abe9dbb333fda48859cfee864543d60206108a2848761194e565b511515604051908152a2016107ae565b6108bc828561194e565b511590816108de575b5015610863576108d6600f546116e5565b600f55610863565b9050856108c5565b50801561084e565b005b823580151581036102085781526020928301920161077f565b346102085760003660031901126102085761092f60018060a01b03600654163314611654565b600160ff19600c541617600c557f62e78cea01bee320cd4e420270b5ea74000d11b0c9f74754ebdbfc544b05a2586020604051338152a1005b3461020857600036600319011261020857600a546040516001600160a01b039091168152602090f35b34610208576020366003190112610208576109aa6113a4565b600654906001600160a01b038216906109c4338314611654565b6001600160a01b03169182906109db8215156116a0565b6001600160a01b031916176006557ff8ccb027dfcd135e000e9d45e6cc2d662578a8825d4c45b5e32e0adf67e79ec6600080a3005b34610208576020366003190112610208576001600160a01b03610a316113a4565b1660005260046020526020604060002054604051908152f35b346102085760403660031901126102085760043567ffffffffffffffff811161020857610a7b9036906004016115e6565b60243567ffffffffffffffff8111610208573660238201121561020857806004013590610aa7826115ce565b91610ab560405193846113d0565b8083526024602084019160051b8301019136831161020857602401905b828210610c4357505050610af160018060a01b03600654163314611654565b610afe8251825114611902565b60005b82518110156108ee576001906001600160a01b03610b1f828661194e565b5116600052600b602052610b3a60ff60406000205416611798565b610b56828060a01b03610b4d838761194e565b51161515611856565b610b6c610b63828561194e565b51600354611849565b600355610b79818461194e565b51828060a01b03610b8a838761194e565b51166000526004602052610ba46040600020918254611849565b9055610bbc610bb3828561194e565b51600d54611849565b600d55818060a01b03610bcf828661194e565b51166000600080516020611b218339815191526020610bee858861194e565b51604051908152a3818060a01b03610c06828661194e565b51167f3f2c9d57c068687834f0de942a9babb9e5acab57d516d3480a3c16ee165a42736020610c35848761194e565b51604051908152a201610b01565b8135815260209182019101610ad2565b3461020857600036600319011261020857602060ff600c54166040519015158152f35b34610208576020366003190112610208577fb633b2f11455021aed7387a7b7d75349d50e71a3285818ab2c2d82c86001cbc96040600435610cc260018060a01b03600654163314611654565b600954908060095582519182526020820152a1005b34610208576000366003190112610208576020610cf26118c2565b604051908152f35b3461020857602036600319011261020857600435336000526004602052610d288160406000205410156117f0565b3360005260046020526040600020610d4182825461183c565b9055610d4f8160035461183c565b600355610d5e81600e54611849565b600e556000604051828152600080516020611b2183398151915260203392a36040519081527ffd38818f5291bf0bb3a2a48aadc06ba8757865d1dabd804585338aab3009dcb660203392a2005b3461020857604036600319011261020857610dc46113a4565b7f3f2c9d57c068687834f0de942a9babb9e5acab57d516d3480a3c16ee165a4273602060243592610e0060018060a01b03600654163314611654565b60018060a01b03169283600052600b8252610e2260ff60406000205416611798565b610e2d841515611856565b610e3981600354611849565b60035583600052600482526040600020610e54828254611849565b9055610e6281600d54611849565b600d55836000600080516020611b2183398151915284604051858152a3604051908152a2005b34610208576000366003190112610208576106f46106e0611408565b3461020857600036600319011261020857610eca60018060a01b03600654163314611654565b60ff19600c5416600c557f5db9ee0a495bf2e6ff9c91a7834c1ba4fdd244a5e8aa4e537bd38aeae4b073aa6020604051338152a1005b3461020857600036600319011261020857602060ff60025416604051908152f35b3461020857606036600319011261020857610f3a6113a4565b610f426113ba565b600c5460443591610f5660ff831615611701565b60018060a01b0384169283600052600b602052610f7a60ff6040600020541661174d565b60018060a01b0382169485600052600b602052610f9e60ff60406000205416611798565b846000526004602052610fb88260406000205410156117f0565b6000858152600560209081526040808320338452909152902054821161108f578160209360ff600080516020611b218339815191529660081c168061107b575b61106a575b5050508360005260048252604060002061101882825461183c565b905584600052600482526040600020611032828254611849565b9055600084815260058352604080822033835284529020805461105690839061183c565b9055604051908152a3602060405160018152f35b61107392611994565b858181610ffd565b506007546001600160a01b03161515610ff8565b606460405162461bcd60e51b815260206004820152602060248201527f525741546f6b656e3a20696e73756666696369656e7420616c6c6f77616e63656044820152fd5b34610208576000366003190112610208576020600354604051908152f35b346102085760403660031901126102085761110a6113a4565b602435908115908115808403610208577ff93f9a76c1bf3444d22400a00cb9fe990e6abe9dbb333fda48859cfee864543d9260209261115460018060a01b03600654163314611654565b6001600160a01b0316946111698615156116a0565b85600052600b845260ff604060002054169086600052600b855261119d8160406000209060ff801983541691151516179055565b806111e9575b156111c25750506111b5600f546116f2565b600f555b604051908152a2005b816111e1575b50156111b9576111d9600f546116e5565b600f556111b9565b9050856111c8565b5080156111a3565b346102085760403660031901126102085761120a6113a4565b3360008181526005602090815260408083206001600160a01b03909516808452948252918290206024359081905591519182527f8c5be1e5ebec7d5bd14f71427d1e84f3dd0314c0f7b2291e5b200ac8c7c3b92591a3602060405160018152f35b346102085760003660031901126102085760405160008054600181811c9183918116801561133b575b6020841081146113275783865290811561130057506001146112c1575b6106f4846106e0818603826113d0565b80805260208120939250905b8082106112e6575090915081016020016106e0826112b1565b9192600181602092548385880101520191019092916112cd565b60ff191660208087019190915292151560051b850190920192506106e091508390506112b1565b634e487b7160e01b83526022600452602483fd5b92607f1692611294565b346102085760203660031901126102085761135e6113a4565b61137360018060a01b03600654163314611654565b6001600160a01b03166113878115156116a0565b6bffffffffffffffffffffffff60a01b600a541617600a55600080f35b600435906001600160a01b038216820361020857565b602435906001600160a01b038216820361020857565b90601f8019910116810190811067ffffffffffffffff8211176113f257604052565b634e487b7160e01b600052604160045260246000fd5b604051906000600854908160011c916001811680156114ce575b6020841081146113275783865285929181156114af575060011461144f575b61144d925003836113d0565b565b506008600090815290917ff3f7a9fe364faab93b216da50a3214154f22a0a2b415b23a84c8169e8b636ee35b81831061149357505090602061144d92820101611441565b602091935080600191548385890101520191019091849261147b565b6020925061144d94915060ff191682840152151560051b820101611441565b92607f1692611422565b604051906000600154908160011c9160018116801561157c575b6020841081146113275783865285929181156114af575060011461151c5761144d925003836113d0565b506001600090815290917fb10e2d527612073b26eecdfd717e6a320cf44b4afac2b0732d9fcbe2b7fa0cf65b81831061156057505090602061144d92820101611441565b6020919350806001915483858901015201910190918492611548565b92607f16926114f2565b60005b8381106115995750506000910152565b8181015183820152602001611589565b906020916115c281518092818552858086019101611586565b601f01601f1916010190565b67ffffffffffffffff81116113f25760051b60200190565b9080601f83011215610208578135906115fe826115ce565b9261160c60405194856113d0565b82845260208085019360051b82010191821161020857602001915b8183106116345750505090565b82356001600160a01b038116810361020857815260209283019201611627565b1561165b57565b60405162461bcd60e51b815260206004820152601d60248201527f525741546f6b656e3a2063616c6c6572206973206e6f742061646d696e0000006044820152606490fd5b156116a757565b60405162461bcd60e51b8152602060048201526016602482015275525741546f6b656e3a207a65726f206164647265737360501b6044820152606490fd5b8015610553576000190190565b60001981146105535760010190565b1561170857565b60405162461bcd60e51b815260206004820152601c60248201527f525741546f6b656e3a20636f6e747261637420697320706175736564000000006044820152606490fd5b1561175457565b606460405162461bcd60e51b815260206004820152602060248201527f525741546f6b656e3a2073656e646572206e6f742077686974656c69737465646044820152fd5b1561179f57565b60405162461bcd60e51b815260206004820152602360248201527f525741546f6b656e3a20726563697069656e74206e6f742077686974656c69736044820152621d195960ea1b6064820152608490fd5b156117f757565b60405162461bcd60e51b815260206004820152601e60248201527f525741546f6b656e3a20696e73756666696369656e742062616c616e636500006044820152606490fd5b9190820391821161055357565b9190820180921161055357565b1561185d57565b60405162461bcd60e51b815260206004820152601e60248201527f525741546f6b656e3a206d696e7420746f207a65726f206164647265737300006044820152606490fd5b81156118ac570490565b634e487b7160e01b600052601260045260246000fd5b60035480156118fc5760095490670de0b6b3a7640000820291808304670de0b6b3a76400001490151715610553576118f9916118a2565b90565b50600090565b1561190957565b60405162461bcd60e51b815260206004820152601f60248201527f525741546f6b656e3a206172726179206c656e677468206d69736d61746368006044820152606490fd5b80518210156119625760209160051b010190565b634e487b7160e01b600052603260045260246000fd5b67ffffffffffffffff81116113f257601f01601f191660200190565b60075460405163cc1dd94f60e01b602082019081526001600160a01b0393841660248301529383166044820152606480820195909552938452600093849391909216916119e26084826113d0565b51915afa3d15611b18573d906119f782611978565b91611a0560405193846113d0565b82523d6000602084013e5b611a175750565b805181019060408160208401930312610208576020810151908115918215036102085760408101519067ffffffffffffffff8211610208570182603f82011215610208576020810151611a6981611978565b611a7660405191826113d0565b8181526020810194604084840101116102085784611aa0603e93611ad8976040611ae99701611586565b6040519586927f525741546f6b656e3a20636f6d706c69616e6365206661696c6564202d200000602085015251809285850190611586565b81010301601f1981018452836113d0565b611af05750565b60405162461bcd60e51b815260206004820152908190611b149060248301906115a9565b0390fd5b606090611a1056feddf252ad1be2c89b69c2b068fc378daa952ba7f163c4a11628f55a4df523b3efa2646970667358221220d1caf742530d92cd680ecbe85c6c05e66e989e9b3a010c918c27ce059a6732a364736f6c634300081c0033",
  "linkReferences": {},
  "deployedLinkReferences": {}
}