{
  "_format": "hh-sol-artifact-1",
  "contractName": "DutchAuction",
  "sourceName": "contracts/DutchAuction.sol",
  "abi": [
    {
      "inputs": [],
      "stateMutability": "nonpayable",
      "type": "constructor"
    },
    {
      "anonymous": false,
      "inputs": [
        {
          "indexed": true,
          "internalType": "uint256",
          "name": "auctionId",
          "type": "uint256"
        },
        {
          "indexed": true,
          "internalType": "address",
          "name": "winner",
          "type": "address"
        },
        {
          "indexed": false,
          "internalType": "uint256",
          "name": "price",
          "type": "uint256"
        },
        {
          "indexed": false,
          "internalType": "uint256",
          "name": "amount",
          "type": "uint256"
        }
      ],
      "name": "AuctionBid",
      "type": "event"
    },
    {
      "anonymous": false,
      "inputs": [
        {
          "indexed": true,
          "internalType": "uint256",
          "name": "auctionId",
          "type": "uint256"
        }
      ],
      "name": "AuctionCancelled",
      "type": "event"
    },
    {
      "anonymous": false,
      "inputs": [
        {
          "indexed": true,
          "internalType": "uint256",
          "name": "auctionId",
          "type": "uint256"
        },
        {
          "indexed": true,
          "internalType": "address",
          "name": "seller",
          "type": "address"
        },
        {
          "indexed": false,
          "internalType": "address",
          "name": "token",
          "type": "address"
        },
        {
          "indexed": false,
          "internalType": "uint256",
          "name": "amount",
          "type": "uint256"
        },
        {
          "indexed": false,
          "internalType": "uint256",
          "name": "startPrice",
          "type": "uint256"
        },
        {
          "indexed": false,
          "internalType": "uint256",
          "name": "reservePrice",
          "type": "uint256"
        }
      ],
      "name": "AuctionCreated",
      "type": "event"
    },
    {
      "anonymous": false,
      "inputs": [
        {
          "indexed": true,
          "internalType": "uint256",
          "name": "auctionId",
          "type": "uint256"
        },
        {
          "indexed": false,
          "internalType": "address",
          "name": "winner",
          "type": "address"
        },
        {
          "indexed": false,
          "internalType": "uint256",
          "name": "price",
          "type": "uint256"
        }
      ],
      "name": "AuctionSettled",
      "type": "event"
    },
    {
      "anonymous": false,
      "inputs": [
        {
          "indexed": true,
          "internalType": "uint256",
          "name": "auctionId",
          "type": "uint256"
        },
        {
          "indexed": false,
          "internalType": "uint256",
          "name": "newPrice",
          "type": "uint256"
        }
      ],
      "name": "PriceUpdated",
      "type": "event"
    },
    {
      "inputs": [],
      "name": "admin",
      "outputs": [
        {
          "internalType": "address",
          "name": "",
          "type": "address"
        }
      ],
      "stateMutability": "view",
      "type": "function"
    },
    {
      "inputs": [],
      "name": "auctionCount",
      "outputs": [
        {
          "internalType": "uint256",
          "name": "",
          "type": "uint256"
        }
      ],
      "stateMutability": "view",
      "type": "function"
    },
    {
      "inputs": [
        {
          "internalType": "uint256",
          "name": "",
          "type": "uint256"
        }
      ],
      "name": "auctions",
      "outputs": [
        {
          "internalType": "uint256",
          "name": "auctionId",
          "type": "uint256"
        },
        {
          "internalType": "address",
          "name": "seller",
          "type": "address"
        },
        {
          "internalType": "address",
          "name": "tokenAddress",
          "type": "address"
        },
        {
          "internalType": "uint256",
          "name": "tokenAmount",
          "type": "uint256"
        },
        {
          "internalType": "uint256",
          "name": "startPrice",
          "type": "uint256"
        },
        {
          "internalType": "uint256",
          "name": "reservePrice",
          "type": "uint256"
        },
        {
          "internalType": "uint256",
          "name": "priceDecrement",
          "type": "uint256"
        },
        {
          "internalType": "uint256",
          "name": "decrementInterval",
          "type": "uint256"
        },
        {
          "internalType": "uint256",
          "name": "startAt",
          "type": "uint256"
        },
        {
          "internalType": "uint256",
          "name": "endAt",
          "type": "uint256"
        },
        {
          "internalType": "uint256",
          "name": "currentPrice",
          "type": "uint256"
        },
        {
          "internalType": "address",
          "name": "winner",
          "type": "address"
        },
        {
          "internalType": "uint256",
          "name": "settledAt",
          "type": "uint256"
        },
        {
          "internalType": "enum DutchAuction.AuctionStatus",
          "name": "status",
          "type": "uint8"
        }
      ],
      "stateMutability": "view",
      "type": "function"
    },
    {
      "inputs": [
        {
          "internalType": "uint256",
          "name": "auctionId",
          "type": "uint256"
        }
      ],
      "name": "bid",
      "outputs": [],
      "stateMutability": "payable",
      "type": "function"
    },
    {
      "inputs": [
        {
          "internalType": "uint256",
          "name": "auctionId",
          "type": "uint256"
        }
      ],
      "name": "cancelAuction",
      "outputs": [],
      "stateMutability": "nonpayable",
      "type": "function"
    },
    {
      "inputs": [
        {
          "internalType": "address",
          "name": "tokenAddress",
          "type": "address"
        },
        {
          "internalType": "uint256",
          "name": "tokenAmount",
          "type": "uint256"
        },
        {
          "internalType": "uint256",
          "name": "startPrice",
          "type": "uint256"
        },
        {
          "internalType": "uint256",
          "name": "reservePrice",
          "type": "uint256"
        },
        {
          "internalType": "uint256",
          "name": "priceDecrement",
          "type": "uint256"
        },
        {
          "internalType": "uint256",
          "name": "decrementInterval",
          "type": "uint256"
        },
        {
          "internalType": "uint256",
          "name": "duration",
          "type": "uint256"
        }
      ],
      "name": "createAuction",
      "outputs": [
        {
          "internalType": "uint256",
          "name": "",
          "type": "uint256"
        }
      ],
      "stateMutability": "nonpayable",
      "type": "function"
    },
    {
      "inputs": [
        {
          "internalType": "uint256",
          "name": "auctionId",
          "type": "uint256"
        }
      ],
      "name": "getAuction",
      "outputs": [
        {
          "components": [
            {
              "internalType": "uint256",
              "name": "auctionId",
              "type": "uint256"
            },
            {
              "internalType": "address",
              "name": "seller",
              "type": "address"
            },
            {
              "internalType": "address",
              "name": "tokenAddress",
              "type": "address"
            },
            {
              "internalType": "uint256",
              "name": "tokenAmount",
              "type": "uint256"
            },
            {
              "internalType": "uint256",
              "name": "startPrice",
              "type": "uint256"
            },
            {
              "internalType": "uint256",
              "name": "reservePrice",
              "type": "uint256"
            },
            {
              "internalType": "uint256",
              "name": "priceDecrement",
              "type": "uint256"
            },
            {
              "internalType": "uint256",
              "name": "decrementInterval",
              "type": "uint256"
            },
            {
              "internalType": "uint256",
              "name": "startAt",
              "type": "uint256"
            },
            {
              "internalType": "uint256",
              "name": "endAt",
              "type": "uint256"
            },
            {
              "internalType": "uint256",
              "name": "currentPrice",
              "type": "uint256"
            },
            {
              "internalType": "address",
              "name": "winner",
              "type": "address"
            },
            {
              "internalType": "uint256",
              "name": "settledAt",
              "type": "uint256"
            },
            {
              "internalType": "enum DutchAuction.AuctionStatus",
              "name": "status",
              "type": "uint8"
            }
          ],
          "internalType": "struct DutchAuction.Auction",
          "name": "",
          "type": "tuple"
        }
      ],
      "stateMutability": "view",
      "type": "function"
    },
    {
      "inputs": [],
      "name": "getAuctionStats",
      "outputs": [
        {
          "internalType": "uint256",
          "name": "_count",
          "type": "uint256"
        },
        {
          "internalType": "uint256",
          "name": "_settled",
          "type": "uint256"
        },
        {
          "internalType": "uint256",
          "name": "_volume",
          "type": "uint256"
        }
      ],
      "stateMutability": "view",
      "type": "function"
    },
    {
      "inputs": [
        {
          "internalType": "uint256",
          "name": "auctionId",
          "type": "uint256"
        }
      ],
      "name": "getCurrentPrice",
      "outputs": [
        {
          "internalType": "uint256",
          "name": "",
          "type": "uint256"
        }
      ],
      "stateMutability": "view",
      "type": "function"
    },
    {
      "inputs": [],
      "name": "settledCount",
      "outputs": [
        {
          "internalType": "uint256",
          "name": "",
          "type": "uint256"
        }
      ],
      "stateMutability": "view",
      "type": "function"
    },
    {
      "inputs": [],
      "name": "totalVolume",
      "outputs": [
        {
          "internalType": "uint256",
          "name": "",
          "type": "uint256"
        }
      ],
      "stateMutability": "view",
      "type": "function"
    },
    {
      "inputs": [],
      "name": "withdraw",
      "outputs": [],
      "stateMutability": "nonpayable",
      "type": "function"
    }
  ],
  "bytecode": "0x60808060405234602757600080546001600160a01b03191633179055611324908161002d8239f35b600080fdfe608080604052600436101561001357600080fd5b60003560e01c9081632ad7157314610f60575080632ecdee5b14610f315780633ccfd60b14610e03578063454a2ab314610a2a578063571a26a0146109485780635f81a57c1461092a5780636eddb4531461043157806378bd79351461021d57806390327524146101ff57806396b5a755146100f7578063c55d0f56146100d15763f851a440146100a357600080fd5b346100cc5760003660031901126100cc576000546040516001600160a01b039091168152602090f35b600080fd5b346100cc5760203660031901126100cc5760206100ef60043561114c565b604051908152f35b346100cc5760203660031901126100cc576004356101186002548210611069565b8060005260016020526040600020600d81019060ff82541660038110156101e95761014390156110b5565b600101546001600160a01b0316331480156101d5575b1561019057805460ff191660021790557f2809c7e17bf978fbc7194c0a694b638c4215e9140cacc6c38ca36010b45697df600080a2005b60405162461bcd60e51b815260206004820152601c60248201527f447574636841756374696f6e3a206e6f7420617574686f72697a6564000000006044820152606490fd5b506000546001600160a01b03163314610159565b634e487b7160e01b600052602160045260246000fd5b346100cc5760003660031901126100cc576020600454604051908152f35b346100cc5760203660031901126100cc5760043560405161023d81610fd4565b60008152602081016000905260408101600090526060810160009052608081016000905260a081016000905260c081016000905260e08101600090526101008101600090526101208101600090526101408101600090526101608101600090526101808101600090526101a0016000905260025481106102bc90611069565b600052600160205260406000206040516102d581610fd4565b81548152600160a01b600190036001830154169160208201928352600160a01b6001900360028201541660408301908152600382015460608401908152600483015460808501908152600584015460a08601908152600685015460c0870190815260078601549060e0880191825260088701549261010089019384526009880154946101208a01958652600a890154966101408b01978852600160a01b60019003600b8b015416986101608c01998a52600c8b01549a6101808d019b8c52600d015460ff169b6101a081019c6103ab908e611140565b60408051915182529d516001600160a01b039081166020830152915182169d81019d909d52905160608d0152905160808c0152905160a08b0152905160c08a0152905160e0890152905161010088015290516101208701529051610140860152905116610160840152516101808301525161042b906101a0830190610f7b565b6101c090f35b346100cc5760e03660031901126100cc576004356001600160a01b03811681036100cc576084359060c4359060a4356001600160a01b038216156108e557602435156108a057606435604435111561085b5783156108165780156107d157821561078c576000806040516020810190636eb1769f60e11b8252336024820152306044820152604481526104c5606482611007565b5190855afa6104d2611029565b901561073b576020818051810103126100cc576020602435910151106106ea576104ff6002549342611124565b906040519461050d86610fd4565b84865233602087015260018060a01b03841660408701526024356060870152604435608087015260643560a087015260c086015260e0850152426101008501526101208401526044356101408401526000610160840152600061018084015260006101a08401528160005260016020526101a0600d60406000208551815560018060a01b03602087015116600182019060018060a01b03166001600160601b0360a01b82541617905560018060a01b03604087015116600282019060018060a01b03166001600160601b0360a01b825416179055606086015160038201556080860151600482015560a0860151600582015560c0860151600682015560e0860151600782015561010086015160088201556101208601516009820155610140860151600a82015560018060a01b0361016087015116600b82019060018060a01b03166001600160601b0360a01b825416179055610180860151600c820155019301519260038410156101e95760209360ff80198354169116179055610693600254611131565b6002556040519060018060a01b031681526024358382015260443560408201526064356060820152817f06b9e486c68303eb64052e0493f906f3d93a1b7149b6b8dcff221aebd16c351360803393a3604051908152f35b60405162461bcd60e51b8152602060048201526024808201527f447574636841756374696f6e3a20696e73756666696369656e7420616c6c6f77604482015263616e636560e01b6064820152608490fd5b60405162461bcd60e51b8152602060048201526024808201527f447574636841756374696f6e3a20616c6c6f77616e636520636865636b2066616044820152631a5b195960e21b6064820152608490fd5b60405162461bcd60e51b815260206004820152601b60248201527f447574636841756374696f6e3a207a65726f206475726174696f6e00000000006044820152606490fd5b60405162461bcd60e51b815260206004820152601b60248201527f447574636841756374696f6e3a207a65726f20696e74657276616c00000000006044820152606490fd5b60405162461bcd60e51b815260206004820152601c60248201527f447574636841756374696f6e3a207a65726f2064656372656d656e74000000006044820152606490fd5b60405162461bcd60e51b815260206004820152601e60248201527f447574636841756374696f6e3a207374617274203c3d207265736572766500006044820152606490fd5b60405162461bcd60e51b815260206004820152601960248201527f447574636841756374696f6e3a207a65726f20616d6f756e74000000000000006044820152606490fd5b60405162461bcd60e51b815260206004820152601860248201527f447574636841756374696f6e3a207a65726f20746f6b656e00000000000000006044820152606490fd5b346100cc5760003660031901126100cc576020600354604051908152f35b346100cc5760203660031901126100cc5760043560005260016020526040600020805490600160a01b6001900360018201541690600160a01b600190036002820154166003820154600483015460058401546006850154600786015490600887015492600988015494600a89015496600160a01b60019003600b8b01541698600c8b01549a600d015460ff169b604051809e81526020015260408d015260608c015260808b015260a08a015260c089015260e08801526101008701526101208601526101408501526101608401526101808301526101a0820161042b91610f7b565b60203660031901126100cc57600435610a4860016005541415610f88565b6001600555610a5a6002548210611069565b8060005260016020526040600020600d81019060ff82541660038110156101e957610a8590156110b5565b60098101544211610dc857600b810180549092906001600160a01b0316610d8357610aaf8461114c565b92833410610d335760018060a01b0333166001600160601b0360a01b82541617905582600a83015542600c830155600160ff1982541617905560018060a01b036002820154166000806001840192600360018060a01b038554169501948286546040519060208201936323b872dd60e01b85526024830152336044830152606482015260648152610b41608482611007565b51925af1610b4d611029565b81610cfb575b5015610cb6575460009081908190819086906001600160a01b03165af1610b78611029565b5015610c7157813411610c0d575b81604091610bb77fc9f72b276a388619c6d185d146697036241880c36654b1a3ffdad07c24038d9994600354611124565b600355610bc5600454611131565b600455548251908282526020820152847f730f2240d495ac23326a84377b898e338b57feddb6bba95ae0dfa2612ded8bca843393a38151903382526020820152a26000600555005b6000808080610c1c8634611101565b335af1610c27611029565b50610b865760405162461bcd60e51b815260206004820152601b60248201527f447574636841756374696f6e3a20726566756e64206661696c656400000000006044820152606490fd5b60405162461bcd60e51b815260206004820152601c60248201527f447574636841756374696f6e3a207061796d656e74206661696c6564000000006044820152606490fd5b60405162461bcd60e51b815260206004820152601d60248201527f447574636841756374696f6e3a207472616e73666572206661696c65640000006044820152606490fd5b8051801592508215610d10575b505085610b53565b81925090602091810103126100cc576020015180151581036100cc578580610d08565b60405162461bcd60e51b815260206004820152602260248201527f447574636841756374696f6e3a20696e73756666696369656e74207061796d656044820152611b9d60f21b6064820152608490fd5b60405162461bcd60e51b815260206004820152601960248201527f447574636841756374696f6e3a20616c726561647920776f6e000000000000006044820152606490fd5b60405162461bcd60e51b8152602060048201526013602482015272111d5d18da105d58dd1a5bdb8e88195b991959606a1b6044820152606490fd5b346100cc5760003660031901126100cc576000546001600160a01b031633819003610eec57610e3760016005541415610f88565b600160055547908115610ea757600080809381935af1610e55611029565b5015610e62576000600555005b60405162461bcd60e51b815260206004820152601d60248201527f447574636841756374696f6e3a207769746864726177206661696c65640000006044820152606490fd5b60405162461bcd60e51b815260206004820152601860248201527f447574636841756374696f6e3a206e6f2062616c616e636500000000000000006044820152606490fd5b60405162461bcd60e51b815260206004820152601760248201527f447574636841756374696f6e3a206e6f742061646d696e0000000000000000006044820152606490fd5b346100cc5760003660031901126100cc5760606002546004546003549060405192835260208301526040820152f35b346100cc5760003660031901126100cc576020906002548152f35b9060038210156101e95752565b15610f8f57565b60405162461bcd60e51b815260206004820152601760248201527f447574636841756374696f6e3a207265656e7472616e740000000000000000006044820152606490fd5b6101c0810190811067ffffffffffffffff821117610ff157604052565b634e487b7160e01b600052604160045260246000fd5b90601f8019910116810190811067ffffffffffffffff821117610ff157604052565b3d15611064573d9067ffffffffffffffff8211610ff15760405191611058601f8201601f191660200184611007565b82523d6000602084013e565b606090565b1561107057565b60405162461bcd60e51b815260206004820152601760248201527f447574636841756374696f6e3a206e6f7420666f756e640000000000000000006044820152606490fd5b156110bc57565b60405162461bcd60e51b815260206004820152601860248201527f447574636841756374696f6e3a206e6f742061637469766500000000000000006044820152606490fd5b9190820391821161110e57565b634e487b7160e01b600052601160045260246000fd5b9190820180921161110e57565b600019811461110e5760010190565b60038210156101e95752565b6111596002548210611069565b600052600160205260406000206040519061117382610fd4565b8054825260018101546001600160a01b03908116602084015260028201548116604084015260038201546060840152600482015460808401908152600583015460a08501908152600684015460c08601908152600785015460e08701908152600886015461010088019081526009870154610120890152600a8701546101408901908152600b880154909616610160890152600c870154610180890152600d90960154919693959294909390916101a0909101906112349060ff1682611140565b5160038110156101e9576112e4575061124e905142611101565b90519081156112ce5793929193049051926000925b828410611272575b5050505090565b90919293825190818111156112bf57825190818111156112b7576112969250611101565b935b82518086106112ae575b50600101929190611263565b945060016112a2565b505093611298565b5093505050503880808061126b565b634e487b7160e01b600052601260045260246000fd5b945050505050519056fea2646970667358221220106e4e603d101c9e967601fa7caab11a210f8000319185c462bd27613d3172de64736f6c634300081c0033",
  "linkReferences": {},
  "deployedLinkReferences": {}
}