{
  "_format": "hh-sol-artifact-1",
  "contractName": "AssetRegistry",
  "sourceName": "contracts/AssetRegistry.sol",
  "abi": [
    {
      "inputs": [],
      "stateMutability": "nonpayable",
      "type": "constructor"
    },
    {
      "anonymous": false,
      "inputs": [
        {
          "indexed": true,
          "internalType": "uint256",
          "name": "assetId",
          "type": "uint256"
        }
      ],
      "name": "AssetDeactivated",
      "type": "event"
    },
    {
      "anonymous": false,
      "inputs": [
        {
          "indexed": true,
          "internalType": "uint256",
          "name": "assetId",
          "type": "uint256"
        },
        {
          "indexed": false,
          "internalType": "string",
          "name": "name",
          "type": "string"
        },
        {
          "indexed": false,
          "internalType": "enum AssetRegistry.AssetCategory",
          "name": "category",
          "type": "uint8"
        },
        {
          "indexed": false,
          "internalType": "address",
          "name": "spvAddress",
          "type": "address"
        },
        {
          "indexed": false,
          "internalType": "address",
          "name": "tokenAddress",
          "type": "address"
        }
      ],
      "name": "AssetRegistered",
      "type": "event"
    },
    {
      "anonymous": false,
      "inputs": [
        {
          "indexed": true,
          "internalType": "uint256",
          "name": "assetId",
          "type": "uint256"
        },
        {
          "indexed": false,
          "internalType": "uint256",
          "name": "newValue",
          "type": "uint256"
        }
      ],
      "name": "AssetUpdated",
      "type": "event"
    },
    {
      "anonymous": false,
      "inputs": [
        {
          "indexed": true,
          "internalType": "uint256",
          "name": "disclosureId",
          "type": "uint256"
        },
        {
          "indexed": true,
          "internalType": "uint256",
          "name": "assetId",
          "type": "uint256"
        },
        {
          "indexed": false,
          "internalType": "string",
          "name": "title",
          "type": "string"
        }
      ],
      "name": "DisclosurePublished",
      "type": "event"
    },
    {
      "anonymous": false,
      "inputs": [
        {
          "indexed": true,
          "internalType": "address",
          "name": "spvAddress",
          "type": "address"
        },
        {
          "indexed": false,
          "internalType": "uint256",
          "name": "assetId",
          "type": "uint256"
        }
      ],
      "name": "SPVRegistered",
      "type": "event"
    },
    {
      "inputs": [],
      "name": "admin",
      "outputs": [
        {
          "internalType": "address",
          "name": "",
          "type": "address"
        }
      ],
      "stateMutability": "view",
      "type": "function"
    },
    {
      "inputs": [],
      "name": "assetCount",
      "outputs": [
        {
          "internalType": "uint256",
          "name": "",
          "type": "uint256"
        }
      ],
      "stateMutability": "view",
      "type": "function"
    },
    {
      "inputs": [
        {
          "internalType": "uint256",
          "name": "",
          "type": "uint256"
        },
        {
          "internalType": "uint256",
          "name": "",
          "type": "uint256"
        }
      ],
      "name": "assetDisclosures",
      "outputs": [
        {
          "internalType": "uint256",
          "name": "",
          "type": "uint256"
        }
      ],
      "stateMutability": "view",
      "type": "function"
    },
    {
      "inputs": [
        {
          "internalType": "uint256",
          "name": "",
          "type": "uint256"
        }
      ],
      "name": "assets",
      "outputs": [
        {
          "internalType": "uint256",
          "name": "assetId",
          "type": "uint256"
        },
        {
          "internalType": "string",
          "name": "name",
          "type": "string"
        },
        {
          "internalType": "enum AssetRegistry.AssetCategory",
          "name": "category",
          "type": "uint8"
        },
        {
          "internalType": "uint256",
          "name": "totalValue",
          "type": "uint256"
        },
        {
          "internalType": "uint256",
          "name": "tokenizedAmount",
          "type": "uint256"
        },
        {
          "internalType": "address",
          "name": "spvAddress",
          "type": "address"
        },
        {
          "internalType": "address",
          "name": "tokenAddress",
          "type": "address"
        },
        {
          "internalType": "address",
          "name": "issuer",
          "type": "address"
        },
        {
          "internalType": "uint256",
          "name": "registeredAt",
          "type": "uint256"
        },
        {
          "internalType": "bool",
          "name": "isActive",
          "type": "bool"
        },
        {
          "internalType": "string",
          "name": "legalDocHash",
          "type": "string"
        }
      ],
      "stateMutability": "view",
      "type": "function"
    },
    {
      "inputs": [
        {
          "internalType": "uint256",
          "name": "assetId",
          "type": "uint256"
        }
      ],
      "name": "deactivateAsset",
      "outputs": [],
      "stateMutability": "nonpayable",
      "type": "function"
    },
    {
      "inputs": [],
      "name": "disclosureCount",
      "outputs": [
        {
          "internalType": "uint256",
          "name": "",
          "type": "uint256"
        }
      ],
      "stateMutability": "view",
      "type": "function"
    },
    {
      "inputs": [
        {
          "internalType": "uint256",
          "name": "",
          "type": "uint256"
        }
      ],
      "name": "disclosures",
      "outputs": [
        {
          "internalType": "uint256",
          "name": "disclosureId",
          "type": "uint256"
        },
        {
          "internalType": "uint256",
          "name": "assetId",
          "type": "uint256"
        },
        {
          "internalType": "string",
          "name": "title",
          "type": "string"
        },
        {
          "internalType": "string",
          "name": "contentHash",
          "type": "string"
        },
        {
          "internalType": "uint256",
          "name": "publishedAt",
          "type": "uint256"
        },
        {
          "internalType": "bool",
          "name": "active",
          "type": "bool"
        }
      ],
      "stateMutability": "view",
      "type": "function"
    },
    {
      "inputs": [
        {
          "internalType": "uint256",
          "name": "assetId",
          "type": "uint256"
        }
      ],
      "name": "getAsset",
      "outputs": [
        {
          "components": [
            {
              "internalType": "uint256",
              "name": "assetId",
              "type": "uint256"
            },
            {
              "internalType": "string",
              "name": "name",
              "type": "string"
            },
            {
              "internalType": "enum AssetRegistry.AssetCategory",
              "name": "category",
              "type": "uint8"
            },
            {
              "internalType": "uint256",
              "name": "totalValue",
              "type": "uint256"
            },
            {
              "internalType": "uint256",
              "name": "tokenizedAmount",
              "type": "uint256"
            },
            {
              "internalType": "address",
              "name": "spvAddress",
              "type": "address"
            },
            {
              "internalType": "address",
              "name": "tokenAddress",
              "type": "address"
            },
            {
              "internalType": "address",
              "name": "issuer",
              "type": "address"
            },
            {
              "internalType": "uint256",
              "name": "registeredAt",
              "type": "uint256"
            },
            {
              "internalType": "bool",
              "name": "isActive",
              "type": "bool"
            },
            {
              "internalType": "string",
              "name": "legalDocHash",
              "type": "string"
            }
          ],
          "internalType": "struct AssetRegistry.AssetRecord",
          "name": "",
          "type": "tuple"
        }
      ],
      "stateMutability": "view",
      "type": "function"
    },
    {
      "inputs": [
        {
          "internalType": "uint256",
          "name": "assetId",
          "type": "uint256"
        }
      ],
      "name": "getAssetDisclosures",
      "outputs": [
        {
          "internalType": "uint256[]",
          "name": "",
          "type": "uint256[]"
        }
      ],
      "stateMutability": "view",
      "type": "function"
    },
    {
      "inputs": [
        {
          "internalType": "enum AssetRegistry.AssetCategory",
          "name": "category",
          "type": "uint8"
        }
      ],
      "name": "getCategoryName",
      "outputs": [
        {
          "internalType": "string",
          "name": "",
          "type": "string"
        }
      ],
      "stateMutability": "pure",
      "type": "function"
    },
    {
      "inputs": [
        {
          "internalType": "uint256",
          "name": "disclosureId",
          "type": "uint256"
        }
      ],
      "name": "getDisclosure",
      "outputs": [
        {
          "components": [
            {
              "internalType": "uint256",
              "name": "disclosureId",
              "type": "uint256"
            },
            {
              "internalType": "uint256",
              "name": "assetId",
              "type": "uint256"
            },
            {
              "internalType": "string",
              "name": "title",
              "type": "string"
            },
            {
              "internalType": "string",
              "name": "contentHash",
              "type": "string"
            },
            {
              "internalType": "uint256",
              "name": "publishedAt",
              "type": "uint256"
            },
            {
              "internalType": "bool",
              "name": "active",
              "type": "bool"
            }
          ],
          "internalType": "struct AssetRegistry.Disclosure",
          "name": "",
          "type": "tuple"
        }
      ],
      "stateMutability": "view",
      "type": "function"
    },
    {
      "inputs": [
        {
          "internalType": "address",
          "name": "spvAddress",
          "type": "address"
        }
      ],
      "name": "getSPVAssets",
      "outputs": [
        {
          "internalType": "uint256[]",
          "name": "",
          "type": "uint256[]"
        }
      ],
      "stateMutability": "view",
      "type": "function"
    },
    {
      "inputs": [
        {
          "internalType": "uint256",
          "name": "assetId",
          "type": "uint256"
        }
      ],
      "name": "getTokenizationRate",
      "outputs": [
        {
          "internalType": "uint256",
          "name": "",
          "type": "uint256"
        }
      ],
      "stateMutability": "view",
      "type": "function"
    },
    {
      "inputs": [
        {
          "internalType": "uint256",
          "name": "assetId",
          "type": "uint256"
        },
        {
          "internalType": "string",
          "name": "title",
          "type": "string"
        },
        {
          "internalType": "string",
          "name": "contentHash",
          "type": "string"
        }
      ],
      "name": "publishDisclosure",
      "outputs": [
        {
          "internalType": "uint256",
          "name": "",
          "type": "uint256"
        }
      ],
      "stateMutability": "nonpayable",
      "type": "function"
    },
    {
      "inputs": [
        {
          "internalType": "string",
          "name": "name",
          "type": "string"
        },
        {
          "internalType": "enum AssetRegistry.AssetCategory",
          "name": "category",
          "type": "uint8"
        },
        {
          "internalType": "uint256",
          "name": "totalValue",
          "type": "uint256"
        },
        {
          "internalType": "address",
          "name": "spvAddress",
          "type": "address"
        },
        {
          "internalType": "address",
          "name": "tokenAddress",
          "type": "address"
        },
        {
          "internalType": "string",
          "name": "legalDocHash",
          "type": "string"
        }
      ],
      "name": "registerAsset",
      "outputs": [
        {
          "internalType": "uint256",
          "name": "",
          "type": "uint256"
        }
      ],
      "stateMutability": "nonpayable",
      "type": "function"
    },
    {
      "inputs": [
        {
          "internalType": "address",
          "name": "",
          "type": "address"
        },
        {
          "internalType": "uint256",
          "name": "",
          "type": "uint256"
        }
      ],
      "name": "spvAssets",
      "outputs": [
        {
          "internalType": "uint256",
          "name": "",
          "type": "uint256"
        }
      ],
      "stateMutability": "view",
      "type": "function"
    },
    {
      "inputs": [
        {
          "internalType": "uint256",
          "name": "assetId",
          "type": "uint256"
        },
        {
          "internalType": "uint256",
          "name": "newValue",
          "type": "uint256"
        }
      ],
      "name": "updateAssetValue",
      "outputs": [],
      "stateMutability": "nonpayable",
      "type": "function"
    },
    {
      "inputs": [
        {
          "internalType": "uint256",
          "name": "assetId",
          "type": "uint256"
        },
        {
          "internalType": "uint256",
          "name": "amount",
          "type": "uint256"
        }
      ],
      "name": "updateTokenizedAmount",
      "outputs": [],
      "stateMutability": "nonpayable",
      "type": "function"
    }
  ],
  "bytecode": "0x60808060405234602757600080546001600160a01b03191633179055611936908161002d8239f35b600080fdfe6080604052600436101561001257600080fd5b60003560e01c80621c0faf1461136d57806305d0ae1214610f61578063319af5e014610eeb57806338b63e5914610ea15780633f9a61e014610e64578063524d13a914610d5457806360c4dce314610cd8578063968a474014610b7957806398700da514610b46578063b457b92e14610ac3578063b5c25d68146104e1578063c4f2e6491461044f578063cea260c41461040f578063cf35bdd014610325578063dc1b993314610307578063eac8f5b81461012d578063eafe7a741461010f5763f851a440146100e157600080fd5b3461010a57600036600319011261010a576000546040516001600160a01b039091168152602090f35b600080fd5b3461010a57600036600319011261010a576020600254604051908152f35b3461010a57602036600319011261010a57600435606061014060405161015281611439565b600081528260208201526000604082015260008382015260006080820152600060a0820152600060c0820152600060e08201526000610100820152600061012082015201526101a46002548210611655565b60005260016020526101806040600020610303604051916101c483611439565b805483526101d4600182016115a4565b926020810193845260ff600283015416916101f36040830193846118f4565b60038101546060830190815260048201546080840190815260058301546001600160a01b0390811660a086019081526006850154821660c08701908152600786015490921660e0870190815260088601546101008801908152600987015460ff1615156101208901908152969095919491906102b1906102a59061027990600a016115a4565b9961014081019a8b526040519e8f9e8f9260208452516020840152519161016060408201520190611513565b995160608d0190611648565b5160808b01525160a08a0152516001600160a01b0390811660c08a01529051811660e08901529051166101008701525161012086015251151561014085015251838203601f1901610160850152611513565b0390f35b3461010a57600036600319011261010a576020600554604051908152f35b3461010a57602036600319011261010a576004356000526001602052610160604060002061030381549161035b600182016115a4565b60ff600283015416916003810154600482015460018060a01b0360058401541660018060a01b036006850154169060018060a01b03600786015416926008860154946103da6103cf6103b7600a60ff60098c0154169a016115a4565b996040519e8f9e8f9081528160208201520190611513565b9960408d0190611648565b60608b015260808a015260a089015260c088015260e08701526101008601521515610120850152838203610140850152611513565b3461010a5761041d36611554565b9060005260066020526040600020805482101561010a57602091610440916114e5565b90549060031b1c604051908152f35b3461010a57602036600319011261010a57600435600052600460205260406000208054600182015491610484600282016115a4565b6104d0610493600384016115a4565b6104c260ff6005600487015496015416936040519788978852602088015260c0604088015260c0870190611513565b908582036060870152611513565b916080840152151560a08301520390f35b3461010a5760c036600319011261010a5760043567ffffffffffffffff811161010a57610512903690600401611478565b602435600481101561010a57604435916064356001600160a01b038116919082900361010a576084356001600160a01b038116939084900361010a5760a43567ffffffffffffffff811161010a5761056e903690600401611478565b9361058460018060a01b036000541633146116a1565b825115610a7e57610596861515611831565b8315610a3957600254946040516105ac81611439565b868152866020820186815260408301996105c6878c6118f4565b60608401908152608084016000815260a085018a815260c086019188835260e0870193338552610100880195428752610120890197600189526101408a019a8b52600052600160205260406000209851895560018901905180519067ffffffffffffffff8211610a2357819061063c845461156a565b601f81116109d0575b50602090601f831160011461096b57600092610960575b50508160011b916000199060031b1c19161790555b600288019e519e8f6004111561094a5760009f60ff198254169060ff16179055516003880155516004870155600160a01b600190039051166005860190600160a01b60019003166001600160601b0360a01b825416179055600160a01b600190039051166006850190600160a01b60019003166001600160601b0360a01b825416179055600160a01b600190039051166007840190600160a01b60019003166001600160601b0360a01b8254161790555160088301555115156009820190610744919060ff801983541691151516179055565b600a01905180519067ffffffffffffffff821161093657610765835461156a565b601f81116108f1575b50918891889695949360209a508a90601f831160011461085d57847ff9b215ceca7ccc58203e767a6e905fffbe51c6e15741b7a113d2db8c599994b4989694846107e4958c956040956108099c9a92610852575b50508160011b916000199060031b1c19161790555b8a815260038d52206116f8565b6107ef600254611732565b600255610813604051948594608086526080860190611513565b928a850190611648565b86604084015260608301520390a27f5934e72cbbe49714573ce844cc8b2b3193b65825d0fa0b32c02405ca56c5d8b183604051848152a2604051908152f35b0151905038806107c2565b8385528185209190601f198416865b8181106108d75750946001858c956040956108099c9a956107e4997ff9b215ceca7ccc58203e767a6e905fffbe51c6e15741b7a113d2db8c599994b49f9d9b106108be575b505050811b0190556107d7565b015160001960f88460031b161c191690553880806108b1565b8284015185558d9b50600190940193928e01928e0161086c565b838a5260208a20601f840160051c8101916020851061092c575b601f0160051c01905b818110610921575061076e565b8a8155600101610914565b909150819061090b565b634e487b7160e01b89526041600452602489fd5b634e487b7160e01b600052602160045260246000fd5b01519050388061065c565b60008581528281209350601f198516905b8181106109b8575090846001959493921061099f575b505050811b019055610671565b015160001960f88460031b161c19169055388080610992565b9293602060018192878601518155019501930161097c565b909150836000526020600020601f840160051c81019160208510610a19575b90601f859493920160051c01905b818110610a0a5750610645565b600081558493506001016109fd565b90915081906109ef565b634e487b7160e01b600052604160045260246000fd5b60405162461bcd60e51b815260206004820152601760248201527f417373657452656769737472793a207a65726f205350560000000000000000006044820152606490fd5b60405162461bcd60e51b815260206004820152601960248201527f417373657452656769737472793a20656d707479206e616d65000000000000006044820152606490fd5b3461010a57602036600319011261010a576001600160a01b03610ae46114cf565b166000526003602052604060002060405190816020825491828152019160005260206000209060005b818110610b305761030385610b2481870382611456565b604051918291826113e3565b8254845260209093019260019283019201610b0d565b3461010a57602036600319011261010a576020610b71600435610b6c6002548210611655565b61187d565b604051908152f35b3461010a57602036600319011261010a57600435600060a0604051610b9d8161141d565b828152826020820152606060408201526060808201528260808201520152600554811015610c875760005260046020526040600020604051610bde8161141d565b8154815260018201549160208201928352610bfb600282016115a4565b60408301908152610c74610c11600384016115a4565b60608501908152610c6160ff6005600487015496608089019788520154169360a087019415158552604051978897602089525160208901525160408801525160c0606088015260e0870190611513565b9051858203601f19016080870152611513565b915160a084015251151560c08301520390f35b60405162461bcd60e51b815260206004820152602360248201527f417373657452656769737472793a20646973636c6f73757265206e6f7420666f6044820152621d5b9960ea1b6064820152608490fd5b3461010a5760207f314fa82f40c9e1ea2150ffdfe35d573ea4663cf019f4945ea8130a2df4454cdf610d0936611554565b610d2160018060a09694961b036000541633146116a1565b610d2e6002548510611655565b610d39811515611831565b836000526001825280600360406000200155604051908152a2005b3461010a57610d6236611554565b610d7760018060a01b036000541633146116a1565b610d846002548310611655565b81600052600160205260046040600020018054918201809211610e4e57556000818152600160205260409020600481015460039091015410610dfe578060005260016020527f314fa82f40c9e1ea2150ffdfe35d573ea4663cf019f4945ea8130a2df4454cdf6020600360406000200154604051908152a2005b60405162461bcd60e51b815260206004820152602260248201527f417373657452656769737472793a206578636565647320746f74616c2076616c604482015261756560f01b6064820152608490fd5b634e487b7160e01b600052601160045260246000fd5b3461010a57602036600319011261010a57600435600481101561010a57610e8d61030391611741565b604051918291602083526020830190611513565b3461010a57604036600319011261010a57610eba6114cf565b6001600160a01b031660009081526003602052604090208054602435919082101561010a57602091610440916114e5565b3461010a57602036600319011261010a57600435610f1460018060a01b036000541633146116a1565b610f216002548210611655565b806000526001602052600960406000200160ff1981541690557f24eeae42f647ed9085bd63c948c8201b093844d2ad153d02e9c42950d0306ccc600080a2005b3461010a57606036600319011261010a5760043560243567ffffffffffffffff811161010a57610f95903690600401611478565b9060443567ffffffffffffffff811161010a57610fb6903690600401611478565b90610fcc60018060a01b036000541633146116a1565b610fd96002548210611655565b825115611328576005549160405190610ff18261141d565b8382526020820190838252604083019086825260608401908152608084019142835260a08501936001855287600052600460205260406000209551865551600186015560028501905180519067ffffffffffffffff8211610a23578190611058845461156a565b601f81116112d5575b50602090601f831160011461127057600092611265575b50508160011b916000199060031b1c19161790555b518051600385019167ffffffffffffffff8211610a23576110ae835461156a565b601f811161121d575b50918795939160209995938a90601f831160011461118657936111709693836005947fd7466e8d003e367ca23358483c01c7691467f47b28f5e7f9ec977941451f4ee49a989461113a9860009261117b575b50508160011b916000199060031b1c19161790555b51600484015551151591019060ff801983541691151516179055565b84600052600687526111508460406000206116f8565b61115b600554611732565b60055560405191829188835288830190611513565b0390a3604051908152f35b015190508f80611109565b90601f1983169184600052816000209260005b8181106112035750847fd7466e8d003e367ca23358483c01c7691467f47b28f5e7f9ec977941451f4ee49a989461113a98946111709b9894600598600195106111ea575b505050811b01905561111e565b015160001960f88460031b161c191690558f80806111dd565b8284015185558d9b50600190940193928e01928e01611199565b836000526020600020601f840160051c8101916020851061125b575b601f0160051c01905b81811061124f57506110b7565b60008155600101611242565b9091508190611239565b015190508a80611078565b60008581528281209350601f198516905b8181106112bd57509084600195949392106112a4575b505050811b01905561108d565b015160001960f88460031b161c191690558a8080611297565b92936020600181928786015181550195019301611281565b909150836000526020600020601f840160051c8101916020851061131e575b90601f859493920160051c01905b81811061130f5750611061565b60008155849350600101611302565b90915081906112f4565b60405162461bcd60e51b815260206004820152601a60248201527f417373657452656769737472793a20656d707479207469746c650000000000006044820152606490fd5b3461010a57602036600319011261010a5760043561138e6002548210611655565b6000526006602052604060002060405190816020825491828152019160005260206000209060005b8181106113cd5761030385610b2481870382611456565b82548452602090930192600192830192016113b6565b602060408183019282815284518094520192019060005b8181106114075750505090565b82518452602093840193909201916001016113fa565b60c0810190811067ffffffffffffffff821117610a2357604052565b610160810190811067ffffffffffffffff821117610a2357604052565b90601f8019910116810190811067ffffffffffffffff821117610a2357604052565b81601f8201121561010a5780359067ffffffffffffffff8211610a2357604051926114ad601f8401601f191660200185611456565b8284526020838301011161010a57816000926020809301838601378301015290565b600435906001600160a01b038216820361010a57565b80548210156114fd5760005260206000200190600090565b634e487b7160e01b600052603260045260246000fd5b919082519283825260005b84811061153f575050826000602080949584010152601f8019910116010190565b8060208092840101518282860101520161151e565b604090600319011261010a576004359060243590565b90600182811c9216801561159a575b602083101461158457565b634e487b7160e01b600052602260045260246000fd5b91607f1691611579565b90604051918260008254926115b88461156a565b808452936001811690811561162657506001146115df575b506115dd92500383611456565b565b90506000929192526020600020906000915b81831061160a5750509060206115dd92820101386115d0565b60209193508060019154838589010152019101909184926115f1565b9050602092506115dd94915060ff191682840152151560051b820101386115d0565b90600482101561094a5752565b1561165c57565b60405162461bcd60e51b815260206004820152601e60248201527f417373657452656769737472793a206173736574206e6f7420666f756e6400006044820152606490fd5b156116a857565b60405162461bcd60e51b815260206004820152602260248201527f417373657452656769737472793a2063616c6c6572206973206e6f742061646d60448201526134b760f11b6064820152608490fd5b805468010000000000000000811015610a235761171a916001820181556114e5565b819291549060031b91821b91600019901b1916179055565b6000198114610e4e5760010190565b600481101561094a578015611809576000600182146117e25750600281146117bd57600360009114611792575060405161177c604082611456565b6006815265e69caae79fa560d01b602082015290565b506040516117a1604082611456565b600c81526be5a4a7e5ae97e59586e5938160a01b602082015290565b506040516117cc604082611456565b60068152651cb0175cb11760d31b602082015290565b505060408051906117f39082611456565b6006815265e882a1e69d8360d01b602082015290565b50604051611818604082611456565b6009815268e688bfe59cb0e4baa760b81b602082015290565b1561183857565b60405162461bcd60e51b815260206004820152601960248201527f417373657452656769737472793a207a65726f2076616c7565000000000000006044820152606490fd5b806000526001602052600360406000200154156118ee57806000526001602052600460406000200154906127108202918083046127101490151715610e4e5760005260016020526003604060002001549081156118d8570490565b634e487b7160e01b600052601260045260246000fd5b50600090565b600482101561094a575256fea26469706673582212205aa8d8b4512b05c04053533a7585af3b90f3ac12bd16f5e92a6f58e8431dd96a64736f6c634300081c0033",
  "linkReferences": {},
  "deployedLinkReferences": {}
}