{
  "_format": "hh-sol-artifact-1",
  "contractName": "RevenueDistributor",
  "sourceName": "contracts/RevenueDistributor.sol",
  "abi": [
    {
      "inputs": [
        {
          "internalType": "address",
          "name": "_rwaToken",
          "type": "address"
        }
      ],
      "stateMutability": "nonpayable",
      "type": "constructor"
    },
    {
      "anonymous": false,
      "inputs": [
        {
          "indexed": true,
          "internalType": "address",
          "name": "investor",
          "type": "address"
        },
        {
          "indexed": false,
          "internalType": "bool",
          "name": "enabled",
          "type": "bool"
        }
      ],
      "name": "AutoReinvestToggled",
      "type": "event"
    },
    {
      "anonymous": false,
      "inputs": [
        {
          "indexed": true,
          "internalType": "address",
          "name": "investor",
          "type": "address"
        },
        {
          "indexed": false,
          "internalType": "uint256",
          "name": "count",
          "type": "uint256"
        },
        {
          "indexed": false,
          "internalType": "uint256",
          "name": "totalAmount",
          "type": "uint256"
        }
      ],
      "name": "BatchClaimed",
      "type": "event"
    },
    {
      "anonymous": false,
      "inputs": [
        {
          "indexed": true,
          "internalType": "uint256",
          "name": "distributionId",
          "type": "uint256"
        },
        {
          "indexed": true,
          "internalType": "address",
          "name": "investor",
          "type": "address"
        },
        {
          "indexed": false,
          "internalType": "uint256",
          "name": "amount",
          "type": "uint256"
        }
      ],
      "name": "Claimed",
      "type": "event"
    },
    {
      "anonymous": false,
      "inputs": [
        {
          "indexed": true,
          "internalType": "address",
          "name": "oldContract",
          "type": "address"
        },
        {
          "indexed": true,
          "internalType": "address",
          "name": "newContract",
          "type": "address"
        }
      ],
      "name": "ComplianceContractUpdated",
      "type": "event"
    },
    {
      "anonymous": false,
      "inputs": [
        {
          "indexed": true,
          "internalType": "uint256",
          "name": "distributionId",
          "type": "uint256"
        },
        {
          "indexed": false,
          "internalType": "uint256",
          "name": "totalAmount",
          "type": "uint256"
        },
        {
          "indexed": false,
          "internalType": "string",
          "name": "revenueType",
          "type": "string"
        },
        {
          "indexed": false,
          "internalType": "uint256",
          "name": "snapshotBlock",
          "type": "uint256"
        },
        {
          "indexed": false,
          "internalType": "uint256",
          "name": "investorCount",
          "type": "uint256"
        }
      ],
      "name": "DistributionCreated",
      "type": "event"
    },
    {
      "anonymous": false,
      "inputs": [
        {
          "indexed": true,
          "internalType": "uint256",
          "name": "distributionId",
          "type": "uint256"
        }
      ],
      "name": "DistributionFinalized",
      "type": "event"
    },
    {
      "anonymous": false,
      "inputs": [
        {
          "indexed": true,
          "internalType": "address",
          "name": "depositor",
          "type": "address"
        },
        {
          "indexed": false,
          "internalType": "uint256",
          "name": "amount",
          "type": "uint256"
        },
        {
          "indexed": false,
          "internalType": "string",
          "name": "revenueType",
          "type": "string"
        }
      ],
      "name": "RevenueDeposited",
      "type": "event"
    },
    {
      "anonymous": false,
      "inputs": [
        {
          "indexed": true,
          "internalType": "address",
          "name": "investor",
          "type": "address"
        },
        {
          "indexed": false,
          "internalType": "uint256",
          "name": "amount",
          "type": "uint256"
        }
      ],
      "name": "RevenueReinvested",
      "type": "event"
    },
    {
      "anonymous": false,
      "inputs": [
        {
          "indexed": true,
          "internalType": "address",
          "name": "investor",
          "type": "address"
        },
        {
          "indexed": false,
          "internalType": "string",
          "name": "revenueType",
          "type": "string"
        },
        {
          "indexed": false,
          "internalType": "uint256",
          "name": "amount",
          "type": "uint256"
        }
      ],
      "name": "RevenueTypeRecorded",
      "type": "event"
    },
    {
      "inputs": [],
      "name": "admin",
      "outputs": [
        {
          "internalType": "address",
          "name": "",
          "type": "address"
        }
      ],
      "stateMutability": "view",
      "type": "function"
    },
    {
      "inputs": [
        {
          "internalType": "address",
          "name": "",
          "type": "address"
        }
      ],
      "name": "autoReinvestEnabled",
      "outputs": [
        {
          "internalType": "bool",
          "name": "",
          "type": "bool"
        }
      ],
      "stateMutability": "view",
      "type": "function"
    },
    {
      "inputs": [
        {
          "internalType": "uint256[]",
          "name": "distributionIds",
          "type": "uint256[]"
        }
      ],
      "name": "batchClaim",
      "outputs": [],
      "stateMutability": "nonpayable",
      "type": "function"
    },
    {
      "inputs": [
        {
          "internalType": "uint256",
          "name": "distributionId",
          "type": "uint256"
        }
      ],
      "name": "claim",
      "outputs": [],
      "stateMutability": "nonpayable",
      "type": "function"
    },
    {
      "inputs": [
        {
          "internalType": "uint256",
          "name": "",
          "type": "uint256"
        },
        {
          "internalType": "address",
          "name": "",
          "type": "address"
        }
      ],
      "name": "claimRecords",
      "outputs": [
        {
          "internalType": "uint256",
          "name": "amount",
          "type": "uint256"
        },
        {
          "internalType": "uint256",
          "name": "timestamp",
          "type": "uint256"
        },
        {
          "internalType": "bool",
          "name": "claimed",
          "type": "bool"
        }
      ],
      "stateMutability": "view",
      "type": "function"
    },
    {
      "inputs": [
        {
          "internalType": "uint256",
          "name": "distributionId",
          "type": "uint256"
        }
      ],
      "name": "claimWithReinvest",
      "outputs": [],
      "stateMutability": "nonpayable",
      "type": "function"
    },
    {
      "inputs": [],
      "name": "complianceContract",
      "outputs": [
        {
          "internalType": "address",
          "name": "",
          "type": "address"
        }
      ],
      "stateMutability": "view",
      "type": "function"
    },
    {
      "inputs": [
        {
          "internalType": "uint256",
          "name": "totalAmount",
          "type": "uint256"
        },
        {
          "internalType": "string",
          "name": "revenueType",
          "type": "string"
        },
        {
          "internalType": "address[]",
          "name": "investors",
          "type": "address[]"
        },
        {
          "internalType": "uint256[]",
          "name": "amounts",
          "type": "uint256[]"
        }
      ],
      "name": "createDistribution",
      "outputs": [],
      "stateMutability": "nonpayable",
      "type": "function"
    },
    {
      "inputs": [
        {
          "internalType": "string",
          "name": "revenueType",
          "type": "string"
        }
      ],
      "name": "depositRevenue",
      "outputs": [],
      "stateMutability": "payable",
      "type": "function"
    },
    {
      "inputs": [
        {
          "internalType": "string",
          "name": "revenueType",
          "type": "string"
        },
        {
          "internalType": "address[]",
          "name": "holders",
          "type": "address[]"
        },
        {
          "internalType": "uint256[]",
          "name": "balances",
          "type": "uint256[]"
        }
      ],
      "name": "distributeByHolding",
      "outputs": [],
      "stateMutability": "payable",
      "type": "function"
    },
    {
      "inputs": [],
      "name": "distributionCount",
      "outputs": [
        {
          "internalType": "uint256",
          "name": "",
          "type": "uint256"
        }
      ],
      "stateMutability": "view",
      "type": "function"
    },
    {
      "inputs": [
        {
          "internalType": "uint256",
          "name": "",
          "type": "uint256"
        }
      ],
      "name": "distributions",
      "outputs": [
        {
          "internalType": "uint256",
          "name": "distributionId",
          "type": "uint256"
        },
        {
          "internalType": "uint256",
          "name": "totalAmount",
          "type": "uint256"
        },
        {
          "internalType": "uint256",
          "name": "timestamp",
          "type": "uint256"
        },
        {
          "internalType": "uint256",
          "name": "snapshotBlock",
          "type": "uint256"
        },
        {
          "internalType": "string",
          "name": "revenueType",
          "type": "string"
        },
        {
          "internalType": "bool",
          "name": "finalized",
          "type": "bool"
        },
        {
          "internalType": "uint256",
          "name": "claimedAmount",
          "type": "uint256"
        },
        {
          "internalType": "uint256",
          "name": "investorCount",
          "type": "uint256"
        }
      ],
      "stateMutability": "view",
      "type": "function"
    },
    {
      "inputs": [
        {
          "internalType": "uint256",
          "name": "distributionId",
          "type": "uint256"
        }
      ],
      "name": "finalizeDistribution",
      "outputs": [],
      "stateMutability": "nonpayable",
      "type": "function"
    },
    {
      "inputs": [
        {
          "internalType": "uint256",
          "name": "distributionId",
          "type": "uint256"
        },
        {
          "internalType": "address",
          "name": "investor",
          "type": "address"
        }
      ],
      "name": "getClaimRecord",
      "outputs": [
        {
          "components": [
            {
              "internalType": "uint256",
              "name": "amount",
              "type": "uint256"
            },
            {
              "internalType": "uint256",
              "name": "timestamp",
              "type": "uint256"
            },
            {
              "internalType": "bool",
              "name": "claimed",
              "type": "bool"
            }
          ],
          "internalType": "struct RevenueDistributor.ClaimRecord",
          "name": "",
          "type": "tuple"
        }
      ],
      "stateMutability": "view",
      "type": "function"
    },
    {
      "inputs": [
        {
          "internalType": "address",
          "name": "investor",
          "type": "address"
        }
      ],
      "name": "getClaimableDistributions",
      "outputs": [
        {
          "internalType": "uint256[]",
          "name": "",
          "type": "uint256[]"
        }
      ],
      "stateMutability": "view",
      "type": "function"
    },
    {
      "inputs": [
        {
          "internalType": "uint256",
          "name": "distributionId",
          "type": "uint256"
        }
      ],
      "name": "getDistribution",
      "outputs": [
        {
          "components": [
            {
              "internalType": "uint256",
              "name": "distributionId",
              "type": "uint256"
            },
            {
              "internalType": "uint256",
              "name": "totalAmount",
              "type": "uint256"
            },
            {
              "internalType": "uint256",
              "name": "timestamp",
              "type": "uint256"
            },
            {
              "internalType": "uint256",
              "name": "snapshotBlock",
              "type": "uint256"
            },
            {
              "internalType": "string",
              "name": "revenueType",
              "type": "string"
            },
            {
              "internalType": "bool",
              "name": "finalized",
              "type": "bool"
            },
            {
              "internalType": "uint256",
              "name": "claimedAmount",
              "type": "uint256"
            },
            {
              "internalType": "uint256",
              "name": "investorCount",
              "type": "uint256"
            }
          ],
          "internalType": "struct RevenueDistributor.Distribution",
          "name": "",
          "type": "tuple"
        }
      ],
      "stateMutability": "view",
      "type": "function"
    },
    {
      "inputs": [],
      "name": "getDistributionCount",
      "outputs": [
        {
          "internalType": "uint256",
          "name": "",
          "type": "uint256"
        }
      ],
      "stateMutability": "view",
      "type": "function"
    },
    {
      "inputs": [
        {
          "internalType": "address",
          "name": "investor",
          "type": "address"
        }
      ],
      "name": "getPendingClaims",
      "outputs": [
        {
          "internalType": "uint256",
          "name": "",
          "type": "uint256"
        }
      ],
      "stateMutability": "view",
      "type": "function"
    },
    {
      "inputs": [
        {
          "internalType": "address",
          "name": "investor",
          "type": "address"
        }
      ],
      "name": "getReinvestStats",
      "outputs": [
        {
          "internalType": "bool",
          "name": "enabled",
          "type": "bool"
        },
        {
          "internalType": "uint256",
          "name": "reinvested",
          "type": "uint256"
        },
        {
          "internalType": "uint256",
          "name": "totalClaimed_",
          "type": "uint256"
        }
      ],
      "stateMutability": "view",
      "type": "function"
    },
    {
      "inputs": [
        {
          "internalType": "address",
          "name": "investor",
          "type": "address"
        },
        {
          "internalType": "string",
          "name": "revenueType",
          "type": "string"
        }
      ],
      "name": "getRevenueByType",
      "outputs": [
        {
          "internalType": "uint256",
          "name": "",
          "type": "uint256"
        }
      ],
      "stateMutability": "view",
      "type": "function"
    },
    {
      "inputs": [],
      "name": "getRevenueTypes",
      "outputs": [
        {
          "internalType": "string[]",
          "name": "",
          "type": "string[]"
        }
      ],
      "stateMutability": "view",
      "type": "function"
    },
    {
      "inputs": [],
      "name": "getSystemStats",
      "outputs": [
        {
          "internalType": "uint256",
          "name": "_distributionCount",
          "type": "uint256"
        },
        {
          "internalType": "uint256",
          "name": "_totalDistributed",
          "type": "uint256"
        },
        {
          "internalType": "uint256",
          "name": "_totalClaimedAmount",
          "type": "uint256"
        },
        {
          "internalType": "uint256",
          "name": "_contractBalance",
          "type": "uint256"
        }
      ],
      "stateMutability": "view",
      "type": "function"
    },
    {
      "inputs": [
        {
          "internalType": "address",
          "name": "investor",
          "type": "address"
        }
      ],
      "name": "getTotalClaimed",
      "outputs": [
        {
          "internalType": "uint256",
          "name": "",
          "type": "uint256"
        }
      ],
      "stateMutability": "view",
      "type": "function"
    },
    {
      "inputs": [
        {
          "internalType": "address",
          "name": "",
          "type": "address"
        }
      ],
      "name": "pendingClaims",
      "outputs": [
        {
          "internalType": "uint256",
          "name": "",
          "type": "uint256"
        }
      ],
      "stateMutability": "view",
      "type": "function"
    },
    {
      "inputs": [
        {
          "internalType": "address",
          "name": "",
          "type": "address"
        }
      ],
      "name": "reinvestedTotal",
      "outputs": [
        {
          "internalType": "uint256",
          "name": "",
          "type": "uint256"
        }
      ],
      "stateMutability": "view",
      "type": "function"
    },
    {
      "inputs": [
        {
          "internalType": "address",
          "name": "",
          "type": "address"
        },
        {
          "internalType": "string",
          "name": "",
          "type": "string"
        }
      ],
      "name": "revenueByType",
      "outputs": [
        {
          "internalType": "uint256",
          "name": "",
          "type": "uint256"
        }
      ],
      "stateMutability": "view",
      "type": "function"
    },
    {
      "inputs": [
        {
          "internalType": "uint256",
          "name": "",
          "type": "uint256"
        }
      ],
      "name": "revenueTypes",
      "outputs": [
        {
          "internalType": "string",
          "name": "",
          "type": "string"
        }
      ],
      "stateMutability": "view",
      "type": "function"
    },
    {
      "inputs": [],
      "name": "rwaToken",
      "outputs": [
        {
          "internalType": "address",
          "name": "",
          "type": "address"
        }
      ],
      "stateMutability": "view",
      "type": "function"
    },
    {
      "inputs": [],
      "name": "rwaTokenForReinvest",
      "outputs": [
        {
          "internalType": "address",
          "name": "",
          "type": "address"
        }
      ],
      "stateMutability": "view",
      "type": "function"
    },
    {
      "inputs": [
        {
          "internalType": "address",
          "name": "_complianceContract",
          "type": "address"
        }
      ],
      "name": "setComplianceContract",
      "outputs": [],
      "stateMutability": "nonpayable",
      "type": "function"
    },
    {
      "inputs": [
        {
          "internalType": "address",
          "name": "_rwaToken",
          "type": "address"
        }
      ],
      "name": "setRWAToken",
      "outputs": [],
      "stateMutability": "nonpayable",
      "type": "function"
    },
    {
      "inputs": [
        {
          "internalType": "address",
          "name": "_token",
          "type": "address"
        }
      ],
      "name": "setReinvestToken",
      "outputs": [],
      "stateMutability": "nonpayable",
      "type": "function"
    },
    {
      "inputs": [
        {
          "internalType": "bool",
          "name": "enabled",
          "type": "bool"
        }
      ],
      "name": "toggleAutoReinvest",
      "outputs": [],
      "stateMutability": "nonpayable",
      "type": "function"
    },
    {
      "inputs": [
        {
          "internalType": "address",
          "name": "",
          "type": "address"
        }
      ],
      "name": "totalClaimed",
      "outputs": [
        {
          "internalType": "uint256",
          "name": "",
          "type": "uint256"
        }
      ],
      "stateMutability": "view",
      "type": "function"
    },
    {
      "inputs": [],
      "name": "totalClaimedAmount",
      "outputs": [
        {
          "internalType": "uint256",
          "name": "",
          "type": "uint256"
        }
      ],
      "stateMutability": "view",
      "type": "function"
    },
    {
      "inputs": [],
      "name": "totalDistributed",
      "outputs": [
        {
          "internalType": "uint256",
          "name": "",
          "type": "uint256"
        }
      ],
      "stateMutability": "view",
      "type": "function"
    },
    {
      "inputs": [],
      "name": "withdrawUnallocated",
      "outputs": [],
      "stateMutability": "nonpayable",
      "type": "function"
    }
  ],
  "bytecode": "0x608034607e57601f6127ab38819003918201601f19168301916001600160401b03831184841017608357808492602094604052833981010312607e57516001600160a01b03811690819003607e57600080546001600160a01b0319908116331790915560018054909116919091179055604051612711908161009a8239f35b600080fd5b634e487b7160e01b600052604160045260246000fdfe608080604052600436101561001357600080fd5b60003560e01c9081630c5bf35114611ef45750806310db0c2914611e5957806311dfab8114611e3057806318e0d4ca14611de05780631c815e5714611c2e5780633453477a14611bbe578063379607f514611ac85780633b345a871461199e57806342c9160514610f0b5780634487d3df146118ff57806346fe963a146118c5578063507113d614611827578063522bf1d41461074657806370965171146116e85780637a10ee0c1461173657806383d6edb2146116e857806395f52f4e1461166f5780639661cb0d1461165157806399f9140514610dd95780639d4dba0a14611267578063a0ec0e0814611205578063b2a2a4e2146111dc578063bc29278214610f68578063bef9e8b414610f29578063c65c3d9514610f0b578063c6f6754914610e13578063ca78533d14610dd9578063d1ce59a714610da4578063d5168f2614610843578063dac06f37146107d9578063e538d5a714610780578063ef5d9ae814610746578063efca2eed14610728578063f0f9ec9e146103ad578063f5f1d7c51461025b578063f851a440146102325763f8de2545146101b657600080fd5b3461022d57602036600319011261022d576101cf611f2e565b6101e460018060a01b03600054163314612258565b600280546001600160a01b039283166001600160a01b0319821681179092559091167f43f8a039d7eef32b50a43c9898d864913f4127629465c883fbcdcfd2e962103e600080a3005b600080fd5b3461022d57600036600319011261022d576000546040516001600160a01b039091168152602090f35b602036600319011261022d576004356001600160401b03811161022d576102869036906004016120bc565b61029b60018060a01b03600054163314612258565b6102a63415156124dd565b600854600060208301815b838110610366575b505015610305575b507ff37810d4a14dc90b0f2622349669c2be37ca1509c96946a6af6b9b5348d4c57a604051348152604060208201528061030033946040830190611f67565b0390a2005b68010000000000000000811015610350578060016103269201600855612227565b61033a578161033491612587565b816102c1565b634e487b7160e01b600052600060045260246000fd5b634e487b7160e01b600052604160045260246000fd5b61038261038961037583612227565b5060405192838092611fc6565b0382612080565b6020815191012085518320146103a1576001016102b1565b505050600183806102b9565b606036600319011261022d576004356001600160401b03811161022d576103d89036906004016120bc565b6024356001600160401b03811161022d576103f790369060040161215c565b6044356001600160401b03811161022d576104169036906004016121ca565b61042b60018060a01b03600054163314612258565b34159261043884156124dd565b6104458351835114612529565b8251156106d957600093845b83518610156104795761047160019161046a88876122c3565b519061243b565b950194610451565b92849084156106885760045492600091835160076040519161049a83612064565b8783528261051d896105058c8a6020860134815260408701904282526040606089019343855260808a0195865260a08a019781895260e060c08c019b838d52019b8c5281526003602052209a518b555160018b01555160028a01555160038901555160048801612587565b511515600586019060ff801983541691151516179055565b51600684015551910155825b84518110156106335761053c81836122c3565b51803402903482041484171561061d5788610556916126bb565b80610565575b50600101610529565b61061690600192956105e560405161057c81612049565b83815260028b8b60408c602086019260008452828701946000865260005260056020526105b383600020928d8060a01b03926122c3565b5116906000918c8060a01b031682526020522093518455518884015551151591019060ff801983541691151516179055565b838060a01b036105f5888a6122c3565b51166000526006602052604060002061060f83825461243b565b905561243b565b939061055c565b634e487b7160e01b600052601160045260246000fd5b857fa240b116b088de80029cd845a995a9845130f98bf99e7ac93b5ac3de689dd3208887610671886106666004546122b4565b600455600a5461243b565b600a55519061030060405192839243903485612692565b60405162461bcd60e51b8152602060048201526024808201527f526576656e75654469737472696275746f723a207a65726f20746f74616c207360448201526374616b6560e01b6064820152608490fd5b60405162461bcd60e51b815260206004820152602160248201527f526576656e75654469737472696275746f723a20656d70747920686f6c6465726044820152607360f81b6064820152608490fd5b3461022d57600036600319011261022d576020600a54604051908152f35b3461022d57602036600319011261022d576001600160a01b03610767611f2e565b1660005260076020526020604060002054604051908152f35b3461022d57602036600319011261022d5760043560085481101561022d576107a790612227565b61033a576103826107c16107d59260405192838092611fc6565b604051918291602083526020830190611f67565b0390f35b3461022d57602036600319011261022d5760606001600160a01b036107fc611f2e565b1680600052600c60205260ff604060002054169080600052600d60205260406000205490600052600760205260406000205490604051921515835260208301526040820152f35b3461022d57602036600319011261022d5760043561086460045482106122d7565b61087360016009541415612336565b600160095560008181526005602090815260408083203384529091529020805491906108a083151561238d565b60028101600181546108b560ff8216156123e3565b60ff191617905560014291015580600052600360205260066040600020016108de83825461243b565b905533600052600660205260406000206108f9838254612448565b9055336000526007602052604060002061091483825461243b565b905561092282600b5461243b565b600b5580600052600360205261096d602061038261094d600460406000200160405192838092611fc6565b33600052600e825260406000208260405194838680955193849201611f44565b82019081520301902061098183825461243b565b905533600052600c60205260ff6040600020541680610d90575b15610d715760018060a01b03600f541660008060405160208101906325ca7a8760e11b8252600481526109cf602482612080565b5190845afa6109dc612455565b9015610d1e5760208180518101031261022d57602001518015610cd957610a0390846126bb565b908115610c825760008060405160208101906303e1469160e61b825260048152610a2e602482612080565b5190845afa610a3b612455565b9015610c2f5760208180518101031261022d57602001516001600160a01b038116929083900361022d5760009182918260405160208101926323b872dd60e01b8452876024830152336044830152606482015260648152610a9d608482612080565b51925af1610aa9612455565b81610bf7575b5015610b9d57600080808581945af1610ac6612455565b5015610b475733600052600d6020526040600020610ae583825461243b565b90556040518281527f3393575d4195502cb52e8faa285364e5ac255a32255affb02c0dae4e36a252db60203392a25b6040519182527f4ec90e965519d92681267467f775ada5bd214aa92c0dc93d90a5e880ce9ed02660203393a36000600955005b60405162461bcd60e51b815260206004820152602860248201527f526576656e75654469737472696275746f723a2061646d696e207061796d656e6044820152671d0819985a5b195960c21b6064820152608490fd5b60405162461bcd60e51b815260206004820152602c60248201527f526576656e75654469737472696275746f723a207265696e766573742074726160448201526b1b9cd9995c8819985a5b195960a21b6064820152608490fd5b8051801592508215610c0c575b505084610aaf565b819250906020918101031261022d5760200151801515810361022d578480610c04565b60405162461bcd60e51b815260206004820152602560248201527f526576656e75654469737472696275746f723a2061646d696e2063616c6c2066604482015264185a5b195960da1b6064820152608490fd5b60405162461bcd60e51b815260206004820152602960248201527f526576656e75654469737472696275746f723a20746f6f20736d616c6c20746f604482015268081c995a5b9d995cdd60ba1b6064820152608490fd5b60405162461bcd60e51b815260206004820152601e60248201527f526576656e75654469737472696275746f723a207a65726f20707269636500006044820152606490fd5b60405162461bcd60e51b815260206004820152602560248201527f526576656e75654469737472696275746f723a2070726963652063616c6c2066604482015264185a5b195960da1b6064820152608490fd5b610d8b600080808086335af1610d85612455565b50612485565b610b14565b50600f546001600160a01b0316151561099b565b3461022d57600036600319011261022d576080600454600a54600b544791604051938452602084015260408301526060820152f35b3461022d57602036600319011261022d576001600160a01b03610dfa611f2e565b1660005260066020526020604060002054604051908152f35b3461022d57600036600319011261022d576000546001600160a01b0316610e3b338214612258565b610e4a60016009541415612336565b600160095547908115610ec657600080809381935af1610e68612455565b5015610e75576000600955005b60405162461bcd60e51b815260206004820152602360248201527f526576656e75654469737472696275746f723a207769746864726177206661696044820152621b195960ea1b6064820152608490fd5b60405162461bcd60e51b815260206004820152601e60248201527f526576656e75654469737472696275746f723a206e6f2062616c616e636500006044820152606490fd5b3461022d57600036600319011261022d576020600454604051908152f35b3461022d57602036600319011261022d576001600160a01b03610f4a611f2e565b16600052600c602052602060ff604060002054166040519015158152f35b3461022d57602036600319011261022d576004356001600160401b03811161022d57610f989036906004016121ca565b610fa760016009541415612336565b600160095560009081825b82518110156110dd57610fc581846122c3565b516004548110610fd9575b50600101610fb2565b60008181526005602090815260408083203384529091529020805490811515806110ce575b61100a575b5050610fd0565b6110938260019594989683600261109995018860ff198254161790558742910155896000526003602052600660406000200161104783825461243b565b90553360005260066020526040600020611062838254612448565b9055336000526007602052604060002061107d83825461243b565b905561108b82600b5461243b565b600b5561243b565b946122b4565b956040519182527f4ec90e965519d92681267467f775ada5bd214aa92c0dc93d90a5e880ce9ed02660203393a3908580611003565b5060ff60028201541615610ffe565b8382811561118b57600080808084335af16110f6612455565b50156111345760405191825260208201527ff3f5e449de3de5506a6c5e1390e685f684feae755d32dc163dd4761b2ce5e86f60403392a26000600955005b60405162461bcd60e51b815260206004820152602960248201527f526576656e75654469737472696275746f723a206261746368207472616e7366604482015268195c8819985a5b195960ba1b6064820152608490fd5b60405162461bcd60e51b8152602060048201526024808201527f526576656e75654469737472696275746f723a206e6f7468696e6720746f20636044820152636c61696d60e01b6064820152608490fd5b3461022d57600036600319011261022d576002546040516001600160a01b039091168152602090f35b3461022d57604036600319011261022d5760606040611222611f18565b60043560005260056020528160002060009160018060a01b031682526020522080549060ff600260018301549201541690604051928352602083015215156040820152f35b3461022d57608036600319011261022d576004356024356001600160401b03811161022d5761129a9036906004016120bc565b906044356001600160401b03811161022d576112ba90369060040161215c565b916064356001600160401b03811161022d576112da9036906004016121ca565b916112f060018060a01b03600054163314612258565b6112fb8115156124dd565b6113088451845114612529565b835115611600578047106115aa57600091825b84518410156113a2576113329061046a85876122c3565b9261133d81866122c3565b511561134c576001019261131b565b60405162461bcd60e51b815260206004820152602860248201527f526576656e75654469737472696275746f723a207a65726f20696e766573746f6044820152671c88185b5bdd5b9d60c21b6064820152608490fd5b8483879203611559576004549382516007604051916113c083612064565b8783528761142d60208501868152610505604087014281526060880143815260808901918d835260a08a01946000865260c08b01976000895260e08c01998a52600052600360205260406000209a518b555160018b01555160028a01555160038901555160048801612587565b5160068401555191015560005b835181101561150557806114c8611453600193866122c3565b516040519061146182612049565b8152600260208201600081526040830190600082528b60005260056020526040806000208b611496898b8060a01b03926122c3565b5116906000918a8060a01b031682526020522093518455518684015551151591019060ff801983541691151516179055565b6114d281856122c3565b51828060a01b036114e383886122c3565b511660005260066020526114fd604060002091825461243b565b90550161143a565b857fa240b116b088de80029cd845a995a9845130f98bf99e7ac93b5ac3de689dd3208387610300886115386004546122b4565b60045561154784600a5461243b565b600a5551604051938493439185612692565b60405162461bcd60e51b8152602060048201526024808201527f526576656e75654469737472696275746f723a20616d6f756e7473206d69736d6044820152630c2e8c6d60e31b6064820152608490fd5b60405162461bcd60e51b815260206004820152602860248201527f526576656e75654469737472696275746f723a20696e73756666696369656e746044820152672062616c616e636560c01b6064820152608490fd5b60405162461bcd60e51b815260206004820152602360248201527f526576656e75654469737472696275746f723a20656d70747920696e766573746044820152626f727360e81b6064820152608490fd5b3461022d57600036600319011261022d576020600b54604051908152f35b3461022d57602036600319011261022d5760043561169860018060a01b03600054163314612258565b6116a560045482106122d7565b8060005260036020526005604060002001600160ff198254161790557f28bb7f6626d54a702fa70fb07ec4d72c9345007ec99168dd5cd3637199f1793c600080a2005b3461022d576020611724816116fc36612103565b9060018060a01b0316600052600e825260406000208260405194838680955193849201611f44565b82019081520301902054604051908152f35b3461022d57600036600319011261022d5760085461175381612145565b906117616040519283612080565b80825260208201908160086000527ff3f7a9fe364faab93b216da50a3214154f22a0a2b415b23a84c8169e8b636ee36000915b83831061180257848660405191829160208301906020845251809152604083019060408160051b85010192916000905b8282106117d357505050500390f35b919360019193955060206117f28192603f198a82030186528851611f67565b96019201920185949391926117c4565b600160208192604051611819816103828189611fc6565b815201920192019190611794565b3461022d57602036600319011261022d57611840611f2e565b61185560018060a01b03600054163314612258565b6001600160a01b03168015611881576bffffffffffffffffffffffff60a01b600f541617600f55600080f35b606460405162461bcd60e51b815260206004820152602060248201527f526576656e75654469737472696275746f723a207a65726f20616464726573736044820152fd5b3461022d57602036600319011261022d576001600160a01b036118e6611f2e565b16600052600d6020526020604060002054604051908152f35b3461022d57602036600319011261022d57600435600052600360205260406000208054600182015491600281015460038201549161198860405161194a816103828160048701611fc6565b60ff60058401541694600760068501549401549460405198899889526020890152604088015260608701526101006080870152610100860190611f67565b92151560a085015260c084015260e08301520390f35b3461022d57602036600319011261022d57600060e06040516119bf81612064565b828152826020820152826040820152826060820152606060808201528260a08201528260c0820152015260043560005260036020526040600020604051611a0581612064565b815481526001820154916020820192835260028101546040830190815260038201549160608401928352611aae604051611a46816103828160048701611fc6565b6080860190815260ff6005840154169460a087019515158652600760068501549460c0890195865201549460e0880195865260405198899860208a525160208a01525160408901525160608801525160808701525161010060a0870152610120860190611f67565b9251151560c08501525160e0840152516101008301520390f35b3461022d57602036600319011261022d57600435611ae960045482106122d7565b611af860016009541415612336565b60016009556000818152600560209081526040808320338452909152902080549190611b2583151561238d565b6002810160018154611b3a60ff8216156123e3565b60ff19161790556001429101558060005260036020526006604060002001611b6383825461243b565b90553360005260066020526040600020611b7e838254612448565b90553360005260076020526040600020611b9983825461243b565b9055611ba782600b5461243b565b600b55610b14600080808086335af1610d85612455565b3461022d57602036600319011261022d576004358015159081810361022d57611c009033600052600c60205260406000209060ff801983541691151516179055565b6040519081527fa3fb95850755ac8766c227cb0c420628c083b5f6db139593d6853c76601b847560203392a2005b3461022d57602036600319011261022d57611c47611f2e565b6004546000916001600160a01b031690825b818110611d675750611c83611c6d84612145565b93611c7b6040519586612080565b808552612145565b602084019290601f190136843760009060005b838110611ce25784866040519182916020830190602084525180915260408301919060005b818110611cc9575050500390f35b8251845285945060209384019390920191600101611cbb565b8060005260056020526040806000206000908482526020522060405190611d0882612049565b60ff60028254928385526001810154602086015201541615916040831591015215159081611d5f575b50611d3f575b600101611c96565b91611d578184611d516001948a6122c3565b526122b4565b929050611d37565b905087611d31565b8060005260056020526040806000206000908582526020522060405190611d8d82612049565b60ff60028254928385526001810154602086015201541615916040831591015215159081611dd8575b50611dc4575b600101611c59565b92611dd06001916122b4565b939050611dbc565b905085611db6565b3461022d57602036600319011261022d57611df9611f2e565b611e0e60018060a01b03600054163314612258565b600180546001600160a01b0319166001600160a01b0392909216919091179055005b3461022d57600036600319011261022d57600f546040516001600160a01b039091168152602090f35b3461022d57604036600319011261022d5760606040611e76611f18565b6000828051611e8481612049565b828152826020820152015260043560005260056020528160002060009160018060a01b0316825260205220604051611ebb81612049565b815491828252604060ff600260018401549360208601948552015416920191151582526040519283525160208301525115156040820152f35b3461022d57600036600319011261022d576001546001600160a01b03168152602090f35b602435906001600160a01b038216820361022d57565b600435906001600160a01b038216820361022d57565b60005b838110611f575750506000910152565b8181015183820152602001611f47565b90602091611f8081518092818552858086019101611f44565b601f01601f1916010190565b90600182811c92168015611fbc575b6020831014611fa657565b634e487b7160e01b600052602260045260246000fd5b91607f1691611f9b565b60009291815491611fd683611f8c565b808352926001811690811561202c5750600114611ff257505050565b60009081526020812093945091925b838310612012575060209250010190565b600181602092949394548385870101520191019190612001565b915050602093945060ff929192191683830152151560051b010190565b606081019081106001600160401b0382111761035057604052565b61010081019081106001600160401b0382111761035057604052565b90601f801991011681019081106001600160401b0382111761035057604052565b6001600160401b03811161035057601f01601f191660200190565b81601f8201121561022d578035906120d3826120a1565b926120e16040519485612080565b8284526020838301011161022d57816000926020809301838601378301015290565b90604060031983011261022d576004356001600160a01b038116810361022d5791602435906001600160401b03821161022d57612142916004016120bc565b90565b6001600160401b0381116103505760051b60200190565b9080601f8301121561022d5781359061217482612145565b926121826040519485612080565b82845260208085019360051b82010191821161022d57602001915b8183106121aa5750505090565b82356001600160a01b038116810361022d5781526020928301920161219d565b9080601f8301121561022d5781356121e181612145565b926121ef6040519485612080565b81845260208085019260051b82010192831161022d57602001905b8282106122175750505090565b813581526020918201910161220a565b60085481101561224257600860005260206000200190600090565b634e487b7160e01b600052603260045260246000fd5b1561225f57565b60405162461bcd60e51b815260206004820152602760248201527f526576656e75654469737472696275746f723a2063616c6c6572206973206e6f6044820152663a1030b236b4b760c91b6064820152608490fd5b600019811461061d5760010190565b80518210156122425760209160051b010190565b156122de57565b60405162461bcd60e51b815260206004820152602a60248201527f526576656e75654469737472696275746f723a20646973747269627574696f6e604482015269081b9bdd08199bdd5b9960b21b6064820152608490fd5b1561233d57565b60405162461bcd60e51b815260206004820152602260248201527f526576656e75654469737472696275746f723a207265656e7472616e742063616044820152611b1b60f21b6064820152608490fd5b1561239457565b60405162461bcd60e51b815260206004820152602160248201527f526576656e75654469737472696275746f723a206e6f20616c6c6f636174696f6044820152603760f91b6064820152608490fd5b156123ea57565b60405162461bcd60e51b815260206004820152602360248201527f526576656e75654469737472696275746f723a20616c726561647920636c61696044820152621b595960ea1b6064820152608490fd5b9190820180921161061d57565b9190820391821161061d57565b3d15612480573d90612466826120a1565b916124746040519384612080565b82523d6000602084013e565b606090565b1561248c57565b60405162461bcd60e51b815260206004820152602360248201527f526576656e75654469737472696275746f723a207472616e73666572206661696044820152621b195960ea1b6064820152608490fd5b156124e457565b60405162461bcd60e51b815260206004820152601f60248201527f526576656e75654469737472696275746f723a207a65726f20616d6f756e74006044820152606490fd5b1561253057565b60405162461bcd60e51b815260206004820152602960248201527f526576656e75654469737472696275746f723a206172726179206c656e677468604482015268040dad2e6dac2e8c6d60bb1b6064820152608490fd5b91909182516001600160401b038111610350576125a48254611f8c565b601f811161264a575b506020601f82116001146125e857819293946000926125dd575b50508160011b916000199060031b1c1916179055565b0151905038806125c7565b601f1982169083600052806000209160005b81811061263257509583600195969710612619575b505050811b019055565b015160001960f88460031b161c1916905538808061260f565b9192602060018192868b0151815501940192016125fa565b826000526020600020601f830160051c81019160208410612688575b601f0160051c01905b81811061267c57506125ad565b6000815560010161266f565b9091508190612666565b906060926126b191969594968352608060208401526080830190611f67565b9460408201520152565b81156126c5570490565b634e487b7160e01b600052601260045260246000fdfea264697066735822122053dd256164970991da9ae0b6ef4be0f272e278314cfb2d2467507727bf9fc8ff64736f6c634300081c0033",
  "linkReferences": {},
  "deployedLinkReferences": {}
}