{
  "_format": "hh-sol-artifact-1",
  "contractName": "Insurance",
  "sourceName": "contracts/Insurance.sol",
  "abi": [
    {
      "inputs": [],
      "stateMutability": "nonpayable",
      "type": "constructor"
    },
    {
      "anonymous": false,
      "inputs": [
        {
          "indexed": true,
          "internalType": "uint256",
          "name": "claimId",
          "type": "uint256"
        },
        {
          "indexed": false,
          "internalType": "uint256",
          "name": "amount",
          "type": "uint256"
        }
      ],
      "name": "ClaimApproved",
      "type": "event"
    },
    {
      "anonymous": false,
      "inputs": [
        {
          "indexed": true,
          "internalType": "uint256",
          "name": "claimId",
          "type": "uint256"
        },
        {
          "indexed": true,
          "internalType": "uint256",
          "name": "policyId",
          "type": "uint256"
        },
        {
          "indexed": false,
          "internalType": "uint256",
          "name": "amount",
          "type": "uint256"
        }
      ],
      "name": "ClaimFiled",
      "type": "event"
    },
    {
      "anonymous": false,
      "inputs": [
        {
          "indexed": true,
          "internalType": "uint256",
          "name": "claimId",
          "type": "uint256"
        },
        {
          "indexed": true,
          "internalType": "address",
          "name": "claimant",
          "type": "address"
        },
        {
          "indexed": false,
          "internalType": "uint256",
          "name": "amount",
          "type": "uint256"
        }
      ],
      "name": "ClaimPaid",
      "type": "event"
    },
    {
      "anonymous": false,
      "inputs": [
        {
          "indexed": true,
          "internalType": "uint256",
          "name": "claimId",
          "type": "uint256"
        }
      ],
      "name": "ClaimRejected",
      "type": "event"
    },
    {
      "anonymous": false,
      "inputs": [
        {
          "indexed": true,
          "internalType": "uint256",
          "name": "policyId",
          "type": "uint256"
        }
      ],
      "name": "PolicyCancelled",
      "type": "event"
    },
    {
      "anonymous": false,
      "inputs": [
        {
          "indexed": true,
          "internalType": "uint256",
          "name": "policyId",
          "type": "uint256"
        }
      ],
      "name": "PolicyExpired",
      "type": "event"
    },
    {
      "anonymous": false,
      "inputs": [
        {
          "indexed": true,
          "internalType": "uint256",
          "name": "policyId",
          "type": "uint256"
        },
        {
          "indexed": true,
          "internalType": "uint256",
          "name": "assetId",
          "type": "uint256"
        },
        {
          "indexed": true,
          "internalType": "address",
          "name": "insured",
          "type": "address"
        },
        {
          "indexed": false,
          "internalType": "uint256",
          "name": "coverage",
          "type": "uint256"
        },
        {
          "indexed": false,
          "internalType": "uint256",
          "name": "premium",
          "type": "uint256"
        }
      ],
      "name": "PolicyIssued",
      "type": "event"
    },
    {
      "inputs": [],
      "name": "admin",
      "outputs": [
        {
          "internalType": "address",
          "name": "",
          "type": "address"
        }
      ],
      "stateMutability": "view",
      "type": "function"
    },
    {
      "inputs": [
        {
          "internalType": "uint256",
          "name": "claimId",
          "type": "uint256"
        }
      ],
      "name": "approveClaim",
      "outputs": [],
      "stateMutability": "payable",
      "type": "function"
    },
    {
      "inputs": [
        {
          "internalType": "uint256",
          "name": "policyId",
          "type": "uint256"
        }
      ],
      "name": "cancelPolicy",
      "outputs": [],
      "stateMutability": "nonpayable",
      "type": "function"
    },
    {
      "inputs": [],
      "name": "claimCount",
      "outputs": [
        {
          "internalType": "uint256",
          "name": "",
          "type": "uint256"
        }
      ],
      "stateMutability": "view",
      "type": "function"
    },
    {
      "inputs": [
        {
          "internalType": "uint256",
          "name": "",
          "type": "uint256"
        }
      ],
      "name": "claims",
      "outputs": [
        {
          "internalType": "uint256",
          "name": "claimId",
          "type": "uint256"
        },
        {
          "internalType": "uint256",
          "name": "policyId",
          "type": "uint256"
        },
        {
          "internalType": "address",
          "name": "claimant",
          "type": "address"
        },
        {
          "internalType": "uint256",
          "name": "claimAmount",
          "type": "uint256"
        },
        {
          "internalType": "string",
          "name": "reasonHash",
          "type": "string"
        },
        {
          "internalType": "uint256",
          "name": "filedAt",
          "type": "uint256"
        },
        {
          "internalType": "uint256",
          "name": "processedAt",
          "type": "uint256"
        },
        {
          "internalType": "enum Insurance.ClaimStatus",
          "name": "status",
          "type": "uint8"
        }
      ],
      "stateMutability": "view",
      "type": "function"
    },
    {
      "inputs": [
        {
          "internalType": "uint256",
          "name": "policyId",
          "type": "uint256"
        },
        {
          "internalType": "uint256",
          "name": "claimAmount",
          "type": "uint256"
        },
        {
          "internalType": "string",
          "name": "reasonHash",
          "type": "string"
        }
      ],
      "name": "fileClaim",
      "outputs": [
        {
          "internalType": "uint256",
          "name": "",
          "type": "uint256"
        }
      ],
      "stateMutability": "nonpayable",
      "type": "function"
    },
    {
      "inputs": [
        {
          "internalType": "uint256",
          "name": "claimId",
          "type": "uint256"
        }
      ],
      "name": "getClaim",
      "outputs": [
        {
          "components": [
            {
              "internalType": "uint256",
              "name": "claimId",
              "type": "uint256"
            },
            {
              "internalType": "uint256",
              "name": "policyId",
              "type": "uint256"
            },
            {
              "internalType": "address",
              "name": "claimant",
              "type": "address"
            },
            {
              "internalType": "uint256",
              "name": "claimAmount",
              "type": "uint256"
            },
            {
              "internalType": "string",
              "name": "reasonHash",
              "type": "string"
            },
            {
              "internalType": "uint256",
              "name": "filedAt",
              "type": "uint256"
            },
            {
              "internalType": "uint256",
              "name": "processedAt",
              "type": "uint256"
            },
            {
              "internalType": "enum Insurance.ClaimStatus",
              "name": "status",
              "type": "uint8"
            }
          ],
          "internalType": "struct Insurance.Claim",
          "name": "",
          "type": "tuple"
        }
      ],
      "stateMutability": "view",
      "type": "function"
    },
    {
      "inputs": [],
      "name": "getInsuranceStats",
      "outputs": [
        {
          "internalType": "uint256",
          "name": "_policyCount",
          "type": "uint256"
        },
        {
          "internalType": "uint256",
          "name": "_claimCount",
          "type": "uint256"
        },
        {
          "internalType": "uint256",
          "name": "_totalCoverage",
          "type": "uint256"
        },
        {
          "internalType": "uint256",
          "name": "_totalPremium",
          "type": "uint256"
        },
        {
          "internalType": "uint256",
          "name": "_totalClaimPaid",
          "type": "uint256"
        }
      ],
      "stateMutability": "view",
      "type": "function"
    },
    {
      "inputs": [
        {
          "internalType": "address",
          "name": "insured",
          "type": "address"
        }
      ],
      "name": "getInsuredPolicies",
      "outputs": [
        {
          "internalType": "uint256[]",
          "name": "",
          "type": "uint256[]"
        }
      ],
      "stateMutability": "view",
      "type": "function"
    },
    {
      "inputs": [
        {
          "internalType": "uint256",
          "name": "policyId",
          "type": "uint256"
        }
      ],
      "name": "getPolicy",
      "outputs": [
        {
          "components": [
            {
              "internalType": "uint256",
              "name": "policyId",
              "type": "uint256"
            },
            {
              "internalType": "uint256",
              "name": "assetId",
              "type": "uint256"
            },
            {
              "internalType": "address",
              "name": "insured",
              "type": "address"
            },
            {
              "internalType": "address",
              "name": "insurer",
              "type": "address"
            },
            {
              "internalType": "uint256",
              "name": "coverageAmount",
              "type": "uint256"
            },
            {
              "internalType": "uint256",
              "name": "premium",
              "type": "uint256"
            },
            {
              "internalType": "uint256",
              "name": "startAt",
              "type": "uint256"
            },
            {
              "internalType": "uint256",
              "name": "endAt",
              "type": "uint256"
            },
            {
              "internalType": "enum Insurance.PolicyStatus",
              "name": "status",
              "type": "uint8"
            },
            {
              "internalType": "string",
              "name": "termsHash",
              "type": "string"
            }
          ],
          "internalType": "struct Insurance.Policy",
          "name": "",
          "type": "tuple"
        }
      ],
      "stateMutability": "view",
      "type": "function"
    },
    {
      "inputs": [
        {
          "internalType": "uint256",
          "name": "policyId",
          "type": "uint256"
        }
      ],
      "name": "getPolicyClaims",
      "outputs": [
        {
          "internalType": "uint256[]",
          "name": "",
          "type": "uint256[]"
        }
      ],
      "stateMutability": "view",
      "type": "function"
    },
    {
      "inputs": [
        {
          "internalType": "address",
          "name": "",
          "type": "address"
        },
        {
          "internalType": "uint256",
          "name": "",
          "type": "uint256"
        }
      ],
      "name": "insuredPolicies",
      "outputs": [
        {
          "internalType": "uint256",
          "name": "",
          "type": "uint256"
        }
      ],
      "stateMutability": "view",
      "type": "function"
    },
    {
      "inputs": [
        {
          "internalType": "uint256",
          "name": "policyId",
          "type": "uint256"
        }
      ],
      "name": "isPolicyActive",
      "outputs": [
        {
          "internalType": "bool",
          "name": "",
          "type": "bool"
        }
      ],
      "stateMutability": "view",
      "type": "function"
    },
    {
      "inputs": [
        {
          "internalType": "uint256",
          "name": "assetId",
          "type": "uint256"
        },
        {
          "internalType": "address",
          "name": "insured",
          "type": "address"
        },
        {
          "internalType": "uint256",
          "name": "coverageAmount",
          "type": "uint256"
        },
        {
          "internalType": "uint256",
          "name": "premium",
          "type": "uint256"
        },
        {
          "internalType": "uint256",
          "name": "duration",
          "type": "uint256"
        },
        {
          "internalType": "string",
          "name": "termsHash",
          "type": "string"
        }
      ],
      "name": "issuePolicy",
      "outputs": [
        {
          "internalType": "uint256",
          "name": "",
          "type": "uint256"
        }
      ],
      "stateMutability": "nonpayable",
      "type": "function"
    },
    {
      "inputs": [
        {
          "internalType": "uint256",
          "name": "",
          "type": "uint256"
        }
      ],
      "name": "policies",
      "outputs": [
        {
          "internalType": "uint256",
          "name": "policyId",
          "type": "uint256"
        },
        {
          "internalType": "uint256",
          "name": "assetId",
          "type": "uint256"
        },
        {
          "internalType": "address",
          "name": "insured",
          "type": "address"
        },
        {
          "internalType": "address",
          "name": "insurer",
          "type": "address"
        },
        {
          "internalType": "uint256",
          "name": "coverageAmount",
          "type": "uint256"
        },
        {
          "internalType": "uint256",
          "name": "premium",
          "type": "uint256"
        },
        {
          "internalType": "uint256",
          "name": "startAt",
          "type": "uint256"
        },
        {
          "internalType": "uint256",
          "name": "endAt",
          "type": "uint256"
        },
        {
          "internalType": "enum Insurance.PolicyStatus",
          "name": "status",
          "type": "uint8"
        },
        {
          "internalType": "string",
          "name": "termsHash",
          "type": "string"
        }
      ],
      "stateMutability": "view",
      "type": "function"
    },
    {
      "inputs": [
        {
          "internalType": "uint256",
          "name": "",
          "type": "uint256"
        },
        {
          "internalType": "uint256",
          "name": "",
          "type": "uint256"
        }
      ],
      "name": "policyClaims",
      "outputs": [
        {
          "internalType": "uint256",
          "name": "",
          "type": "uint256"
        }
      ],
      "stateMutability": "view",
      "type": "function"
    },
    {
      "inputs": [],
      "name": "policyCount",
      "outputs": [
        {
          "internalType": "uint256",
          "name": "",
          "type": "uint256"
        }
      ],
      "stateMutability": "view",
      "type": "function"
    },
    {
      "inputs": [
        {
          "internalType": "uint256",
          "name": "claimId",
          "type": "uint256"
        },
        {
          "internalType": "string",
          "name": "",
          "type": "string"
        }
      ],
      "name": "rejectClaim",
      "outputs": [],
      "stateMutability": "nonpayable",
      "type": "function"
    },
    {
      "inputs": [],
      "name": "totalClaimPaid",
      "outputs": [
        {
          "internalType": "uint256",
          "name": "",
          "type": "uint256"
        }
      ],
      "stateMutability": "view",
      "type": "function"
    },
    {
      "inputs": [],
      "name": "totalCoverage",
      "outputs": [
        {
          "internalType": "uint256",
          "name": "",
          "type": "uint256"
        }
      ],
      "stateMutability": "view",
      "type": "function"
    },
    {
      "inputs": [],
      "name": "totalPremium",
      "outputs": [
        {
          "internalType": "uint256",
          "name": "",
          "type": "uint256"
        }
      ],
      "stateMutability": "view",
      "type": "function"
    },
    {
      "inputs": [],
      "name": "withdraw",
      "outputs": [],
      "stateMutability": "nonpayable",
      "type": "function"
    }
  ],
  "bytecode": "0x60808060405234602757600080546001600160a01b03191633179055611a5d908161002d8239f35b600080fdfe608080604052600436101561001357600080fd5b60003560e01c90816272184614611490575080630f53969f146110905780632b07fce314610efa5780633577a5ad14610e495780633ccfd60b14610d655780633e2045ea14610cf05780633fa39f4714610cd257806346e3013514610a645780634d21af9614610a46578063560eb39414610a0d5780635aef2447146108be5780636e3a35701461087e5780638ac87041146108255780638da4d3c914610807578063a3a5dcf6146103ea578063a888c2cd14610344578063b20e8bcc14610266578063bd8afa461461023e578063d3e894831461017a578063d51942e21461015c578063de54d4291461013e5763f851a4401461011057600080fd5b34610139576000366003190112610139576000546040516001600160a01b039091168152602090f35b600080fd5b34610139576000366003190112610139576020600254604051908152f35b34610139576000366003190112610139576020600754604051908152f35b346101395760203660031901126101395760043560005260016020526040600020805461023a60018301549260018060a01b036002820154169060018060a01b03600382015416600482015460058301546006840154916007850154936101eb600960ff60088901541697016116da565b966040519a8b9a8b5260208b015260408a01526060890152608088015260a087015260c086015260e085015261022081611611565b610100840152610140610120840152610140830190611631565b0390f35b3461013957602036600319011261013957602061025c60043561194d565b6040519015158152f35b346101395760203660031901126101395760043561028f60018060a01b0360005416331461177e565b61029c6002548210611845565b8060005260016020526040600020600881019081549060ff82166102bf81611611565b610307576102dd92600360049360ff19161790550154600754611940565b6007557fbb1ae509b65d9486a686f3f1b0435353031b5607109dc80aa4d063887e10f3e8600080a2005b60405162461bcd60e51b8152602060048201526015602482015274496e737572616e63653a206e6f742061637469766560581b6044820152606490fd5b346101395760203660031901126101395760043560005260036020526040600020805460018201549160018060a01b036002820154166003820154916103cd61038f600483016116da565b60058301549460ff60076006860154950154169460405198899889526020890152604088015260608701526101006080870152610100860190611631565b9260a085015260c08401526103e181611611565b60e08301520390f35b346101395760603660031901126101395760243560043560443567ffffffffffffffff8111610139576104219036906004016115ca565b9061042f6002548210611845565b806000526001602052604060002060ff60088201541661044e81611611565b6107c25760078101544210156107885760028101546001600160a01b0316330361074a57831515908161073b575b50156106f65760045491604051906104938261156f565b8382526020820190838252604083019033825260608401908782526080850190815260a085019142835260c08601936000855260e08701956000875289600052600360205260406000209751885551600188015560018060a01b03905116600287019060018060a01b03166001600160601b0360a01b82541617905551600386015560048501905180519067ffffffffffffffff82116106e05761053783546116a0565b601f8111610698575b5091602099959391899795938b90601f83116001146106025793600793837e16b36dc742e36d40c93764b5d2448ab23f153dbfde9a2e22261968924f511e9a98948f9a97946105c499956000926105f7575b50508160011b916000199060031b1c19161790555b51600585015551600684015551916105be83611611565b016117e4565b84600052600682526105da8460406000206117fc565b6105e5600454611836565b600455604051908152a3604051908152f35b015190503880610592565b90601f1983169184600052816000209260005b81811061067e5750848f9a9793946105c49995600798947e16b36dc742e36d40c93764b5d2448ab23f153dbfde9a2e22261968924f511e9e9c9860019510610665575b505050811b0190556105a7565b015160001960f88460031b161c19169055388080610658565b8383015185558e9c50600190940193928f01928f01610615565b836000526020600020601f840160051c810191602085106106d6575b601f0160051c01905b8181106106ca5750610540565b600081556001016106bd565b90915081906106b4565b634e487b7160e01b600052604160045260246000fd5b60405162461bcd60e51b815260206004820152601960248201527f496e737572616e63653a20696e76616c696420616d6f756e74000000000000006044820152606490fd5b6004915001548311158461047c565b60405162461bcd60e51b8152602060048201526016602482015275125b9cdd5c985b98d94e881b9bdd081a5b9cdd5c995960521b6044820152606490fd5b60405162461bcd60e51b8152602060048201526012602482015271125b9cdd5c985b98d94e88195e1c1a5c995960721b6044820152606490fd5b60405162461bcd60e51b815260206004820152601c60248201527f496e737572616e63653a20706f6c696379206e6f7420616374697665000000006044820152606490fd5b34610139576000366003190112610139576020600454604051908152f35b346101395760403660031901126101395761083e611502565b6001600160a01b03166000908152600560205260409020805460243591908210156101395760209161086f91611672565b90549060031b1c604051908152f35b346101395760003660031901126101395760a060025460045460075460085490600954926040519485526020850152604084015260608301526080820152f35b3461013957602036600319011261013957600435600060e06040516108e28161156f565b828152826020820152826040820152826060820152606060808201528260a08201528260c082015201526109196004548210611845565b600052600360205260406000206040516109328161156f565b8154815260018201546020820190815260028301546001600160a01b03166040830190815260038401546060840190815291936109ec610974600483016116da565b6080860190815260058301549460a0870195865260ff600760068601549560c08a019687520154169460e08801956109ab81611611565b865260405198899860208a525160208a015251604089015260018060a01b0390511660608801525160808701525161010060a0870152610120860190611631565b925160c08501525160e084015251610a0381611611565b6101008301520390f35b34610139576040366003190112610139576024356004356000526006602052604060002080548210156101395760209161086f91611672565b34610139576000366003190112610139576020600854604051908152f35b602036600319011261013957600435610a8860018060a01b0360005416331461177e565b610a976001600a5414156118cd565b6001600a55610aa96004548210611845565b8060005260036020526040600020906007820191825492610ad660ff8516610ad081611611565b15611888565b600182015460005260016020526040600020906003830194855493843410610c8d5760008060028194936001839560ff1916178755426006820155897f638d892b8630b775fea5d7a52b209e8bfa1d90c32b57cd37208ac84d4bcd6dcb60206040518c8152a20180549097906001600160a01b03165af1610b55611910565b5015610c4857600360ff19825416179055610b7384546009546117c1565b600955610b87600485549201918254611940565b90558254803411610bd2575b5060207faf3c8fdd75d667f71d36d7840b8ef9086c516c9b047ad6a83a5a66151342123a9160018060a01b039054169354604051908152a36000600a55005b600080808093610bec60018060a01b038354169134611940565b905af1610bf7611910565b5015610c035783610b93565b60405162461bcd60e51b815260206004820152601860248201527f496e737572616e63653a20726566756e64206661696c656400000000000000006044820152606490fd5b60405162461bcd60e51b815260206004820152601960248201527f496e737572616e63653a207061796d656e74206661696c6564000000000000006044820152606490fd5b60405162461bcd60e51b815260206004820152601f60248201527f496e737572616e63653a20696e73756666696369656e74207061796d656e74006044820152606490fd5b34610139576000366003190112610139576020600954604051908152f35b34610139576020366003190112610139576004356000526006602052604060002060405190816020825491828152019160005260206000209060005b818110610d4f5761023a85610d438187038261158c565b60405191829182611518565b8254845260209093019260019283019201610d2c565b34610139576000366003190112610139576000546001600160a01b0316610d8d33821461177e565b610d9c6001600a5414156118cd565b6001600a5547908115610e0c57600080809381935af1610dba611910565b5015610dc7576000600a55005b60405162461bcd60e51b815260206004820152601a60248201527f496e737572616e63653a207769746864726177206661696c65640000000000006044820152606490fd5b60405162461bcd60e51b8152602060048201526015602482015274496e737572616e63653a206e6f2062616c616e636560581b6044820152606490fd5b346101395760403660031901126101395760043560243567ffffffffffffffff811161013957610e7d9036906004016115ca565b50610e9360018060a01b0360005416331461177e565b610ea06004548210611845565b80600052600360205260406000206007810160028154610ec660ff8216610ad081611611565b60ff19161790556006429101557f2aa44a1bb19392ef6a2fd220d2b1649a6dc1bebbfa2a6f2c496e2d39a3339d0e600080a2005b34610139576020366003190112610139576004356060610120604051610f1f81611552565b60008152600060208201526000604082015260008382015260006080820152600060a0820152600060c0820152600060e082015260006101008201520152610f6a6002548210611845565b60005260016020526040600020604051610f8381611552565b8154815261023a6001830154926020830193845260018060a01b03600282015416906040840191825260018060a01b0360038201541660608501908152600482015460808601908152600583015460a0870190815260068401549160c0880192835260078501549360e08901948552611017600960ff600889015416976101008c019861100f81611611565b8952016116da565b966101208a019788526040519a8b9a60208c525160208c01525160408b015260018060a01b0390511660608a015260018060a01b0390511660808901525160a08801525160c08701525160e0860152516101008501525161107781611611565b6101208401525161014080840152610160830190611631565b346101395760c0366003190112610139576024356001600160a01b038116906004359082900361013957604435916084359160643560a43567ffffffffffffffff8111610139576110e59036906004016115ca565b6110fa60018060a01b0360005416331461177e565b831561144b5785156114065784156113c157600961111b60025496426117c1565b611207876040519261112c84611552565b81845260208401888152604085018a81528c606087013381526080880191825260a08801928b845260c089019442865260e08a019687526101008a0197600089526101208b019c8d526000526001602052604060002099518a555160018a015560018060a01b03905116600289019060018060a01b03166001600160601b0360a01b82541617905560018060a01b03905116600388019060018060a01b03166001600160601b0360a01b825416179055516004870155516005860155516006850155516007840155516111fe81611611565b600883016117e4565b01905180519067ffffffffffffffff82116106e05761122683546116a0565b601f8111611379575b5091869391602098938990601f83116001146112ea5791807f06940916c935c73b502a7dacba616da1e8274d1c9f665ce3c4f6ff3c78db8402969492604096946000926112df575b50508160011b916000199060031b1c19161790555b86600052600589526112a185846000206117fc565b6112ad826007546117c1565b6007556112bc816008546117c1565b6008556112ca600254611836565b600255825191825288820152a4604051908152f35b015190508c80611277565b90601f1983169184600052816000209260005b81811061135f5750926001928592604098967f06940916c935c73b502a7dacba616da1e8274d1c9f665ce3c4f6ff3c78db84029a989610611346575b505050811b01905561128c565b015160001960f88460031b161c191690558c8080611339565b8284015185558c9950600190940193928d01928d016112fd565b836000526020600020601f840160051c810191602085106113b7575b601f0160051c01905b8181106113ab575061122f565b6000815560010161139e565b9091508190611395565b60405162461bcd60e51b815260206004820152601860248201527f496e737572616e63653a207a65726f206475726174696f6e00000000000000006044820152606490fd5b60405162461bcd60e51b815260206004820152601860248201527f496e737572616e63653a207a65726f20636f76657261676500000000000000006044820152606490fd5b60405162461bcd60e51b815260206004820152601760248201527f496e737572616e63653a207a65726f20696e73757265640000000000000000006044820152606490fd5b34610139576020366003190112610139576001600160a01b036114b1611502565b16600052600560205260406000208054808352602083019160005260206000209060005b8181106114ec5761023a85610d438187038261158c565b82548452602090930192600192830192016114d5565b600435906001600160a01b038216820361013957565b602060408183019282815284518094520192019060005b81811061153c5750505090565b825184526020938401939092019160010161152f565b610140810190811067ffffffffffffffff8211176106e057604052565b610100810190811067ffffffffffffffff8211176106e057604052565b90601f8019910116810190811067ffffffffffffffff8211176106e057604052565b67ffffffffffffffff81116106e057601f01601f191660200190565b81601f82011215610139578035906115e1826115ae565b926115ef604051948561158c565b8284526020838301011161013957816000926020809301838601378301015290565b6004111561161b57565b634e487b7160e01b600052602160045260246000fd5b919082519283825260005b84811061165d575050826000602080949584010152601f8019910116010190565b8060208092840101518282860101520161163c565b805482101561168a5760005260206000200190600090565b634e487b7160e01b600052603260045260246000fd5b90600182811c921680156116d0575b60208310146116ba57565b634e487b7160e01b600052602260045260246000fd5b91607f16916116af565b90604051918260008254926116ee846116a0565b808452936001811690811561175c5750600114611715575b506117139250038361158c565b565b90506000929192526020600020906000915b8183106117405750509060206117139282010138611706565b6020919350806001915483858901015201910190918492611727565b90506020925061171394915060ff191682840152151560051b82010138611706565b1561178557565b60405162461bcd60e51b815260206004820152601460248201527324b739bab930b731b29d103737ba1030b236b4b760611b6044820152606490fd5b919082018092116117ce57565b634e487b7160e01b600052601160045260246000fd5b906117ee81611611565b60ff80198354169116179055565b8054680100000000000000008110156106e05761181e91600182018155611672565b819291549060031b91821b91600019901b1916179055565b60001981146117ce5760010190565b1561184c57565b60405162461bcd60e51b8152602060048201526014602482015273125b9cdd5c985b98d94e881b9bdd08199bdd5b9960621b6044820152606490fd5b1561188f57565b60405162461bcd60e51b8152602060048201526016602482015275496e737572616e63653a206e6f742070656e64696e6760501b6044820152606490fd5b156118d457565b60405162461bcd60e51b8152602060048201526014602482015273125b9cdd5c985b98d94e881c99595b9d1c985b9d60621b6044820152606490fd5b3d1561193b573d90611921826115ae565b9161192f604051938461158c565b82523d6000602084013e565b606090565b919082039182116117ce57565b600254811015611a2157600052600160205260406000206040519061197182611552565b805482526001810154602083015260028101546001600160a01b039081166040840152600382015416606083015260048101546080830152600581015460a0830152600681015460c0830152600781015460e08301908152600882015490926101008101929091610120916119f8916009919060ff166119f081611611565b8652016116da565b91015251611a0581611611565b611a0e81611611565b159081611a19575090565b905051421090565b5060009056fea26469706673582212200bd3f397831f06be6e06de8c6a34e1e43dcec96ead309bcfff351f8d2b1f088864736f6c634300081c0033",
  "linkReferences": {},
  "deployedLinkReferences": {}
}