{
  "_format": "hh-sol-artifact-1",
  "contractName": "Marketplace",
  "sourceName": "contracts/Marketplace.sol",
  "abi": [
    {
      "inputs": [
        {
          "internalType": "address",
          "name": "_complianceContract",
          "type": "address"
        },
        {
          "internalType": "address",
          "name": "_rwaToken",
          "type": "address"
        }
      ],
      "stateMutability": "nonpayable",
      "type": "constructor"
    },
    {
      "anonymous": false,
      "inputs": [
        {
          "indexed": true,
          "internalType": "address",
          "name": "from",
          "type": "address"
        },
        {
          "indexed": true,
          "internalType": "address",
          "name": "to",
          "type": "address"
        },
        {
          "indexed": false,
          "internalType": "string",
          "name": "reason",
          "type": "string"
        }
      ],
      "name": "ComplianceCheckFailed",
      "type": "event"
    },
    {
      "anonymous": false,
      "inputs": [
        {
          "indexed": false,
          "internalType": "uint256",
          "name": "oldRate",
          "type": "uint256"
        },
        {
          "indexed": false,
          "internalType": "uint256",
          "name": "newRate",
          "type": "uint256"
        }
      ],
      "name": "FeeRateUpdated",
      "type": "event"
    },
    {
      "anonymous": false,
      "inputs": [
        {
          "indexed": true,
          "internalType": "address",
          "name": "maker",
          "type": "address"
        }
      ],
      "name": "MarketMakerRegistered",
      "type": "event"
    },
    {
      "anonymous": false,
      "inputs": [
        {
          "indexed": true,
          "internalType": "address",
          "name": "maker",
          "type": "address"
        }
      ],
      "name": "MarketMakerRemoved",
      "type": "event"
    },
    {
      "anonymous": false,
      "inputs": [
        {
          "indexed": true,
          "internalType": "address",
          "name": "admin",
          "type": "address"
        }
      ],
      "name": "MarketPaused",
      "type": "event"
    },
    {
      "anonymous": false,
      "inputs": [
        {
          "indexed": true,
          "internalType": "address",
          "name": "admin",
          "type": "address"
        }
      ],
      "name": "MarketUnpaused",
      "type": "event"
    },
    {
      "anonymous": false,
      "inputs": [
        {
          "indexed": true,
          "internalType": "uint256",
          "name": "tradeId",
          "type": "uint256"
        }
      ],
      "name": "OTCAccepted",
      "type": "event"
    },
    {
      "anonymous": false,
      "inputs": [
        {
          "indexed": true,
          "internalType": "uint256",
          "name": "tradeId",
          "type": "uint256"
        }
      ],
      "name": "OTCCancelled",
      "type": "event"
    },
    {
      "anonymous": false,
      "inputs": [
        {
          "indexed": true,
          "internalType": "uint256",
          "name": "tradeId",
          "type": "uint256"
        },
        {
          "indexed": true,
          "internalType": "address",
          "name": "partyA",
          "type": "address"
        },
        {
          "indexed": false,
          "internalType": "address",
          "name": "partyB",
          "type": "address"
        },
        {
          "indexed": false,
          "internalType": "uint256",
          "name": "amount",
          "type": "uint256"
        },
        {
          "indexed": false,
          "internalType": "uint256",
          "name": "price",
          "type": "uint256"
        }
      ],
      "name": "OTCProposed",
      "type": "event"
    },
    {
      "anonymous": false,
      "inputs": [
        {
          "indexed": true,
          "internalType": "uint256",
          "name": "tradeId",
          "type": "uint256"
        },
        {
          "indexed": false,
          "internalType": "uint256",
          "name": "amount",
          "type": "uint256"
        },
        {
          "indexed": false,
          "internalType": "uint256",
          "name": "price",
          "type": "uint256"
        }
      ],
      "name": "OTCSettled",
      "type": "event"
    },
    {
      "anonymous": false,
      "inputs": [
        {
          "indexed": true,
          "internalType": "address",
          "name": "maker",
          "type": "address"
        },
        {
          "indexed": true,
          "internalType": "address",
          "name": "taker",
          "type": "address"
        },
        {
          "indexed": false,
          "internalType": "bool",
          "name": "isBuy",
          "type": "bool"
        },
        {
          "indexed": false,
          "internalType": "uint256",
          "name": "amount",
          "type": "uint256"
        },
        {
          "indexed": false,
          "internalType": "uint256",
          "name": "price",
          "type": "uint256"
        }
      ],
      "name": "QuoteTaken",
      "type": "event"
    },
    {
      "anonymous": false,
      "inputs": [
        {
          "indexed": true,
          "internalType": "address",
          "name": "maker",
          "type": "address"
        },
        {
          "indexed": true,
          "internalType": "address",
          "name": "token",
          "type": "address"
        },
        {
          "indexed": false,
          "internalType": "uint256",
          "name": "bid",
          "type": "uint256"
        },
        {
          "indexed": false,
          "internalType": "uint256",
          "name": "ask",
          "type": "uint256"
        }
      ],
      "name": "QuoteUpdated",
      "type": "event"
    },
    {
      "anonymous": false,
      "inputs": [
        {
          "indexed": true,
          "internalType": "uint256",
          "name": "orderId",
          "type": "uint256"
        },
        {
          "indexed": true,
          "internalType": "address",
          "name": "seller",
          "type": "address"
        },
        {
          "indexed": false,
          "internalType": "uint256",
          "name": "refundAmount",
          "type": "uint256"
        }
      ],
      "name": "SellOrderCancelled",
      "type": "event"
    },
    {
      "anonymous": false,
      "inputs": [
        {
          "indexed": true,
          "internalType": "uint256",
          "name": "orderId",
          "type": "uint256"
        },
        {
          "indexed": true,
          "internalType": "address",
          "name": "seller",
          "type": "address"
        },
        {
          "indexed": false,
          "internalType": "address",
          "name": "token",
          "type": "address"
        },
        {
          "indexed": false,
          "internalType": "uint256",
          "name": "amount",
          "type": "uint256"
        },
        {
          "indexed": false,
          "internalType": "uint256",
          "name": "pricePerToken",
          "type": "uint256"
        }
      ],
      "name": "SellOrderCreated",
      "type": "event"
    },
    {
      "anonymous": false,
      "inputs": [
        {
          "indexed": true,
          "internalType": "uint256",
          "name": "orderId",
          "type": "uint256"
        },
        {
          "indexed": true,
          "internalType": "address",
          "name": "buyer",
          "type": "address"
        },
        {
          "indexed": true,
          "internalType": "address",
          "name": "seller",
          "type": "address"
        },
        {
          "indexed": false,
          "internalType": "uint256",
          "name": "amount",
          "type": "uint256"
        },
        {
          "indexed": false,
          "internalType": "uint256",
          "name": "totalPrice",
          "type": "uint256"
        },
        {
          "indexed": false,
          "internalType": "uint256",
          "name": "fee",
          "type": "uint256"
        }
      ],
      "name": "SellOrderFilled",
      "type": "event"
    },
    {
      "inputs": [
        {
          "internalType": "uint256",
          "name": "tradeId",
          "type": "uint256"
        }
      ],
      "name": "acceptOTC",
      "outputs": [],
      "stateMutability": "nonpayable",
      "type": "function"
    },
    {
      "inputs": [],
      "name": "admin",
      "outputs": [
        {
          "internalType": "address",
          "name": "",
          "type": "address"
        }
      ],
      "stateMutability": "view",
      "type": "function"
    },
    {
      "inputs": [
        {
          "internalType": "uint256",
          "name": "orderId",
          "type": "uint256"
        }
      ],
      "name": "buyAllTokens",
      "outputs": [],
      "stateMutability": "payable",
      "type": "function"
    },
    {
      "inputs": [
        {
          "internalType": "address",
          "name": "maker",
          "type": "address"
        },
        {
          "internalType": "address",
          "name": "token",
          "type": "address"
        },
        {
          "internalType": "uint256",
          "name": "amount",
          "type": "uint256"
        }
      ],
      "name": "buyFromMaker",
      "outputs": [],
      "stateMutability": "payable",
      "type": "function"
    },
    {
      "inputs": [
        {
          "internalType": "uint256",
          "name": "orderId",
          "type": "uint256"
        },
        {
          "internalType": "uint256",
          "name": "amount",
          "type": "uint256"
        }
      ],
      "name": "buyTokens",
      "outputs": [],
      "stateMutability": "payable",
      "type": "function"
    },
    {
      "inputs": [
        {
          "internalType": "uint256",
          "name": "tradeId",
          "type": "uint256"
        }
      ],
      "name": "cancelOTC",
      "outputs": [],
      "stateMutability": "nonpayable",
      "type": "function"
    },
    {
      "inputs": [
        {
          "internalType": "uint256",
          "name": "orderId",
          "type": "uint256"
        }
      ],
      "name": "cancelSellOrder",
      "outputs": [],
      "stateMutability": "nonpayable",
      "type": "function"
    },
    {
      "inputs": [],
      "name": "complianceContract",
      "outputs": [
        {
          "internalType": "address",
          "name": "",
          "type": "address"
        }
      ],
      "stateMutability": "view",
      "type": "function"
    },
    {
      "inputs": [
        {
          "internalType": "address",
          "name": "tokenAddress",
          "type": "address"
        },
        {
          "internalType": "uint256",
          "name": "amount",
          "type": "uint256"
        },
        {
          "internalType": "uint256",
          "name": "pricePerToken",
          "type": "uint256"
        }
      ],
      "name": "createSellOrder",
      "outputs": [
        {
          "internalType": "uint256",
          "name": "",
          "type": "uint256"
        }
      ],
      "stateMutability": "nonpayable",
      "type": "function"
    },
    {
      "inputs": [],
      "name": "feeRate",
      "outputs": [
        {
          "internalType": "uint256",
          "name": "",
          "type": "uint256"
        }
      ],
      "stateMutability": "view",
      "type": "function"
    },
    {
      "inputs": [],
      "name": "feeReceiver",
      "outputs": [
        {
          "internalType": "address",
          "name": "",
          "type": "address"
        }
      ],
      "stateMutability": "view",
      "type": "function"
    },
    {
      "inputs": [],
      "name": "getActiveOrders",
      "outputs": [
        {
          "internalType": "uint256[]",
          "name": "",
          "type": "uint256[]"
        }
      ],
      "stateMutability": "view",
      "type": "function"
    },
    {
      "inputs": [],
      "name": "getMarketMakers",
      "outputs": [
        {
          "internalType": "address[]",
          "name": "",
          "type": "address[]"
        }
      ],
      "stateMutability": "view",
      "type": "function"
    },
    {
      "inputs": [
        {
          "internalType": "address",
          "name": "maker",
          "type": "address"
        },
        {
          "internalType": "address",
          "name": "token",
          "type": "address"
        }
      ],
      "name": "getMarketQuote",
      "outputs": [
        {
          "components": [
            {
              "internalType": "address",
              "name": "maker",
              "type": "address"
            },
            {
              "internalType": "address",
              "name": "token",
              "type": "address"
            },
            {
              "internalType": "uint256",
              "name": "bidPrice",
              "type": "uint256"
            },
            {
              "internalType": "uint256",
              "name": "askPrice",
              "type": "uint256"
            },
            {
              "internalType": "uint256",
              "name": "bidAmount",
              "type": "uint256"
            },
            {
              "internalType": "uint256",
              "name": "askAmount",
              "type": "uint256"
            },
            {
              "internalType": "uint256",
              "name": "updatedAt",
              "type": "uint256"
            },
            {
              "internalType": "bool",
              "name": "active",
              "type": "bool"
            }
          ],
          "internalType": "struct Marketplace.MarketQuote",
          "name": "",
          "type": "tuple"
        }
      ],
      "stateMutability": "view",
      "type": "function"
    },
    {
      "inputs": [],
      "name": "getMarketStats",
      "outputs": [
        {
          "internalType": "uint256",
          "name": "_orderCount",
          "type": "uint256"
        },
        {
          "internalType": "uint256",
          "name": "_totalVolume",
          "type": "uint256"
        },
        {
          "internalType": "uint256",
          "name": "_totalFees",
          "type": "uint256"
        },
        {
          "internalType": "uint256",
          "name": "_feeRate",
          "type": "uint256"
        }
      ],
      "stateMutability": "view",
      "type": "function"
    },
    {
      "inputs": [
        {
          "internalType": "uint256",
          "name": "tradeId",
          "type": "uint256"
        }
      ],
      "name": "getOTCTrade",
      "outputs": [
        {
          "components": [
            {
              "internalType": "uint256",
              "name": "tradeId",
              "type": "uint256"
            },
            {
              "internalType": "address",
              "name": "partyA",
              "type": "address"
            },
            {
              "internalType": "address",
              "name": "partyB",
              "type": "address"
            },
            {
              "internalType": "address",
              "name": "token",
              "type": "address"
            },
            {
              "internalType": "uint256",
              "name": "amount",
              "type": "uint256"
            },
            {
              "internalType": "uint256",
              "name": "price",
              "type": "uint256"
            },
            {
              "internalType": "uint256",
              "name": "createdAt",
              "type": "uint256"
            },
            {
              "internalType": "uint256",
              "name": "settledAt",
              "type": "uint256"
            },
            {
              "internalType": "enum Marketplace.OTCStatus",
              "name": "status",
              "type": "uint8"
            }
          ],
          "internalType": "struct Marketplace.OTCTrade",
          "name": "",
          "type": "tuple"
        }
      ],
      "stateMutability": "view",
      "type": "function"
    },
    {
      "inputs": [
        {
          "internalType": "uint256",
          "name": "orderId",
          "type": "uint256"
        }
      ],
      "name": "getOrder",
      "outputs": [
        {
          "components": [
            {
              "internalType": "uint256",
              "name": "orderId",
              "type": "uint256"
            },
            {
              "internalType": "address",
              "name": "seller",
              "type": "address"
            },
            {
              "internalType": "address",
              "name": "tokenAddress",
              "type": "address"
            },
            {
              "internalType": "uint256",
              "name": "amount",
              "type": "uint256"
            },
            {
              "internalType": "uint256",
              "name": "totalAmount",
              "type": "uint256"
            },
            {
              "internalType": "uint256",
              "name": "pricePerToken",
              "type": "uint256"
            },
            {
              "internalType": "uint256",
              "name": "timestamp",
              "type": "uint256"
            },
            {
              "internalType": "bool",
              "name": "active",
              "type": "bool"
            }
          ],
          "internalType": "struct Marketplace.SellOrder",
          "name": "",
          "type": "tuple"
        }
      ],
      "stateMutability": "view",
      "type": "function"
    },
    {
      "inputs": [
        {
          "internalType": "uint256",
          "name": "orderId",
          "type": "uint256"
        },
        {
          "internalType": "uint256",
          "name": "amount",
          "type": "uint256"
        }
      ],
      "name": "getOrderTotal",
      "outputs": [
        {
          "internalType": "uint256",
          "name": "totalPrice",
          "type": "uint256"
        },
        {
          "internalType": "uint256",
          "name": "fee",
          "type": "uint256"
        }
      ],
      "stateMutability": "view",
      "type": "function"
    },
    {
      "inputs": [
        {
          "internalType": "address",
          "name": "user",
          "type": "address"
        }
      ],
      "name": "getUserOrders",
      "outputs": [
        {
          "internalType": "uint256[]",
          "name": "",
          "type": "uint256[]"
        }
      ],
      "stateMutability": "view",
      "type": "function"
    },
    {
      "inputs": [
        {
          "internalType": "address",
          "name": "",
          "type": "address"
        }
      ],
      "name": "isMarketMaker",
      "outputs": [
        {
          "internalType": "bool",
          "name": "",
          "type": "bool"
        }
      ],
      "stateMutability": "view",
      "type": "function"
    },
    {
      "inputs": [
        {
          "internalType": "address",
          "name": "",
          "type": "address"
        }
      ],
      "name": "makerVolume",
      "outputs": [
        {
          "internalType": "uint256",
          "name": "",
          "type": "uint256"
        }
      ],
      "stateMutability": "view",
      "type": "function"
    },
    {
      "inputs": [
        {
          "internalType": "uint256",
          "name": "",
          "type": "uint256"
        }
      ],
      "name": "marketMakers",
      "outputs": [
        {
          "internalType": "address",
          "name": "",
          "type": "address"
        }
      ],
      "stateMutability": "view",
      "type": "function"
    },
    {
      "inputs": [
        {
          "internalType": "address",
          "name": "",
          "type": "address"
        },
        {
          "internalType": "address",
          "name": "",
          "type": "address"
        }
      ],
      "name": "marketQuotes",
      "outputs": [
        {
          "internalType": "address",
          "name": "maker",
          "type": "address"
        },
        {
          "internalType": "address",
          "name": "token",
          "type": "address"
        },
        {
          "internalType": "uint256",
          "name": "bidPrice",
          "type": "uint256"
        },
        {
          "internalType": "uint256",
          "name": "askPrice",
          "type": "uint256"
        },
        {
          "internalType": "uint256",
          "name": "bidAmount",
          "type": "uint256"
        },
        {
          "internalType": "uint256",
          "name": "askAmount",
          "type": "uint256"
        },
        {
          "internalType": "uint256",
          "name": "updatedAt",
          "type": "uint256"
        },
        {
          "internalType": "bool",
          "name": "active",
          "type": "bool"
        }
      ],
      "stateMutability": "view",
      "type": "function"
    },
    {
      "inputs": [],
      "name": "orderCount",
      "outputs": [
        {
          "internalType": "uint256",
          "name": "",
          "type": "uint256"
        }
      ],
      "stateMutability": "view",
      "type": "function"
    },
    {
      "inputs": [],
      "name": "otcTradeCount",
      "outputs": [
        {
          "internalType": "uint256",
          "name": "",
          "type": "uint256"
        }
      ],
      "stateMutability": "view",
      "type": "function"
    },
    {
      "inputs": [
        {
          "internalType": "uint256",
          "name": "",
          "type": "uint256"
        }
      ],
      "name": "otcTrades",
      "outputs": [
        {
          "internalType": "uint256",
          "name": "tradeId",
          "type": "uint256"
        },
        {
          "internalType": "address",
          "name": "partyA",
          "type": "address"
        },
        {
          "internalType": "address",
          "name": "partyB",
          "type": "address"
        },
        {
          "internalType": "address",
          "name": "token",
          "type": "address"
        },
        {
          "internalType": "uint256",
          "name": "amount",
          "type": "uint256"
        },
        {
          "internalType": "uint256",
          "name": "price",
          "type": "uint256"
        },
        {
          "internalType": "uint256",
          "name": "createdAt",
          "type": "uint256"
        },
        {
          "internalType": "uint256",
          "name": "settledAt",
          "type": "uint256"
        },
        {
          "internalType": "enum Marketplace.OTCStatus",
          "name": "status",
          "type": "uint8"
        }
      ],
      "stateMutability": "view",
      "type": "function"
    },
    {
      "inputs": [],
      "name": "pause",
      "outputs": [],
      "stateMutability": "nonpayable",
      "type": "function"
    },
    {
      "inputs": [],
      "name": "paused",
      "outputs": [
        {
          "internalType": "bool",
          "name": "",
          "type": "bool"
        }
      ],
      "stateMutability": "view",
      "type": "function"
    },
    {
      "inputs": [
        {
          "internalType": "address",
          "name": "partyB",
          "type": "address"
        },
        {
          "internalType": "address",
          "name": "token",
          "type": "address"
        },
        {
          "internalType": "uint256",
          "name": "amount",
          "type": "uint256"
        },
        {
          "internalType": "uint256",
          "name": "price",
          "type": "uint256"
        }
      ],
      "name": "proposeOTC",
      "outputs": [
        {
          "internalType": "uint256",
          "name": "",
          "type": "uint256"
        }
      ],
      "stateMutability": "nonpayable",
      "type": "function"
    },
    {
      "inputs": [
        {
          "internalType": "address",
          "name": "maker",
          "type": "address"
        }
      ],
      "name": "registerMarketMaker",
      "outputs": [],
      "stateMutability": "nonpayable",
      "type": "function"
    },
    {
      "inputs": [
        {
          "internalType": "address",
          "name": "maker",
          "type": "address"
        }
      ],
      "name": "removeMarketMaker",
      "outputs": [],
      "stateMutability": "nonpayable",
      "type": "function"
    },
    {
      "inputs": [],
      "name": "rwaToken",
      "outputs": [
        {
          "internalType": "address",
          "name": "",
          "type": "address"
        }
      ],
      "stateMutability": "view",
      "type": "function"
    },
    {
      "inputs": [
        {
          "internalType": "uint256",
          "name": "",
          "type": "uint256"
        }
      ],
      "name": "sellOrders",
      "outputs": [
        {
          "internalType": "uint256",
          "name": "orderId",
          "type": "uint256"
        },
        {
          "internalType": "address",
          "name": "seller",
          "type": "address"
        },
        {
          "internalType": "address",
          "name": "tokenAddress",
          "type": "address"
        },
        {
          "internalType": "uint256",
          "name": "amount",
          "type": "uint256"
        },
        {
          "internalType": "uint256",
          "name": "totalAmount",
          "type": "uint256"
        },
        {
          "internalType": "uint256",
          "name": "pricePerToken",
          "type": "uint256"
        },
        {
          "internalType": "uint256",
          "name": "timestamp",
          "type": "uint256"
        },
        {
          "internalType": "bool",
          "name": "active",
          "type": "bool"
        }
      ],
      "stateMutability": "view",
      "type": "function"
    },
    {
      "inputs": [
        {
          "internalType": "address",
          "name": "maker",
          "type": "address"
        },
        {
          "internalType": "address",
          "name": "token",
          "type": "address"
        },
        {
          "internalType": "uint256",
          "name": "amount",
          "type": "uint256"
        }
      ],
      "name": "sellToMaker",
      "outputs": [],
      "stateMutability": "nonpayable",
      "type": "function"
    },
    {
      "inputs": [
        {
          "internalType": "address",
          "name": "_complianceContract",
          "type": "address"
        }
      ],
      "name": "setComplianceContract",
      "outputs": [],
      "stateMutability": "nonpayable",
      "type": "function"
    },
    {
      "inputs": [
        {
          "internalType": "address",
          "name": "_rwaToken",
          "type": "address"
        }
      ],
      "name": "setRWAToken",
      "outputs": [],
      "stateMutability": "nonpayable",
      "type": "function"
    },
    {
      "inputs": [
        {
          "internalType": "uint256",
          "name": "tradeId",
          "type": "uint256"
        }
      ],
      "name": "settleOTC",
      "outputs": [],
      "stateMutability": "payable",
      "type": "function"
    },
    {
      "inputs": [],
      "name": "totalFeesCollected",
      "outputs": [
        {
          "internalType": "uint256",
          "name": "",
          "type": "uint256"
        }
      ],
      "stateMutability": "view",
      "type": "function"
    },
    {
      "inputs": [],
      "name": "totalVolume",
      "outputs": [
        {
          "internalType": "uint256",
          "name": "",
          "type": "uint256"
        }
      ],
      "stateMutability": "view",
      "type": "function"
    },
    {
      "inputs": [],
      "name": "unpause",
      "outputs": [],
      "stateMutability": "nonpayable",
      "type": "function"
    },
    {
      "inputs": [
        {
          "internalType": "uint256",
          "name": "newRate",
          "type": "uint256"
        }
      ],
      "name": "updateFeeRate",
      "outputs": [],
      "stateMutability": "nonpayable",
      "type": "function"
    },
    {
      "inputs": [
        {
          "internalType": "address",
          "name": "newReceiver",
          "type": "address"
        }
      ],
      "name": "updateFeeReceiver",
      "outputs": [],
      "stateMutability": "nonpayable",
      "type": "function"
    },
    {
      "inputs": [
        {
          "internalType": "address",
          "name": "token",
          "type": "address"
        },
        {
          "internalType": "uint256",
          "name": "bidPrice",
          "type": "uint256"
        },
        {
          "internalType": "uint256",
          "name": "askPrice",
          "type": "uint256"
        },
        {
          "internalType": "uint256",
          "name": "bidAmount",
          "type": "uint256"
        },
        {
          "internalType": "uint256",
          "name": "askAmount",
          "type": "uint256"
        }
      ],
      "name": "updateQuote",
      "outputs": [],
      "stateMutability": "nonpayable",
      "type": "function"
    },
    {
      "inputs": [
        {
          "internalType": "address",
          "name": "",
          "type": "address"
        },
        {
          "internalType": "uint256",
          "name": "",
          "type": "uint256"
        }
      ],
      "name": "userOrders",
      "outputs": [
        {
          "internalType": "uint256",
          "name": "",
          "type": "uint256"
        }
      ],
      "stateMutability": "view",
      "type": "function"
    },
    {
      "inputs": [],
      "name": "withdraw",
      "outputs": [],
      "stateMutability": "nonpayable",
      "type": "function"
    }
  ],
  "bytecode": "0x60803460a357601f6133a038819003918201601f19168301916001600160401b0383118484101760a857808492604094855283398101031260a357604b602060458360be565b920160be565b601960065560008054336001600160a01b03199182168117909255600780548216909217909155600180546001600160a01b03948516908316179055600280549290931691161790556040516132ce90816100d28239f35b600080fd5b634e487b7160e01b600052604160045260246000fd5b51906001600160a01b038216820360a35756fe6080604052600436101561001257600080fd5b60003560e01c806286e68b146129ca57806304e9e17a14612555578063084a1527146124275780630c5bf351146123fe57806318e0d4ca146123ae5780631932e488146122f857806319337dbf146121ea5780631a46e42a146121055780631cdb5e3e146120605780632043285d14611f945780632453ffa814611f765780633615c7ea14611ec25780633ccfd60b14611dd65780633f4ba83a14611d7e5780634a8393f314611cf05780634de8c8e414611cb657806351eb378914611a3c5780635353907a146118675780635c975abb146118445780635f81a57c1461182657806360c6d8ae1461180857806363c69f0814611781578063648c5660146116185780637515470e146115fa5780637975ce28146115c15780637b84fda5146115115780637f37a338146112755780638456cb591461121a578063856652e9146111c15780638ed1a7261461109d578063978bbdb91461107f578063b2a2a4e214611056578063b3f006741461102d578063b4cb5a9114610dd6578063bf2da3ac14610b79578063c69bebe414610b1f578063c8eb825514610656578063cdc0519f14610617578063d09ef24114610527578063df7271bc146104e5578063f19bdf5f14610388578063f851a4401461035f578063f8de25451461030f578063f93bed3f146102465763ff4cd5b91461020a57600080fd5b34610241576000366003190112610241576080600454600a54600b5460065491604051938452602084015260408301526060820152f35b600080fd5b346102415760203660031901126102415761025f612b02565b61027460018060a01b03600054163314612cef565b6001600160a01b03166000818152600d602052604090205460ff16156102d15780600052600d602052604060002060ff1981541690557ff0df763396e73ee861c5bb738eafc15ecc0e14b3c90f6e5e73e955240973fa83600080a2005b60405162461bcd60e51b815260206004820152601660248201527526b0b935b2ba383630b1b29d103737ba1036b0b5b2b960511b6044820152606490fd5b3461024157602036600319011261024157610328612b02565b61033d60018060a01b03600054163314612cef565b600180546001600160a01b0319166001600160a01b0392909216919091179055005b34610241576000366003190112610241576000546040516001600160a01b039091168152602090f35b34610241576020366003190112610241576004356103a96011548210612ec4565b8060005260106020526040600020600881019060ff82541660048110156104cf5780159081156104c4575b501561047f5760018101546001600160a01b03163314908115610468575b501561042a57805460ff191660031790557ff50580a9173a328fc78c3fff91861333ff5355844e06f2fd48afa2a451c51881600080a2005b60405162461bcd60e51b81526020600482015260166024820152754d61726b6574706c6163653a206e6f7420706172747960501b6044820152606490fd5b600201546001600160a01b031633149050836103f2565b60405162461bcd60e51b815260206004820152601c60248201527f4d61726b6574706c6163653a206e6f742063616e63656c6c61626c65000000006044820152606490fd5b6001915014846103d4565b634e487b7160e01b600052602160045260246000fd5b3461024157602036600319011261024157600435600c548110156102415761050e602091612b8b565b905460405160039290921b1c6001600160a01b03168152f35b3461024157602036600319011261024157610540612d3a565b506004356000526003602052610100604060002060405161056081612be3565b81549182825260018060a01b036001820154166020830190815260018060a01b03600283015416604084019081526003830154606085019081526004840154916080860192835260058501549360a0870194855260e060ff600760068901549860c08b01998a520154169701961515875260405197885260018060a01b03905116602088015260018060a01b0390511660408701525160608601525160808501525160a08401525160c083015251151560e0820152f35b34610241576020366003190112610241576001600160a01b03610638612b02565b16600052600d602052602060ff604060002054166040519015158152f35b60203660031901126102415760043560ff600954161561067581612c57565b61068460016008541415612e2c565b600160085561074d600454831061069a81612d77565b8360005260036020526106b760ff60076040600020015416612dcd565b8360005260036020526107396040600020936040516106d581612be3565b8554815260018601546001600160a01b039081166020830152600287015416604082015260038601546060820181905260048701546080830152600587015460a0830152600687015460c083015260079096015460ff16151560e090910152612c57565b6107436000612e2c565b6001600855612d77565b81600052600360205261076a60ff60076040600020015416612dcd565b8160005260036020526040600020918115610ada5760038301805493848411610a8657670de0b6b3a76400006107a4856005840154612e19565b049485926107b484341015612f09565b6001546001600160a01b03166109a2575b600080809381936107f08a6107ea6127106107e26006548d612e19565b04809b612fd2565b93612fd2565b80915515610991575b6108058a600a5461302b565b600a5561081487600b5461302b565b600b55600286015460019096018054909661083f918b9133916001600160a01b0390811691166131ba565b85546001600160a01b03165af1610854612e94565b501561093c57816108d8575b8434116108b0575b60018060a01b0390541693604051938452602084015260408301527fd513ce32cd0fb0d69a2067281ffe1c78e3f1e19bde32bfda66add4b37e255b2c60603393a46000600855005b6108d360008080806108c28a34612fd2565b335af16108cd612e94565b50612fdf565b610868565b60008080808560018060a01b03600754165af16108f3612e94565b5061086057606460405162461bcd60e51b815260206004820152602060248201527f4d61726b6574706c6163653a20666565207472616e73666572206661696c65646044820152fd5b60405162461bcd60e51b815260206004820152602760248201527f4d61726b6574706c6163653a2073656c6c657220455448207472616e736665726044820152660819985a5b195960ca1b6064820152608490fd5b60078601805460ff191690556107f9565b600183015492935090916001600160a01b03166109c0863383613091565b9190156109d2575050908592916107c5565b610a829250604051907f7cdbd090663240bcb5bc49df552f3c3dea69c5c5544cd849670602b01b9791f3339280610a098682612f82565b0390a3610a6a604160405180937f4d61726b6574706c6163653a20636f6d706c69616e6365206661696c6564202d6020830152600160fd1b6040830152610a598151809260208686019101612f5f565b81010301601f198101835282612c1d565b60405162461bcd60e51b815291829160048301612f82565b0390fd5b60405162461bcd60e51b815260206004820152602660248201527f4d61726b6574706c6163653a20696e73756666696369656e74206f7264657220604482015265185b5bdd5b9d60d21b6064820152608490fd5b60405162461bcd60e51b815260206004820152601860248201527f4d61726b6574706c6163653a207a65726f20616d6f756e7400000000000000006044820152606490fd5b3461024157602036600319011261024157610b38612b02565b610b4d60018060a01b03600054163314612cef565b6001600160a01b0316610b61811515612ca3565b6001600160601b0360a01b6007541617600755600080f35b610b8236612b51565b91610b9260ff6009541615612c57565b610ba160016008541415612e2c565b600160085560018060a01b0381169182600052600e60205260408060002060009060018060a01b03841682526020522091610be260ff600785015416613038565b6005830192835492838711610d9157610c3592600388930195610c2c84610c0a818a54612e19565b97610c1789341015612f09565b6001546001600160a01b0316610d2457612fd2565b905533916131ba565b600080808084875af1610c46612e94565b5015610cd55780610c7b913411610cbe575b83600052600f6020526040600020610c7182825461302b565b9055600a5461302b565b600a55546040519260018452602084015260408301527fe679f8c9b95f0de32a32658d1de18440d6b8a0b855279bdf5ecd7dd11b3b642d60603393a36000600855005b610cd060008080806108c28634612fd2565b610c58565b60405162461bcd60e51b815260206004820152602160248201527f4d61726b6574706c6163653a206d616b6572207061796d656e74206661696c656044820152601960fa1b6064820152608490fd5b610d8c610d32833388613091565b90610d87603a60405180947f4d61726b6574706c6163653a20636f6d706c69616e6365202d200000000000006020830152610d768151809260208686019101612f5f565b81010301601f198101845283612c1d565b612fae565b612fd2565b60405162461bcd60e51b815260206004820152601f60248201527f4d61726b6574706c6163653a20657863656564732061736b20616d6f756e74006044820152606490fd5b346102415760a036600319011261024157610def612b02565b602435604435610e0460ff6009541615612c57565b33600052600d60205260ff6040600020541615610fe85781151580610fdf575b15610f9a5780821015610f5557610f22604051610e4081612be3565b3381526007602082019560018060a01b031695868152604083018681526060840186815260808501606435815260a0860191608435835260c087019342855260e08801956001875233600052600e60205260408d816000206000918252602052209860018060a01b039060018060a01b03905116166001600160601b0360a01b8a541617895560018060a01b03905116600189019060018060a01b03166001600160601b0360a01b82541617905551600288015551600387015551600486015551600585015551600684015551151591019060ff801983541691151516179055565b60405191825260208201527f7c58b0756dc573bde7b97f6e19739f75a2503c730161fd1484e3cbf53371c0af60403392a3005b60405162461bcd60e51b815260206004820152601760248201527f4d61726b6574706c6163653a20626964203e3d2061736b0000000000000000006044820152606490fd5b60405162461bcd60e51b815260206004820152601760248201527f4d61726b6574706c6163653a207a65726f2070726963650000000000000000006044820152606490fd5b50801515610e24565b60405162461bcd60e51b815260206004820152601d60248201527f4d61726b6574706c6163653a206e6f74206d61726b6574206d616b65720000006044820152606490fd5b34610241576000366003190112610241576007546040516001600160a01b039091168152602090f35b34610241576000366003190112610241576001546040516001600160a01b039091168152602090f35b34610241576000366003190112610241576020600654604051908152f35b34610241576020366003190112610241576004356110c060ff6009541615612c57565b6110cd6011548210612ec4565b8060005260106020526040600020600881019060ff82541660048110156104cf5761117c57600201546001600160a01b0316330361113757805460ff191660011790557fec4aa8b4e1810ce620971e9105cedb178d5d9560486d898f1540657a750832f1600080a2005b60405162461bcd60e51b815260206004820152601760248201527f4d61726b6574706c6163653a206e6f74207061727479420000000000000000006044820152606490fd5b60405162461bcd60e51b815260206004820152601860248201527f4d61726b6574706c6163653a206e6f742070656e64696e6700000000000000006044820152606490fd5b34610241576040366003190112610241576111da612b02565b6001600160a01b03166000908152600560205260409020805460243591908210156102415760209161120b91612ba6565b90549060031b1c604051908152f35b346102415760003660031901126102415761124060018060a01b03600054163314612cef565b600160ff196009541617600955337f0d65e0f4a7cf3a67f8d4e1f952cd658769a7e982c95cbbe018fa38feb543b12f600080a2005b346102415760803660031901126102415761128e612b02565b611296612b18565b604435916064356112ac60ff6009541615612c57565b6001600160a01b0382169283151580611507575b156114c257841515806114b9575b15611474576001600160a01b031690811561142f57600860115494604051906112f682612c00565b868252336020808401918252604080850193845260608501978852608085018b815260a086018881524260c08801908152600060e089018181526101008a018281528f835260109097529490209751885594516001880180546001600160a01b03199081166001600160a01b03938416179091559651600289018054891691831691909117905599516003880180549097169a16999099179094559251600480860191909155965160058501559051600684015590516007830155519101929091908210156104cf5760209585937fe4dd0bf7810df937a764e5505a9a5599b3d3056512e455f2e82545a450db7b449360ff801983541691161790556113fd601154612bbe565b601155604080516001600160a01b0390961686526020860191909152840152339280606081015b0390a3604051908152f35b60405162461bcd60e51b815260206004820152601760248201527f4d61726b6574706c6163653a207a65726f20746f6b656e0000000000000000006044820152606490fd5b60405162461bcd60e51b815260206004820152601e60248201527f4d61726b6574706c6163653a207a65726f20616d6f756e742f707269636500006044820152606490fd5b508115156112ce565b60405162461bcd60e51b815260206004820152601a60248201527f4d61726b6574706c6163653a20696e76616c69642070617274790000000000006044820152606490fd5b50338414156112c0565b346102415760203660031901126102415760043561153a60018060a01b03600054163314612cef565b6103e8811161157c5760407f14914da2bf76024616fbe1859783fcd4dbddcb179b1f3a854949fbf920dcb95791600654908060065582519182526020820152a1005b60405162461bcd60e51b815260206004820152601960248201527f4d61726b6574706c6163653a2066656520746f6f2068696768000000000000006044820152606490fd5b6115ca36612b3b565b6115d960ff6009541615612c57565b6115e860016008541415612e2c565b600160085561074d6004548310612d77565b34610241576000366003190112610241576020601154604051908152f35b3461024157602036600319011261024157600435600061010060405161163d81612c00565b8281528260208201528260408201528260608201528260808201528260a08201528260c08201528260e082015201526116796011548210612ec4565b6000526010602052604060002060405161169281612c00565b8154815260018060a01b03600183015416916020820192835260018060a01b036002820154166040830190815260018060a01b036003830154169160608401928352600481015460808501908152600582015460a0860190815260068301549160c0870192835260ff600860078601549560e08a019687520154169561010088019560048810156104cf576101209961177f98885260405199518a5260018060a01b0390511660208a015260018060a01b03905116604089015260018060a01b0390511660608801525160808701525160a08601525160c08501525160e084015251610100830190612b2e565bf35b34610241576020366003190112610241576001600160a01b036117a2612b02565b166000526005602052604060002060405190816020825491828152019160005260206000209060005b8181106117f2576117ee856117e281870382612c1d565b60405191829182612ac8565b0390f35b82548452602090930192600192830192016117cb565b34610241576000366003190112610241576020600b54604051908152f35b34610241576000366003190112610241576020600a54604051908152f35b3461024157600036600319011261024157602060ff600954166040519015158152f35b346102415761187536612b51565b919061188660ff6009541615612c57565b61189560016008541415612e2c565b600160085560018060a01b0382169182600052600e60205260408060002060009060018060a01b038516825260205220916118d660ff600785015416613038565b60048301928354928387116119f75761191d926002889360018060a01b03600154166119e4575b01956119148461190e818a54612e19565b97612fd2565b905533906131ba565b600080808084335af161192e612e94565b5015611994576119519083600052600f6020526040600020610c7182825461302b565b600a55546040519260008452602084015260408301527fe679f8c9b95f0de32a32658d1de18440d6b8a0b855279bdf5ecd7dd11b3b642d60603393a36000600855005b60405162461bcd60e51b815260206004820152602260248201527f4d61726b6574706c6163653a2073656c6c6572207061796d656e74206661696c604482015261195960f21b6064820152608490fd5b6119f2610d32868633613091565b6118fd565b60405162461bcd60e51b815260206004820152601f60248201527f4d61726b6574706c6163653a20657863656564732062696420616d6f756e74006044820152606490fd5b602036600319011261024157600435611a5a60ff6009541615612c57565b611a6960016008541415612e2c565b6001600855611a7b6011548210612ec4565b8060005260106020526040600020600881019060ff82541660048110156104cf57600103611c715760018101546001600160a01b03169133839003611c2c57611b24926005830191600080808086546004890196611adb88548093612e19565b9a8b92611aea84341015612f09565b60015483908d9083906001600160a01b0316611c07575b50505060038c015460028d0180549094916001600160a01b0391821691166131ba565b546001600160a01b03165af1611b38612e94565b5015611bb75784604094611b88927f2ed631e8ad48230d8fe6302da49dca1ede4ae14e5903fd1fe197eebc57f554cd973411611ba0575b600260ff19825416179055600742910155600a5461302b565b600a5554905482519182526020820152a26000600855005b611bb260008080806108c28834612fd2565b611b6f565b60405162461bcd60e51b815260206004820152602260248201527f4d61726b6574706c6163653a20706172747942207061796d656e74206661696c604482015261195960f21b6064820152608490fd5b600290910154611c2492610d3292916001600160a01b0316613091565b828c82611b01565b60405162461bcd60e51b815260206004820152601760248201527f4d61726b6574706c6163653a206e6f74207061727479410000000000000000006044820152606490fd5b60405162461bcd60e51b815260206004820152601960248201527f4d61726b6574706c6163653a206e6f74206163636570746564000000000000006044820152606490fd5b34610241576020366003190112610241576001600160a01b03611cd7612b02565b16600052600f6020526020604060002054604051908152f35b34610241576020366003190112610241576004356000526003602052610100604060002080549060018060a01b036001820154169060018060a01b03600282015416600382015460048301549060058401549260ff600760068701549601541695604051978852602088015260408701526060860152608085015260a084015260c0830152151560e0820152f35b3461024157600036600319011261024157611da460018060a01b03600054163314612cef565b60ff1960095416600955337f3fbffb448bfc0010197580b083048a6c73e5cd8d20ff95ea5119c636e86fb5eb600080a2005b34610241576000366003190112610241576000546001600160a01b0316611dfe338214612cef565b611e0d60016008541415612e2c565b600160085547908115611e7d57600080809381935af1611e2b612e94565b5015611e38576000600855005b60405162461bcd60e51b815260206004820152601c60248201527f4d61726b6574706c6163653a207769746864726177206661696c6564000000006044820152606490fd5b60405162461bcd60e51b815260206004820152601760248201527f4d61726b6574706c6163653a206e6f2062616c616e63650000000000000000006044820152606490fd5b34610241576040670de0b6b3a7640000611f59611ede36612b3b565b906000526003602052836000208451611ef681612be3565b8154815260018201546001600160a01b039081166020830152600283015416868201526003820154606082015260048201546080820152600582015460a08201819052600683015460c083015260079092015460ff16151560e090910152612e19565b04612710611f6960065483612e19565b0482519182526020820152f35b34610241576000366003190112610241576020600454604051908152f35b3461024157600036600319011261024157604051806020600c5492838152018092600c6000527fdf6966c971051c3d54ec59162606531493a51404a002842f56009d7e5cf4a8c79060005b8181106120415750505081611ff5910382612c1d565b6040519182916020830190602084525180915260408301919060005b81811061201f575050500390f35b82516001600160a01b0316845285945060209384019390920191600101612011565b82546001600160a01b0316845260209093019260019283019201611fdf565b34610241576020366003190112610241576004356000526010602052610120604060002061177f81549160018060a01b036001820154169060018060a01b0360028201541660018060a01b03600383015416600483015460058401549160068501549360ff600860078801549701541696604051998a5260208a015260408901526060880152608087015260a086015260c085015260e0840152610100830190612b2e565b34610241576020366003190112610241576004356121266004548210612d77565b80600052600360205261214360ff60076040600020015416612dcd565b600081815260036020526040902060018101546001600160a01b031633036121a5578060076003920160ff1981541690550154906040519182527fb3b66e9278cc82d38e08c6ea63c8a306e6e4a14cfde056b77230c8b321238edd60203393a3005b60405162461bcd60e51b815260206004820152601760248201527f4d61726b6574706c6163653a206e6f742073656c6c65720000000000000000006044820152606490fd5b34610241576040366003190112610241576101006040612208612b02565b612210612b18565b90612219612d3a565b506001600160a01b039081166000908152600e60209081528482209390921681529190522060405161224a81612be3565b60018060a01b038254169182825260018060a01b03600182015416602083019081526002820154604084019081526003830154606085019081526004840154916080860192835260058501549360a0870194855260e060ff600760068901549860c08b01998a520154169701961515875260405197885260018060a01b0390511660208801525160408701525160608601525160808501525160a08401525160c083015251151560e0820152f35b34610241576040366003190112610241576101006040612316612b02565b61231e612b18565b9060018060a01b0316600052600e6020528160002060009160018060a01b031682526020522060018060a01b038154169060018060a01b03600182015416906002810154600382015460048301549060058401549260ff600760068701549601541695604051978852602088015260408701526060860152608085015260a084015260c0830152151560e0820152f35b34610241576020366003190112610241576123c7612b02565b6123dc60018060a01b03600054163314612cef565b600280546001600160a01b0319166001600160a01b0392909216919091179055005b34610241576000366003190112610241576002546040516001600160a01b039091168152602090f35b3461024157602036600319011261024157612440612b02565b61245560018060a01b03600054163314612cef565b6001600160a01b0316612469811515612ca3565b80600052600d60205260ff604060002054166125105780600052600d6020526040600020600160ff19825416179055600c54600160401b8110156124fa578060016124b79201600c55612b8b565b81546001600160a01b0360039290921b91821b19169083901b1790557f81e9a67376762c1ffff355e2350c8eed01e2521cf27a08f25a4223cc57b12501600080a2005b634e487b7160e01b600052604160045260246000fd5b60405162461bcd60e51b815260206004820152601a60248201527f4d61726b6574706c6163653a20616c7265616479206d616b65720000000000006044820152606490fd5b346102415760603660031901126102415761256e612b02565b602435906044359061258560ff6009541615612c57565b8215612979578115612928576001600160a01b038116916125a7831515612ca3565b6000806040516020810190636eb1769f60e11b8252336024820152306044820152604481526125d7606482612c1d565b5190855afa6125e4612e94565b90156128d8576020815191818082019384920101031261024157849051106128815760008060405160208101906370a0823160e01b825233602482015260248152612630604482612c1d565b5190855afa61263d612e94565b9015612831576020815191818082019384920101031261024157849051106127dc5761273e6004549360076040519161267583612be3565b86835260208301903382526040840190815260608401898152608085018a815260a086019188835260c087019342855260e0880195600187528c600052600360205260406000209851895560018060a01b03905116600189019060018060a01b03166001600160601b0360a01b82541617905560018060a01b03905116600288019060018060a01b03166001600160601b0360a01b82541617905551600387015551600486015551600585015551600684015551151591019060ff801983541691151516179055565b336000526005602052604060002090815490600160401b8210156124fa5760209561279183879560017f8b1d58f65fa4301b96e761fc13f212f4a52d7de66d9bb7da09434ff16aee97c896018155612ba6565b81549060031b9086821b91600019901b19161790556127b1600454612bbe565b600455604080516001600160a01b039096168652602086019190915284015233928060608101611424565b60405162461bcd60e51b815260206004820152602760248201527f4d61726b6574706c6163653a20696e73756666696369656e7420746f6b656e2060448201526662616c616e636560c81b6064820152608490fd5b60405162461bcd60e51b815260206004820152602260248201527f4d61726b6574706c6163653a2062616c616e63654f662063616c6c206661696c604482015261195960f21b6064820152608490fd5b60405162461bcd60e51b815260206004820152602960248201527f4d61726b6574706c6163653a20696e73756666696369656e7420746f6b656e20604482015268616c6c6f77616e636560b81b6064820152608490fd5b60405162461bcd60e51b815260206004820152602260248201527f4d61726b6574706c6163653a20616c6c6f77616e63652063616c6c206661696c604482015261195960f21b6064820152608490fd5b60405162461bcd60e51b815260206004820152602360248201527f4d61726b6574706c6163653a207072696365206d75737420626520706f73697460448201526269766560e81b6064820152608490fd5b60405162461bcd60e51b8152602060048201526024808201527f4d61726b6574706c6163653a20616d6f756e74206d75737420626520706f73696044820152637469766560e01b6064820152608490fd5b34610241576000366003190112610241576004546000805b828110612a9257506129f381612c3f565b90612a016040519283612c1d565b808252612a10601f1991612c3f565b0136602083013760009160005b818110612a3257604051806117ee8582612ac8565b80600052600360205260ff60076040600020015416612a54575b600101612a1d565b928251811015612a7c57612a748185602060019460051b87010152612bbe565b939050612a4c565b634e487b7160e01b600052603260045260246000fd5b80600052600360205260ff60076040600020015416612ab4575b6001016129e2565b90612ac0600191612bbe565b919050612aac565b602060408183019282815284518094520192019060005b818110612aec5750505090565b8251845260209384019390920191600101612adf565b600435906001600160a01b038216820361024157565b602435906001600160a01b038216820361024157565b9060048210156104cf5752565b6040906003190112610241576004359060243590565b6060906003190112610241576004356001600160a01b038116810361024157906024356001600160a01b0381168103610241579060443590565b600c54811015612a7c57600c60005260206000200190600090565b8054821015612a7c5760005260206000200190600090565b6000198114612bcd5760010190565b634e487b7160e01b600052601160045260246000fd5b610100810190811067ffffffffffffffff8211176124fa57604052565b610120810190811067ffffffffffffffff8211176124fa57604052565b90601f8019910116810190811067ffffffffffffffff8211176124fa57604052565b67ffffffffffffffff81116124fa5760051b60200190565b15612c5e57565b60405162461bcd60e51b815260206004820152601d60248201527f4d61726b6574706c6163653a206d61726b6574206973207061757365640000006044820152606490fd5b15612caa57565b60405162461bcd60e51b815260206004820152601960248201527f4d61726b6574706c6163653a207a65726f2061646472657373000000000000006044820152606490fd5b15612cf657565b606460405162461bcd60e51b815260206004820152602060248201527f4d61726b6574706c6163653a2063616c6c6572206973206e6f742061646d696e6044820152fd5b60405190612d4782612be3565b600060e0838281528260208201528260408201528260608201528260808201528260a08201528260c08201520152565b15612d7e57565b60405162461bcd60e51b815260206004820152602160248201527f4d61726b6574706c6163653a206f7264657220646f6573206e6f7420657869736044820152601d60fa1b6064820152608490fd5b15612dd457565b60405162461bcd60e51b815260206004820152601d60248201527f4d61726b6574706c6163653a206f72646572206e6f74206163746976650000006044820152606490fd5b81810292918115918404141715612bcd57565b15612e3357565b60405162461bcd60e51b815260206004820152601b60248201527f4d61726b6574706c6163653a207265656e7472616e742063616c6c00000000006044820152606490fd5b67ffffffffffffffff81116124fa57601f01601f191660200190565b3d15612ebf573d90612ea582612e78565b91612eb36040519384612c1d565b82523d6000602084013e565b606090565b15612ecb57565b60405162461bcd60e51b815260206004820152601660248201527513585c9ad95d1c1b1858d94e881b9bdd08199bdd5b9960521b6044820152606490fd5b15612f1057565b60405162461bcd60e51b815260206004820152602160248201527f4d61726b6574706c6163653a20696e73756666696369656e74207061796d656e6044820152601d60fa1b6064820152608490fd5b60005b838110612f725750506000910152565b8181015183820152602001612f62565b60409160208252612fa28151809281602086015260208686019101612f5f565b601f01601f1916010190565b15612fb65750565b60405162461bcd60e51b8152908190610a829060048301612f82565b91908203918211612bcd57565b15612fe657565b60405162461bcd60e51b815260206004820152601a60248201527f4d61726b6574706c6163653a20726566756e64206661696c65640000000000006044820152606490fd5b91908201809211612bcd57565b1561303f57565b60405162461bcd60e51b815260206004820152601d60248201527f4d61726b6574706c6163653a2071756f7465206e6f74206163746976650000006044820152606490fd5b5190811515820361024157565b60015460405163cc1dd94f60e01b602082019081526001600160a01b03938416602483015293831660448201526064810194909452600093849391909216916130e781608481015b03601f198101835282612c1d565b51915afa906130f4612e94565b911561317a578151820191604081602085019403126102415761311960208201613084565b9060408101519067ffffffffffffffff8211610241570183603f8201121561024157602081015161314981612e78565b946131576040519687612c1d565b8186526040838301011161024157613176916040602087019101612f5f565b9190565b905060009060405161318d604082612c1d565b601c81527f436f6d706c69616e636520636865636b2063616c6c206661696c656400000000602082015290565b6040516323b872dd60e01b602082019081526001600160a01b039384166024830152939092166044830152606482019390935260009283929091839061320381608481016130d9565b51925af161320f612e94565b81613261575b501561321d57565b606460405162461bcd60e51b815260206004820152602060248201527f4d61726b6574706c6163653a207472616e7366657246726f6d206661696c65646044820152fd5b8051801592508215613276575b505038613215565b81925090602091810103126102415760206132919101613084565b388061326e56fea2646970667358221220815a1b74a3ee5fc68819c914921b68853d34c1513b0fc0cbac2e1e8a2d44051864736f6c634300081c0033",
  "linkReferences": {},
  "deployedLinkReferences": {}
}